{
  "_format": "hh-sol-artifact-1",
  "contractName": "Boid",
  "sourceName": "contracts/Boid.sol",
  "abi": [
    {
      "inputs": [],
      "stateMutability": "nonpayable",
      "type": "constructor"
    },
    {
      "anonymous": false,
      "inputs": [
        {
          "indexed": true,
          "internalType": "address",
          "name": "owner",
          "type": "address"
        },
        {
          "indexed": true,
          "internalType": "address",
          "name": "approved",
          "type": "address"
        },
        {
          "indexed": true,
          "internalType": "uint256",
          "name": "tokenId",
          "type": "uint256"
        }
      ],
      "name": "Approval",
      "type": "event"
    },
    {
      "anonymous": false,
      "inputs": [
        {
          "indexed": true,
          "internalType": "address",
          "name": "owner",
          "type": "address"
        },
        {
          "indexed": true,
          "internalType": "address",
          "name": "operator",
          "type": "address"
        },
        {
          "indexed": false,
          "internalType": "bool",
          "name": "approved",
          "type": "bool"
        }
      ],
      "name": "ApprovalForAll",
      "type": "event"
    },
    {
      "anonymous": false,
      "inputs": [
        {
          "indexed": true,
          "internalType": "address",
          "name": "previousOwner",
          "type": "address"
        },
        {
          "indexed": true,
          "internalType": "address",
          "name": "newOwner",
          "type": "address"
        }
      ],
      "name": "OwnershipTransferred",
      "type": "event"
    },
    {
      "anonymous": false,
      "inputs": [
        {
          "indexed": true,
          "internalType": "address",
          "name": "from",
          "type": "address"
        },
        {
          "indexed": true,
          "internalType": "address",
          "name": "to",
          "type": "address"
        },
        {
          "indexed": true,
          "internalType": "uint256",
          "name": "tokenId",
          "type": "uint256"
        }
      ],
      "name": "Transfer",
      "type": "event"
    },
    {
      "inputs": [],
      "name": "BOID_IFPS",
      "outputs": [
        {
          "internalType": "string",
          "name": "",
          "type": "string"
        }
      ],
      "stateMutability": "view",
      "type": "function"
    },
    {
      "inputs": [],
      "name": "MAX_BOIDS",
      "outputs": [
        {
          "internalType": "uint256",
          "name": "",
          "type": "uint256"
        }
      ],
      "stateMutability": "view",
      "type": "function"
    },
    {
      "inputs": [
        {
          "internalType": "address",
          "name": "to",
          "type": "address"
        },
        {
          "internalType": "uint256",
          "name": "tokenId",
          "type": "uint256"
        }
      ],
      "name": "approve",
      "outputs": [],
      "stateMutability": "nonpayable",
      "type": "function"
    },
    {
      "inputs": [
        {
          "internalType": "address",
          "name": "owner",
          "type": "address"
        }
      ],
      "name": "balanceOf",
      "outputs": [
        {
          "internalType": "uint256",
          "name": "",
          "type": "uint256"
        }
      ],
      "stateMutability": "view",
      "type": "function"
    },
    {
      "inputs": [],
      "name": "boidPrice",
      "outputs": [
        {
          "internalType": "uint256",
          "name": "",
          "type": "uint256"
        }
      ],
      "stateMutability": "view",
      "type": "function"
    },
    {
      "inputs": [],
      "name": "flipSaleState",
      "outputs": [],
      "stateMutability": "nonpayable",
      "type": "function"
    },
    {
      "inputs": [
        {
          "internalType": "uint256",
          "name": "tokenId",
          "type": "uint256"
        }
      ],
      "name": "getApproved",
      "outputs": [
        {
          "internalType": "address",
          "name": "",
          "type": "address"
        }
      ],
      "stateMutability": "view",
      "type": "function"
    },
    {
      "inputs": [
        {
          "internalType": "address",
          "name": "owner",
          "type": "address"
        },
        {
          "internalType": "address",
          "name": "operator",
          "type": "address"
        }
      ],
      "name": "isApprovedForAll",
      "outputs": [
        {
          "internalType": "bool",
          "name": "",
          "type": "bool"
        }
      ],
      "stateMutability": "view",
      "type": "function"
    },
    {
      "inputs": [],
      "name": "maxBoidPurchase",
      "outputs": [
        {
          "internalType": "uint256",
          "name": "",
          "type": "uint256"
        }
      ],
      "stateMutability": "view",
      "type": "function"
    },
    {
      "inputs": [
        {
          "internalType": "uint256",
          "name": "numberOfTokens",
          "type": "uint256"
        }
      ],
      "name": "mintBoid",
      "outputs": [],
      "stateMutability": "nonpayable",
      "type": "function"
    },
    {
      "inputs": [],
      "name": "name",
      "outputs": [
        {
          "internalType": "string",
          "name": "",
          "type": "string"
        }
      ],
      "stateMutability": "view",
      "type": "function"
    },
    {
      "inputs": [],
      "name": "owner",
      "outputs": [
        {
          "internalType": "address",
          "name": "",
          "type": "address"
        }
      ],
      "stateMutability": "view",
      "type": "function"
    },
    {
      "inputs": [
        {
          "internalType": "address",
          "name": "",
          "type": "address"
        }
      ],
      "name": "ownerBoidCount",
      "outputs": [
        {
          "internalType": "uint256",
          "name": "",
          "type": "uint256"
        }
      ],
      "stateMutability": "view",
      "type": "function"
    },
    {
      "inputs": [
        {
          "internalType": "uint256",
          "name": "tokenId",
          "type": "uint256"
        }
      ],
      "name": "ownerOf",
      "outputs": [
        {
          "internalType": "address",
          "name": "",
          "type": "address"
        }
      ],
      "stateMutability": "view",
      "type": "function"
    },
    {
      "inputs": [],
      "name": "renounceOwnership",
      "outputs": [],
      "stateMutability": "nonpayable",
      "type": "function"
    },
    {
      "inputs": [
        {
          "internalType": "address",
          "name": "from",
          "type": "address"
        },
        {
          "internalType": "address",
          "name": "to",
          "type": "address"
        },
        {
          "internalType": "uint256",
          "name": "tokenId",
          "type": "uint256"
        }
      ],
      "name": "safeTransferFrom",
      "outputs": [],
      "stateMutability": "nonpayable",
      "type": "function"
    },
    {
      "inputs": [
        {
          "internalType": "address",
          "name": "from",
          "type": "address"
        },
        {
          "internalType": "address",
          "name": "to",
          "type": "address"
        },
        {
          "internalType": "uint256",
          "name": "tokenId",
          "type": "uint256"
        },
        {
          "internalType": "bytes",
          "name": "_data",
          "type": "bytes"
        }
      ],
      "name": "safeTransferFrom",
      "outputs": [],
      "stateMutability": "nonpayable",
      "type": "function"
    },
    {
      "inputs": [],
      "name": "saleIsActive",
      "outputs": [
        {
          "internalType": "bool",
          "name": "",
          "type": "bool"
        }
      ],
      "stateMutability": "view",
      "type": "function"
    },
    {
      "inputs": [
        {
          "internalType": "address",
          "name": "operator",
          "type": "address"
        },
        {
          "internalType": "bool",
          "name": "approved",
          "type": "bool"
        }
      ],
      "name": "setApprovalForAll",
      "outputs": [],
      "stateMutability": "nonpayable",
      "type": "function"
    },
    {
      "inputs": [
        {
          "internalType": "string",
          "name": "IFPShash",
          "type": "string"
        }
      ],
      "name": "setIFPShash",
      "outputs": [],
      "stateMutability": "nonpayable",
      "type": "function"
    },
    {
      "inputs": [
        {
          "internalType": "uint256",
          "name": "tokenId",
          "type": "uint256"
        },
        {
          "internalType": "string",
          "name": "_tokenURI",
          "type": "string"
        }
      ],
      "name": "setTokenUri",
      "outputs": [],
      "stateMutability": "nonpayable",
      "type": "function"
    },
    {
      "inputs": [
        {
          "internalType": "bytes4",
          "name": "interfaceId",
          "type": "bytes4"
        }
      ],
      "name": "supportsInterface",
      "outputs": [
        {
          "internalType": "bool",
          "name": "",
          "type": "bool"
        }
      ],
      "stateMutability": "view",
      "type": "function"
    },
    {
      "inputs": [],
      "name": "symbol",
      "outputs": [
        {
          "internalType": "string",
          "name": "",
          "type": "string"
        }
      ],
      "stateMutability": "view",
      "type": "function"
    },
    {
      "inputs": [
        {
          "internalType": "uint256",
          "name": "tokenId",
          "type": "uint256"
        }
      ],
      "name": "tokenURI",
      "outputs": [
        {
          "internalType": "string",
          "name": "",
          "type": "string"
        }
      ],
      "stateMutability": "view",
      "type": "function"
    },
    {
      "inputs": [],
      "name": "totalSupply",
      "outputs": [
        {
          "internalType": "uint256",
          "name": "",
          "type": "uint256"
        }
      ],
      "stateMutability": "view",
      "type": "function"
    },
    {
      "inputs": [
        {
          "internalType": "address",
          "name": "from",
          "type": "address"
        },
        {
          "internalType": "address",
          "name": "to",
          "type": "address"
        },
        {
          "internalType": "uint256",
          "name": "tokenId",
          "type": "uint256"
        }
      ],
      "name": "transferFrom",
      "outputs": [],
      "stateMutability": "nonpayable",
      "type": "function"
    },
    {
      "inputs": [
        {
          "internalType": "address",
          "name": "newOwner",
          "type": "address"
        }
      ],
      "name": "transferOwnership",
      "outputs": [],
      "stateMutability": "nonpayable",
      "type": "function"
    },
    {
      "inputs": [],
      "name": "withdraw",
      "outputs": [],
      "stateMutability": "nonpayable",
      "type": "function"
    }
  ],
  "bytecode": "0x608060405260405180602001604052806000815250600890805190602001906200002b929190620001ee565b5060006009556000600a60006101000a81548160ff0219169083151502179055503480156200005957600080fd5b506040518060400160405280600481526020017f426f6964000000000000000000000000000000000000000000000000000000008152506040518060400160405280600481526020017f424f4944000000000000000000000000000000000000000000000000000000008152508160009080519060200190620000de929190620001ee565b508060019080519060200190620000f7929190620001ee565b5050506200011a6200010e6200012060201b60201c565b6200012860201b60201c565b62000303565b600033905090565b6000600760009054906101000a900473ffffffffffffffffffffffffffffffffffffffff16905081600760006101000a81548173ffffffffffffffffffffffffffffffffffffffff021916908373ffffffffffffffffffffffffffffffffffffffff1602179055508173ffffffffffffffffffffffffffffffffffffffff168173ffffffffffffffffffffffffffffffffffffffff167f8be0079c531659141344cd1fd0a4f28419497f9722a3daafe3b4186f6b6457e060405160405180910390a35050565b828054620001fc906200029e565b90600052602060002090601f0160209004810192826200022057600085556200026c565b82601f106200023b57805160ff19168380011785556200026c565b828001600101855582156200026c579182015b828111156200026b5782518255916020019190600101906200024e565b5b5090506200027b91906200027f565b5090565b5b808211156200029a57600081600090555060010162000280565b5090565b60006002820490506001821680620002b757607f821691505b60208210811415620002ce57620002cd620002d4565b5b50919050565b7f4e487b7100000000000000000000000000000000000000000000000000000000600052602260045260246000fd5b61372580620003136000396000f3fe608060405234801561001057600080fd5b50600436106101c45760003560e01c806370a08231116100f9578063c87b56dd11610097578063eb8d244411610071578063eb8d2444146104bb578063f2fde38b146104d9578063f79417aa146104f5578063fdae23c414610525576101c4565b8063c87b56dd1461043d578063e95076be1461046d578063e985e9c51461048b576101c4565b806395d89b41116100d357806395d89b41146103cb578063a22cb465146103e9578063b88d4fde14610405578063c26c8a1c14610421576101c4565b806370a0823114610373578063715018a6146103a35780638da5cb5b146103ad576101c4565b806334918dfd1161016657806342842e0e1161014057806342842e0e146102ed578063529643891461030957806357f7789e146103275780636352211e14610343576101c4565b806334918dfd146102bb5780633b31962a146102c55780633ccfd60b146102e3576101c4565b8063095ea7b3116101a2578063095ea7b3146102475780630d27d6fa1461026357806318160ddd1461028157806323b872dd1461029f576101c4565b806301ffc9a7146101c957806306fdde03146101f9578063081812fc14610217575b600080fd5b6101e360048036038101906101de9190612526565b610541565b6040516101f09190612fbd565b60405180910390f35b610201610623565b60405161020e9190612fd8565b60405180910390f35b610231600480360381019061022c91906125b9565b6106b5565b60405161023e9190612f56565b60405180910390f35b610261600480360381019061025c91906124ea565b61073a565b005b61026b610852565b60405161027891906132ba565b60405180910390f35b610289610857565b60405161029691906132ba565b60405180910390f35b6102b960048036038101906102b491906123e4565b61085d565b005b6102c36108bd565b005b6102cd610965565b6040516102da9190612fd8565b60405180910390f35b6102eb6109f3565b005b610307600480360381019061030291906123e4565b610abe565b005b610311610ade565b60405161031e91906132ba565b60405180910390f35b610341600480360381019061033c91906125e2565b610ae9565b005b61035d600480360381019061035891906125b9565b610b40565b60405161036a9190612f56565b60405180910390f35b61038d6004803603810190610388919061237f565b610bf2565b60405161039a91906132ba565b60405180910390f35b6103ab610caa565b005b6103b5610d32565b6040516103c29190612f56565b60405180910390f35b6103d3610d5c565b6040516103e09190612fd8565b60405180910390f35b61040360048036038101906103fe91906124ae565b610dee565b005b61041f600480360381019061041a9190612433565b610f6f565b005b61043b60048036038101906104369190612578565b610fd1565b005b610457600480360381019061045291906125b9565b611067565b6040516104649190612fd8565b60405180910390f35b6104756111b9565b60405161048291906132ba565b60405180910390f35b6104a560048036038101906104a091906123a8565b6111bf565b6040516104b29190612fbd565b60405180910390f35b6104c3611253565b6040516104d09190612fbd565b60405180910390f35b6104f360048036038101906104ee919061237f565b611266565b005b61050f600480360381019061050a919061237f565b61135e565b60405161051c91906132ba565b60405180910390f35b61053f600480360381019061053a91906125b9565b611376565b005b60007f80ac58cd000000000000000000000000000000000000000000000000000000007bffffffffffffffffffffffffffffffffffffffffffffffffffffffff1916827bffffffffffffffffffffffffffffffffffffffffffffffffffffffff1916148061060c57507f5b5e139f000000000000000000000000000000000000000000000000000000007bffffffffffffffffffffffffffffffffffffffffffffffffffffffff1916827bffffffffffffffffffffffffffffffffffffffffffffffffffffffff1916145b8061061c575061061b826114c5565b5b9050919050565b6060600080546106329061351a565b80601f016020809104026020016040519081016040528092919081815260200182805461065e9061351a565b80156106ab5780601f10610680576101008083540402835291602001916106ab565b820191906000526020600020905b81548152906001019060200180831161068e57829003601f168201915b5050505050905090565b60006106c08261152f565b6106ff576040517f08c379a00000000000000000000000000000000000000000000000000000000081526004016106f6906131fa565b60405180910390fd5b6004600083815260200190815260200160002060009054906101000a900473ffffffffffffffffffffffffffffffffffffffff169050919050565b600061074582610b40565b90508073ffffffffffffffffffffffffffffffffffffffff168373ffffffffffffffffffffffffffffffffffffffff1614156107b6576040517f08c379a00000000000000000000000000000000000000000000000000000000081526004016107ad9061327a565b60405180910390fd5b8073ffffffffffffffffffffffffffffffffffffffff166107d561159b565b73ffffffffffffffffffffffffffffffffffffffff1614806108045750610803816107fe61159b565b6111bf565b5b610843576040517f08c379a000000000000000000000000000000000000000000000000000000000815260040161083a9061313a565b60405180910390fd5b61084d83836115a3565b505050565b601481565b60095481565b61086e61086861159b565b8261165c565b6108ad576040517f08c379a00000000000000000000000000000000000000000000000000000000081526004016108a49061329a565b60405180910390fd5b6108b883838361173a565b505050565b6108c561159b565b73ffffffffffffffffffffffffffffffffffffffff166108e3610d32565b73ffffffffffffffffffffffffffffffffffffffff1614610939576040517f08c379a00000000000000000000000000000000000000000000000000000000081526004016109309061321a565b60405180910390fd5b600a60009054906101000a900460ff1615600a60006101000a81548160ff021916908315150217905550565b600880546109729061351a565b80601f016020809104026020016040519081016040528092919081815260200182805461099e9061351a565b80156109eb5780601f106109c0576101008083540402835291602001916109eb565b820191906000526020600020905b8154815290600101906020018083116109ce57829003601f168201915b505050505081565b6109fb61159b565b73ffffffffffffffffffffffffffffffffffffffff16610a19610d32565b73ffffffffffffffffffffffffffffffffffffffff1614610a6f576040517f08c379a0000000000000000000000000000000000000000000000000000000008152600401610a669061321a565b60405180910390fd5b60004790503373ffffffffffffffffffffffffffffffffffffffff166108fc829081150290604051600060405180830381858888f19350505050158015610aba573d6000803e3d6000fd5b5050565b610ad983838360405180602001604052806000815250610f6f565b505050565b6658d15e1762800081565b610af3338361165c565b610b32576040517f08c379a0000000000000000000000000000000000000000000000000000000008152600401610b2990612ffa565b60405180910390fd5b610b3c8282611996565b5050565b6000806002600084815260200190815260200160002060009054906101000a900473ffffffffffffffffffffffffffffffffffffffff169050600073ffffffffffffffffffffffffffffffffffffffff168173ffffffffffffffffffffffffffffffffffffffff161415610be9576040517f08c379a0000000000000000000000000000000000000000000000000000000008152600401610be09061317a565b60405180910390fd5b80915050919050565b60008073ffffffffffffffffffffffffffffffffffffffff168273ffffffffffffffffffffffffffffffffffffffff161415610c63576040517f08c379a0000000000000000000000000000000000000000000000000000000008152600401610c5a9061315a565b60405180910390fd5b600360008373ffffffffffffffffffffffffffffffffffffffff1673ffffffffffffffffffffffffffffffffffffffff168152602001908152602001600020549050919050565b610cb261159b565b73ffffffffffffffffffffffffffffffffffffffff16610cd0610d32565b73ffffffffffffffffffffffffffffffffffffffff1614610d26576040517f08c379a0000000000000000000000000000000000000000000000000000000008152600401610d1d9061321a565b60405180910390fd5b610d306000611a0a565b565b6000600760009054906101000a900473ffffffffffffffffffffffffffffffffffffffff16905090565b606060018054610d6b9061351a565b80601f0160208091040260200160405190810160405280929190818152602001828054610d979061351a565b8015610de45780601f10610db957610100808354040283529160200191610de4565b820191906000526020600020905b815481529060010190602001808311610dc757829003601f168201915b5050505050905090565b610df661159b565b73ffffffffffffffffffffffffffffffffffffffff168273ffffffffffffffffffffffffffffffffffffffff161415610e64576040517f08c379a0000000000000000000000000000000000000000000000000000000008152600401610e5b906130da565b60405180910390fd5b8060056000610e7161159b565b73ffffffffffffffffffffffffffffffffffffffff1673ffffffffffffffffffffffffffffffffffffffff16815260200190815260200160002060008473ffffffffffffffffffffffffffffffffffffffff1673ffffffffffffffffffffffffffffffffffffffff16815260200190815260200160002060006101000a81548160ff0219169083151502179055508173ffffffffffffffffffffffffffffffffffffffff16610f1e61159b565b73ffffffffffffffffffffffffffffffffffffffff167f17307eab39ab6107e8899845ad3d59bd9653f200f220920489ca2b5937696c3183604051610f639190612fbd565b60405180910390a35050565b610f80610f7a61159b565b8361165c565b610fbf576040517f08c379a0000000000000000000000000000000000000000000000000000000008152600401610fb69061329a565b60405180910390fd5b610fcb84848484611ad0565b50505050565b610fd961159b565b73ffffffffffffffffffffffffffffffffffffffff16610ff7610d32565b73ffffffffffffffffffffffffffffffffffffffff161461104d576040517f08c379a00000000000000000000000000000000000000000000000000000000081526004016110449061321a565b60405180910390fd5b80600890805190602001906110639291906121a3565b5050565b60606110728261152f565b6110b1576040517f08c379a00000000000000000000000000000000000000000000000000000000081526004016110a8906131da565b60405180910390fd5b60006006600084815260200190815260200160002080546110d19061351a565b80601f01602080910402602001604051908101604052809291908181526020018280546110fd9061351a565b801561114a5780601f1061111f5761010080835404028352916020019161114a565b820191906000526020600020905b81548152906001019060200180831161112d57829003601f168201915b50505050509050600061115b611b2c565b90506000815114156111715781925050506111b4565b6000825111156111a657808260405160200161118e929190612f32565b604051602081830303815290604052925050506111b4565b6111af84611b43565b925050505b919050565b6103e881565b6000600560008473ffffffffffffffffffffffffffffffffffffffff1673ffffffffffffffffffffffffffffffffffffffff16815260200190815260200160002060008373ffffffffffffffffffffffffffffffffffffffff1673ffffffffffffffffffffffffffffffffffffffff16815260200190815260200160002060009054906101000a900460ff16905092915050565b600a60009054906101000a900460ff1681565b61126e61159b565b73ffffffffffffffffffffffffffffffffffffffff1661128c610d32565b73ffffffffffffffffffffffffffffffffffffffff16146112e2576040517f08c379a00000000000000000000000000000000000000000000000000000000081526004016112d99061321a565b60405180910390fd5b600073ffffffffffffffffffffffffffffffffffffffff168173ffffffffffffffffffffffffffffffffffffffff161415611352576040517f08c379a00000000000000000000000000000000000000000000000000000000081526004016113499061307a565b60405180910390fd5b61135b81611a0a565b50565b600b6020528060005260406000206000915090505481565b600a60009054906101000a900460ff166113c5576040517f08c379a00000000000000000000000000000000000000000000000000000000081526004016113bc9061301a565b60405180910390fd5b6000811180156113d6575060148111155b611415576040517f08c379a000000000000000000000000000000000000000000000000000000000815260040161140c9061311a565b60405180910390fd5b6103e861142d82600954611bea90919063ffffffff16565b111561146e576040517f08c379a00000000000000000000000000000000000000000000000000000000081526004016114659061305a565b60405180910390fd5b60005b818110156114c15761148f6001600954611bea90919063ffffffff16565b6009819055506103e860095410156114ae576114ad33600954611c00565b5b80806114b99061354c565b915050611471565b5050565b60007f01ffc9a7000000000000000000000000000000000000000000000000000000007bffffffffffffffffffffffffffffffffffffffffffffffffffffffff1916827bffffffffffffffffffffffffffffffffffffffffffffffffffffffff1916149050919050565b60008073ffffffffffffffffffffffffffffffffffffffff166002600084815260200190815260200160002060009054906101000a900473ffffffffffffffffffffffffffffffffffffffff1673ffffffffffffffffffffffffffffffffffffffff1614159050919050565b600033905090565b816004600083815260200190815260200160002060006101000a81548173ffffffffffffffffffffffffffffffffffffffff021916908373ffffffffffffffffffffffffffffffffffffffff160217905550808273ffffffffffffffffffffffffffffffffffffffff1661161683610b40565b73ffffffffffffffffffffffffffffffffffffffff167f8c5be1e5ebec7d5bd14f71427d1e84f3dd0314c0f7b2291e5b200ac8c7c3b92560405160405180910390a45050565b60006116678261152f565b6116a6576040517f08c379a000000000000000000000000000000000000000000000000000000000815260040161169d906130fa565b60405180910390fd5b60006116b183610b40565b90508073ffffffffffffffffffffffffffffffffffffffff168473ffffffffffffffffffffffffffffffffffffffff16148061172057508373ffffffffffffffffffffffffffffffffffffffff16611708846106b5565b73ffffffffffffffffffffffffffffffffffffffff16145b80611731575061173081856111bf565b5b91505092915050565b8273ffffffffffffffffffffffffffffffffffffffff1661175a82610b40565b73ffffffffffffffffffffffffffffffffffffffff16146117b0576040517f08c379a00000000000000000000000000000000000000000000000000000000081526004016117a79061323a565b60405180910390fd5b600073ffffffffffffffffffffffffffffffffffffffff168273ffffffffffffffffffffffffffffffffffffffff161415611820576040517f08c379a0000000000000000000000000000000000000000000000000000000008152600401611817906130ba565b60405180910390fd5b61182b838383611c1e565b6118366000826115a3565b6001600360008573ffffffffffffffffffffffffffffffffffffffff1673ffffffffffffffffffffffffffffffffffffffff16815260200190815260200160002060008282546118869190613430565b925050819055506001600360008473ffffffffffffffffffffffffffffffffffffffff1673ffffffffffffffffffffffffffffffffffffffff16815260200190815260200160002060008282546118dd91906133a9565b92505081905550816002600083815260200190815260200160002060006101000a81548173ffffffffffffffffffffffffffffffffffffffff021916908373ffffffffffffffffffffffffffffffffffffffff160217905550808273ffffffffffffffffffffffffffffffffffffffff168473ffffffffffffffffffffffffffffffffffffffff167fddf252ad1be2c89b69c2b068fc378daa952ba7f163c4a11628f55a4df523b3ef60405160405180910390a4505050565b61199f8261152f565b6119de576040517f08c379a00000000000000000000000000000000000000000000000000000000081526004016119d59061319a565b60405180910390fd5b80600660008481526020019081526020016000209080519060200190611a059291906121a3565b505050565b6000600760009054906101000a900473ffffffffffffffffffffffffffffffffffffffff16905081600760006101000a81548173ffffffffffffffffffffffffffffffffffffffff021916908373ffffffffffffffffffffffffffffffffffffffff1602179055508173ffffffffffffffffffffffffffffffffffffffff168173ffffffffffffffffffffffffffffffffffffffff167f8be0079c531659141344cd1fd0a4f28419497f9722a3daafe3b4186f6b6457e060405160405180910390a35050565b611adb84848461173a565b611ae784848484611c23565b611b26576040517f08c379a0000000000000000000000000000000000000000000000000000000008152600401611b1d9061303a565b60405180910390fd5b50505050565b606060405180602001604052806000815250905090565b6060611b4e8261152f565b611b8d576040517f08c379a0000000000000000000000000000000000000000000000000000000008152600401611b849061325a565b60405180910390fd5b6000611b97611b2c565b90506000815111611bb75760405180602001604052806000815250611be2565b80611bc184611dba565b604051602001611bd2929190612f32565b6040516020818303038152906040525b915050919050565b60008183611bf891906133a9565b905092915050565b611c1a828260405180602001604052806000815250611f67565b5050565b505050565b6000611c448473ffffffffffffffffffffffffffffffffffffffff16611fc2565b15611dad578373ffffffffffffffffffffffffffffffffffffffff1663150b7a02611c6d61159b565b8786866040518563ffffffff1660e01b8152600401611c8f9493929190612f71565b602060405180830381600087803b158015611ca957600080fd5b505af1925050508015611cda57506040513d601f19601f82011682018060405250810190611cd7919061254f565b60015b611d5d573d8060008114611d0a576040519150601f19603f3d011682016040523d82523d6000602084013e611d0f565b606091505b50600081511415611d55576040517f08c379a0000000000000000000000000000000000000000000000000000000008152600401611d4c9061303a565b60405180910390fd5b805181602001fd5b63150b7a0260e01b7bffffffffffffffffffffffffffffffffffffffffffffffffffffffff1916817bffffffffffffffffffffffffffffffffffffffffffffffffffffffff191614915050611db2565b600190505b949350505050565b60606000821415611e02576040518060400160405280600181526020017f30000000000000000000000000000000000000000000000000000000000000008152509050611f62565b600082905060005b60008214611e34578080611e1d9061354c565b915050600a82611e2d91906133ff565b9150611e0a565b60008167ffffffffffffffff811115611e76577f4e487b7100000000000000000000000000000000000000000000000000000000600052604160045260246000fd5b6040519080825280601f01601f191660200182016040528015611ea85781602001600182028036833780820191505090505b5090505b60008514611f5b57600182611ec19190613430565b9150600a85611ed09190613595565b6030611edc91906133a9565b60f81b818381518110611f18577f4e487b7100000000000000000000000000000000000000000000000000000000600052603260045260246000fd5b60200101907effffffffffffffffffffffffffffffffffffffffffffffffffffffffffffff1916908160001a905350600a85611f5491906133ff565b9450611eac565b8093505050505b919050565b611f718383611fd5565b611f7e6000848484611c23565b611fbd576040517f08c379a0000000000000000000000000000000000000000000000000000000008152600401611fb49061303a565b60405180910390fd5b505050565b600080823b905060008111915050919050565b600073ffffffffffffffffffffffffffffffffffffffff168273ffffffffffffffffffffffffffffffffffffffff161415612045576040517f08c379a000000000000000000000000000000000000000000000000000000000815260040161203c906131ba565b60405180910390fd5b61204e8161152f565b1561208e576040517f08c379a00000000000000000000000000000000000000000000000000000000081526004016120859061309a565b60405180910390fd5b61209a60008383611c1e565b6001600360008473ffffffffffffffffffffffffffffffffffffffff1673ffffffffffffffffffffffffffffffffffffffff16815260200190815260200160002060008282546120ea91906133a9565b92505081905550816002600083815260200190815260200160002060006101000a81548173ffffffffffffffffffffffffffffffffffffffff021916908373ffffffffffffffffffffffffffffffffffffffff160217905550808273ffffffffffffffffffffffffffffffffffffffff16600073ffffffffffffffffffffffffffffffffffffffff167fddf252ad1be2c89b69c2b068fc378daa952ba7f163c4a11628f55a4df523b3ef60405160405180910390a45050565b8280546121af9061351a565b90600052602060002090601f0160209004810192826121d15760008555612218565b82601f106121ea57805160ff1916838001178555612218565b82800160010185558215612218579182015b828111156122175782518255916020019190600101906121fc565b5b5090506122259190612229565b5090565b5b8082111561224257600081600090555060010161222a565b5090565b600061225961225484613306565b6132d5565b90508281526020810184848401111561227157600080fd5b61227c8482856134d8565b509392505050565b600061229761229284613336565b6132d5565b9050828152602081018484840111156122af57600080fd5b6122ba8482856134d8565b509392505050565b6000813590506122d181613693565b92915050565b6000813590506122e6816136aa565b92915050565b6000813590506122fb816136c1565b92915050565b600081519050612310816136c1565b92915050565b600082601f83011261232757600080fd5b8135612337848260208601612246565b91505092915050565b600082601f83011261235157600080fd5b8135612361848260208601612284565b91505092915050565b600081359050612379816136d8565b92915050565b60006020828403121561239157600080fd5b600061239f848285016122c2565b91505092915050565b600080604083850312156123bb57600080fd5b60006123c9858286016122c2565b92505060206123da858286016122c2565b9150509250929050565b6000806000606084860312156123f957600080fd5b6000612407868287016122c2565b9350506020612418868287016122c2565b92505060406124298682870161236a565b9150509250925092565b6000806000806080858703121561244957600080fd5b6000612457878288016122c2565b9450506020612468878288016122c2565b93505060406124798782880161236a565b925050606085013567ffffffffffffffff81111561249657600080fd5b6124a287828801612316565b91505092959194509250565b600080604083850312156124c157600080fd5b60006124cf858286016122c2565b92505060206124e0858286016122d7565b9150509250929050565b600080604083850312156124fd57600080fd5b600061250b858286016122c2565b925050602061251c8582860161236a565b9150509250929050565b60006020828403121561253857600080fd5b6000612546848285016122ec565b91505092915050565b60006020828403121561256157600080fd5b600061256f84828501612301565b91505092915050565b60006020828403121561258a57600080fd5b600082013567ffffffffffffffff8111156125a457600080fd5b6125b084828501612340565b91505092915050565b6000602082840312156125cb57600080fd5b60006125d98482850161236a565b91505092915050565b600080604083850312156125f557600080fd5b60006126038582860161236a565b925050602083013567ffffffffffffffff81111561262057600080fd5b61262c85828601612340565b9150509250929050565b61263f81613464565b82525050565b61264e81613476565b82525050565b600061265f82613366565b612669818561337c565b93506126798185602086016134e7565b61268281613682565b840191505092915050565b600061269882613371565b6126a2818561338d565b93506126b28185602086016134e7565b6126bb81613682565b840191505092915050565b60006126d182613371565b6126db818561339e565b93506126eb8185602086016134e7565b80840191505092915050565b600061270460308361338d565b91507f455243373231207472616e736665722063616c6c6572206973206e6f74206f7760008301527f6e6572206f7220617070726f7665642e000000000000000000000000000000006020830152604082019050919050565b600061276a60228361338d565b91507f53616c65206d7573742062652061637469766520746f206d696e74206120426f60008301527f69640000000000000000000000000000000000000000000000000000000000006020830152604082019050919050565b60006127d060328361338d565b91507f4552433732313a207472616e7366657220746f206e6f6e20455243373231526560008301527f63656976657220696d706c656d656e74657200000000000000000000000000006020830152604082019050919050565b600061283660298361338d565b91507f507572636861736520776f756c6420657863656564206d617820737570706c7960008301527f206f6620426f69647300000000000000000000000000000000000000000000006020830152604082019050919050565b600061289c60268361338d565b91507f4f776e61626c653a206e6577206f776e657220697320746865207a65726f206160008301527f64647265737300000000000000000000000000000000000000000000000000006020830152604082019050919050565b6000612902601c8361338d565b91507f4552433732313a20746f6b656e20616c7265616479206d696e746564000000006000830152602082019050919050565b600061294260248361338d565b91507f4552433732313a207472616e7366657220746f20746865207a65726f2061646460008301527f72657373000000000000000000000000000000000000000000000000000000006020830152604082019050919050565b60006129a860198361338d565b91507f4552433732313a20617070726f766520746f2063616c6c6572000000000000006000830152602082019050919050565b60006129e8602c8361338d565b91507f4552433732313a206f70657261746f7220717565727920666f72206e6f6e657860008301527f697374656e7420746f6b656e00000000000000000000000000000000000000006020830152604082019050919050565b6000612a4e60218361338d565b91507f43616e206f6e6c79206d696e7420323020746f6b656e7320617420612074696d60008301527f65000000000000000000000000000000000000000000000000000000000000006020830152604082019050919050565b6000612ab460388361338d565b91507f4552433732313a20617070726f76652063616c6c6572206973206e6f74206f7760008301527f6e6572206e6f7220617070726f76656420666f7220616c6c00000000000000006020830152604082019050919050565b6000612b1a602a8361338d565b91507f4552433732313a2062616c616e636520717565727920666f7220746865207a6560008301527f726f2061646472657373000000000000000000000000000000000000000000006020830152604082019050919050565b6000612b8060298361338d565b91507f4552433732313a206f776e657220717565727920666f72206e6f6e657869737460008301527f656e7420746f6b656e00000000000000000000000000000000000000000000006020830152604082019050919050565b6000612be6602e8361338d565b91507f45524337323155524953746f726167653a2055524920736574206f66206e6f6e60008301527f6578697374656e7420746f6b656e0000000000000000000000000000000000006020830152604082019050919050565b6000612c4c60208361338d565b91507f4552433732313a206d696e7420746f20746865207a65726f20616464726573736000830152602082019050919050565b6000612c8c60318361338d565b91507f45524337323155524953746f726167653a2055524920717565727920666f722060008301527f6e6f6e6578697374656e7420746f6b656e0000000000000000000000000000006020830152604082019050919050565b6000612cf2602c8361338d565b91507f4552433732313a20617070726f76656420717565727920666f72206e6f6e657860008301527f697374656e7420746f6b656e00000000000000000000000000000000000000006020830152604082019050919050565b6000612d5860208361338d565b91507f4f776e61626c653a2063616c6c6572206973206e6f7420746865206f776e65726000830152602082019050919050565b6000612d9860298361338d565b91507f4552433732313a207472616e73666572206f6620746f6b656e2074686174206960008301527f73206e6f74206f776e00000000000000000000000000000000000000000000006020830152604082019050919050565b6000612dfe602f8361338d565b91507f4552433732314d657461646174613a2055524920717565727920666f72206e6f60008301527f6e6578697374656e7420746f6b656e00000000000000000000000000000000006020830152604082019050919050565b6000612e6460218361338d565b91507f4552433732313a20617070726f76616c20746f2063757272656e74206f776e6560008301527f72000000000000000000000000000000000000000000000000000000000000006020830152604082019050919050565b6000612eca60318361338d565b91507f4552433732313a207472616e736665722063616c6c6572206973206e6f74206f60008301527f776e6572206e6f7220617070726f7665640000000000000000000000000000006020830152604082019050919050565b612f2c816134ce565b82525050565b6000612f3e82856126c6565b9150612f4a82846126c6565b91508190509392505050565b6000602082019050612f6b6000830184612636565b92915050565b6000608082019050612f866000830187612636565b612f936020830186612636565b612fa06040830185612f23565b8181036060830152612fb28184612654565b905095945050505050565b6000602082019050612fd26000830184612645565b92915050565b60006020820190508181036000830152612ff2818461268d565b905092915050565b60006020820190508181036000830152613013816126f7565b9050919050565b600060208201905081810360008301526130338161275d565b9050919050565b60006020820190508181036000830152613053816127c3565b9050919050565b6000602082019050818103600083015261307381612829565b9050919050565b600060208201905081810360008301526130938161288f565b9050919050565b600060208201905081810360008301526130b3816128f5565b9050919050565b600060208201905081810360008301526130d381612935565b9050919050565b600060208201905081810360008301526130f38161299b565b9050919050565b60006020820190508181036000830152613113816129db565b9050919050565b6000602082019050818103600083015261313381612a41565b9050919050565b6000602082019050818103600083015261315381612aa7565b9050919050565b6000602082019050818103600083015261317381612b0d565b9050919050565b6000602082019050818103600083015261319381612b73565b9050919050565b600060208201905081810360008301526131b381612bd9565b9050919050565b600060208201905081810360008301526131d381612c3f565b9050919050565b600060208201905081810360008301526131f381612c7f565b9050919050565b6000602082019050818103600083015261321381612ce5565b9050919050565b6000602082019050818103600083015261323381612d4b565b9050919050565b6000602082019050818103600083015261325381612d8b565b9050919050565b6000602082019050818103600083015261327381612df1565b9050919050565b6000602082019050818103600083015261329381612e57565b9050919050565b600060208201905081810360008301526132b381612ebd565b9050919050565b60006020820190506132cf6000830184612f23565b92915050565b6000604051905081810181811067ffffffffffffffff821117156132fc576132fb613653565b5b8060405250919050565b600067ffffffffffffffff82111561332157613320613653565b5b601f19601f8301169050602081019050919050565b600067ffffffffffffffff82111561335157613350613653565b5b601f19601f8301169050602081019050919050565b600081519050919050565b600081519050919050565b600082825260208201905092915050565b600082825260208201905092915050565b600081905092915050565b60006133b4826134ce565b91506133bf836134ce565b9250827fffffffffffffffffffffffffffffffffffffffffffffffffffffffffffffffff038211156133f4576133f36135c6565b5b828201905092915050565b600061340a826134ce565b9150613415836134ce565b925082613425576134246135f5565b5b828204905092915050565b600061343b826134ce565b9150613446836134ce565b925082821015613459576134586135c6565b5b828203905092915050565b600061346f826134ae565b9050919050565b60008115159050919050565b60007fffffffff0000000000000000000000000000000000000000000000000000000082169050919050565b600073ffffffffffffffffffffffffffffffffffffffff82169050919050565b6000819050919050565b82818337600083830152505050565b60005b838110156135055780820151818401526020810190506134ea565b83811115613514576000848401525b50505050565b6000600282049050600182168061353257607f821691505b6020821081141561354657613545613624565b5b50919050565b6000613557826134ce565b91507fffffffffffffffffffffffffffffffffffffffffffffffffffffffffffffffff82141561358a576135896135c6565b5b600182019050919050565b60006135a0826134ce565b91506135ab836134ce565b9250826135bb576135ba6135f5565b5b828206905092915050565b7f4e487b7100000000000000000000000000000000000000000000000000000000600052601160045260246000fd5b7f4e487b7100000000000000000000000000000000000000000000000000000000600052601260045260246000fd5b7f4e487b7100000000000000000000000000000000000000000000000000000000600052602260045260246000fd5b7f4e487b7100000000000000000000000000000000000000000000000000000000600052604160045260246000fd5b6000601f19601f8301169050919050565b61369c81613464565b81146136a757600080fd5b50565b6136b381613476565b81146136be57600080fd5b50565b6136ca81613482565b81146136d557600080fd5b50565b6136e1816134ce565b81146136ec57600080fd5b5056fea2646970667358221220cacf2aad6b4b568a44ac7d023fba12302474f3452610e500ecdeb4bbb1d6350764736f6c63430008000033",
  "linkReferences": {},
  "deployedLinkReferences": {}
}