{
  "_format": "hh-sol-artifact-1",
  "contractName": "Boids",
  "sourceName": "contracts/Boids.sol",
  "abi": [
    {
      "inputs": [
        {
          "internalType": "string",
          "name": "baseURI",
          "type": "string"
        }
      ],
      "stateMutability": "nonpayable",
      "type": "constructor"
    },
    {
      "anonymous": false,
      "inputs": [
        {
          "indexed": true,
          "internalType": "address",
          "name": "owner",
          "type": "address"
        },
        {
          "indexed": true,
          "internalType": "address",
          "name": "approved",
          "type": "address"
        },
        {
          "indexed": true,
          "internalType": "uint256",
          "name": "tokenId",
          "type": "uint256"
        }
      ],
      "name": "Approval",
      "type": "event"
    },
    {
      "anonymous": false,
      "inputs": [
        {
          "indexed": true,
          "internalType": "address",
          "name": "owner",
          "type": "address"
        },
        {
          "indexed": true,
          "internalType": "address",
          "name": "operator",
          "type": "address"
        },
        {
          "indexed": false,
          "internalType": "bool",
          "name": "approved",
          "type": "bool"
        }
      ],
      "name": "ApprovalForAll",
      "type": "event"
    },
    {
      "anonymous": false,
      "inputs": [
        {
          "indexed": true,
          "internalType": "address",
          "name": "previousOwner",
          "type": "address"
        },
        {
          "indexed": true,
          "internalType": "address",
          "name": "newOwner",
          "type": "address"
        }
      ],
      "name": "OwnershipTransferred",
      "type": "event"
    },
    {
      "anonymous": false,
      "inputs": [
        {
          "indexed": true,
          "internalType": "address",
          "name": "from",
          "type": "address"
        },
        {
          "indexed": true,
          "internalType": "address",
          "name": "to",
          "type": "address"
        },
        {
          "indexed": true,
          "internalType": "uint256",
          "name": "tokenId",
          "type": "uint256"
        }
      ],
      "name": "Transfer",
      "type": "event"
    },
    {
      "inputs": [],
      "name": "MAX_BOIDS",
      "outputs": [
        {
          "internalType": "uint256",
          "name": "",
          "type": "uint256"
        }
      ],
      "stateMutability": "view",
      "type": "function"
    },
    {
      "inputs": [
        {
          "internalType": "address",
          "name": "to",
          "type": "address"
        },
        {
          "internalType": "uint256",
          "name": "tokenId",
          "type": "uint256"
        }
      ],
      "name": "approve",
      "outputs": [],
      "stateMutability": "nonpayable",
      "type": "function"
    },
    {
      "inputs": [
        {
          "internalType": "address",
          "name": "owner",
          "type": "address"
        }
      ],
      "name": "balanceOf",
      "outputs": [
        {
          "internalType": "uint256",
          "name": "",
          "type": "uint256"
        }
      ],
      "stateMutability": "view",
      "type": "function"
    },
    {
      "inputs": [],
      "name": "boidPrice",
      "outputs": [
        {
          "internalType": "uint256",
          "name": "",
          "type": "uint256"
        }
      ],
      "stateMutability": "view",
      "type": "function"
    },
    {
      "inputs": [],
      "name": "flipSaleState",
      "outputs": [],
      "stateMutability": "nonpayable",
      "type": "function"
    },
    {
      "inputs": [
        {
          "internalType": "uint256",
          "name": "tokenId",
          "type": "uint256"
        }
      ],
      "name": "getApproved",
      "outputs": [
        {
          "internalType": "address",
          "name": "",
          "type": "address"
        }
      ],
      "stateMutability": "view",
      "type": "function"
    },
    {
      "inputs": [
        {
          "internalType": "address",
          "name": "owner",
          "type": "address"
        },
        {
          "internalType": "address",
          "name": "operator",
          "type": "address"
        }
      ],
      "name": "isApprovedForAll",
      "outputs": [
        {
          "internalType": "bool",
          "name": "",
          "type": "bool"
        }
      ],
      "stateMutability": "view",
      "type": "function"
    },
    {
      "inputs": [],
      "name": "maxBoidPurchase",
      "outputs": [
        {
          "internalType": "uint256",
          "name": "",
          "type": "uint256"
        }
      ],
      "stateMutability": "view",
      "type": "function"
    },
    {
      "inputs": [
        {
          "internalType": "uint256",
          "name": "numberOfTokens",
          "type": "uint256"
        }
      ],
      "name": "mintBoid",
      "outputs": [],
      "stateMutability": "payable",
      "type": "function"
    },
    {
      "inputs": [
        {
          "internalType": "uint256",
          "name": "numberOfTokens",
          "type": "uint256"
        }
      ],
      "name": "mintOwner",
      "outputs": [],
      "stateMutability": "payable",
      "type": "function"
    },
    {
      "inputs": [],
      "name": "name",
      "outputs": [
        {
          "internalType": "string",
          "name": "",
          "type": "string"
        }
      ],
      "stateMutability": "view",
      "type": "function"
    },
    {
      "inputs": [],
      "name": "owner",
      "outputs": [
        {
          "internalType": "address",
          "name": "",
          "type": "address"
        }
      ],
      "stateMutability": "view",
      "type": "function"
    },
    {
      "inputs": [
        {
          "internalType": "uint256",
          "name": "tokenId",
          "type": "uint256"
        }
      ],
      "name": "ownerOf",
      "outputs": [
        {
          "internalType": "address",
          "name": "",
          "type": "address"
        }
      ],
      "stateMutability": "view",
      "type": "function"
    },
    {
      "inputs": [],
      "name": "renounceOwnership",
      "outputs": [],
      "stateMutability": "nonpayable",
      "type": "function"
    },
    {
      "inputs": [
        {
          "internalType": "address",
          "name": "from",
          "type": "address"
        },
        {
          "internalType": "address",
          "name": "to",
          "type": "address"
        },
        {
          "internalType": "uint256",
          "name": "tokenId",
          "type": "uint256"
        }
      ],
      "name": "safeTransferFrom",
      "outputs": [],
      "stateMutability": "nonpayable",
      "type": "function"
    },
    {
      "inputs": [
        {
          "internalType": "address",
          "name": "from",
          "type": "address"
        },
        {
          "internalType": "address",
          "name": "to",
          "type": "address"
        },
        {
          "internalType": "uint256",
          "name": "tokenId",
          "type": "uint256"
        },
        {
          "internalType": "bytes",
          "name": "_data",
          "type": "bytes"
        }
      ],
      "name": "safeTransferFrom",
      "outputs": [],
      "stateMutability": "nonpayable",
      "type": "function"
    },
    {
      "inputs": [],
      "name": "saleIsActive",
      "outputs": [
        {
          "internalType": "bool",
          "name": "",
          "type": "bool"
        }
      ],
      "stateMutability": "view",
      "type": "function"
    },
    {
      "inputs": [
        {
          "internalType": "address",
          "name": "operator",
          "type": "address"
        },
        {
          "internalType": "bool",
          "name": "approved",
          "type": "bool"
        }
      ],
      "name": "setApprovalForAll",
      "outputs": [],
      "stateMutability": "nonpayable",
      "type": "function"
    },
    {
      "inputs": [
        {
          "internalType": "string",
          "name": "baseURI",
          "type": "string"
        }
      ],
      "name": "setBaseURI",
      "outputs": [],
      "stateMutability": "nonpayable",
      "type": "function"
    },
    {
      "inputs": [
        {
          "internalType": "bytes4",
          "name": "interfaceId",
          "type": "bytes4"
        }
      ],
      "name": "supportsInterface",
      "outputs": [
        {
          "internalType": "bool",
          "name": "",
          "type": "bool"
        }
      ],
      "stateMutability": "view",
      "type": "function"
    },
    {
      "inputs": [],
      "name": "symbol",
      "outputs": [
        {
          "internalType": "string",
          "name": "",
          "type": "string"
        }
      ],
      "stateMutability": "view",
      "type": "function"
    },
    {
      "inputs": [
        {
          "internalType": "uint256",
          "name": "tokenId",
          "type": "uint256"
        }
      ],
      "name": "tokenURI",
      "outputs": [
        {
          "internalType": "string",
          "name": "",
          "type": "string"
        }
      ],
      "stateMutability": "view",
      "type": "function"
    },
    {
      "inputs": [],
      "name": "totalSupply",
      "outputs": [
        {
          "internalType": "uint256",
          "name": "",
          "type": "uint256"
        }
      ],
      "stateMutability": "view",
      "type": "function"
    },
    {
      "inputs": [
        {
          "internalType": "address",
          "name": "from",
          "type": "address"
        },
        {
          "internalType": "address",
          "name": "to",
          "type": "address"
        },
        {
          "internalType": "uint256",
          "name": "tokenId",
          "type": "uint256"
        }
      ],
      "name": "transferFrom",
      "outputs": [],
      "stateMutability": "nonpayable",
      "type": "function"
    },
    {
      "inputs": [
        {
          "internalType": "address",
          "name": "newOwner",
          "type": "address"
        }
      ],
      "name": "transferOwnership",
      "outputs": [],
      "stateMutability": "nonpayable",
      "type": "function"
    },
    {
      "inputs": [],
      "name": "withdraw",
      "outputs": [],
      "stateMutability": "nonpayable",
      "type": "function"
    }
  ],
  "bytecode": "0x608060405260006008556000600960006101000a81548160ff0219169083151502179055503480156200003157600080fd5b5060405162003e4238038062003e428339818101604052810190620000579190620003f4565b6040518060400160405280600581526020017f424f4944530000000000000000000000000000000000000000000000000000008152506040518060400160405280600581526020017f424f4944530000000000000000000000000000000000000000000000000000008152508160009080519060200190620000db929190620002d2565b508060019080519060200190620000f4929190620002d2565b505050620001176200010b6200012f60201b60201c565b6200013760201b60201c565b6200012881620001fd60201b60201c565b50620005df565b600033905090565b6000600760009054906101000a900473ffffffffffffffffffffffffffffffffffffffff16905081600760006101000a81548173ffffffffffffffffffffffffffffffffffffffff021916908373ffffffffffffffffffffffffffffffffffffffff1602179055508173ffffffffffffffffffffffffffffffffffffffff168173ffffffffffffffffffffffffffffffffffffffff167f8be0079c531659141344cd1fd0a4f28419497f9722a3daafe3b4186f6b6457e060405160405180910390a35050565b6200020d6200012f60201b60201c565b73ffffffffffffffffffffffffffffffffffffffff1662000233620002a860201b60201c565b73ffffffffffffffffffffffffffffffffffffffff16146200028c576040517f08c379a000000000000000000000000000000000000000000000000000000000815260040162000283906200047b565b60405180910390fd5b80600a9080519060200190620002a4929190620002d2565b5050565b6000600760009054906101000a900473ffffffffffffffffffffffffffffffffffffffff16905090565b828054620002e0906200054b565b90600052602060002090601f01602090048101928262000304576000855562000350565b82601f106200031f57805160ff191683800117855562000350565b8280016001018555821562000350579182015b828111156200034f57825182559160200191906001019062000332565b5b5090506200035f919062000363565b5090565b5b808211156200037e57600081600090555060010162000364565b5090565b6000620003996200039384620004d1565b6200049d565b905082815260208101848484011115620003b257600080fd5b620003bf84828562000515565b509392505050565b600082601f830112620003d957600080fd5b8151620003eb84826020860162000382565b91505092915050565b6000602082840312156200040757600080fd5b600082015167ffffffffffffffff8111156200042257600080fd5b6200043084828501620003c7565b91505092915050565b60006200044860208362000504565b91507f4f776e61626c653a2063616c6c6572206973206e6f7420746865206f776e65726000830152602082019050919050565b60006020820190508181036000830152620004968162000439565b9050919050565b6000604051905081810181811067ffffffffffffffff82111715620004c757620004c6620005b0565b5b8060405250919050565b600067ffffffffffffffff821115620004ef57620004ee620005b0565b5b601f19601f8301169050602081019050919050565b600082825260208201905092915050565b60005b838110156200053557808201518184015260208101905062000518565b8381111562000545576000848401525b50505050565b600060028204905060018216806200056457607f821691505b602082108114156200057b576200057a62000581565b5b50919050565b7f4e487b7100000000000000000000000000000000000000000000000000000000600052602260045260246000fd5b7f4e487b7100000000000000000000000000000000000000000000000000000000600052604160045260246000fd5b61385380620005ef6000396000f3fe6080604052600436106101815760003560e01c80636352211e116100d1578063b88d4fde1161008a578063e985e9c511610064578063e985e9c51461053b578063eb8d244414610578578063f2fde38b146105a3578063fdae23c4146105cc57610181565b8063b88d4fde146104aa578063c87b56dd146104d3578063e95076be1461051057610181565b80636352211e1461039a57806370a08231146103d7578063715018a6146104145780638da5cb5b1461042b57806395d89b4114610456578063a22cb4651461048157610181565b806323b872dd1161013e5780633ccfd60b116101185780633ccfd60b1461030657806342842e0e1461031d578063529643891461034657806355f804b31461037157610181565b806323b872dd146102aa57806333f88d22146102d357806334918dfd146102ef57610181565b806301ffc9a71461018657806306fdde03146101c3578063081812fc146101ee578063095ea7b31461022b5780630d27d6fa1461025457806318160ddd1461027f575b600080fd5b34801561019257600080fd5b506101ad60048036038101906101a891906126fa565b6105e8565b6040516101ba91906130b1565b60405180910390f35b3480156101cf57600080fd5b506101d86106ca565b6040516101e591906130cc565b60405180910390f35b3480156101fa57600080fd5b506102156004803603810190610210919061278d565b61075c565b604051610222919061304a565b60405180910390f35b34801561023757600080fd5b50610252600480360381019061024d91906126be565b6107e1565b005b34801561026057600080fd5b506102696108f9565b604051610276919061338e565b60405180910390f35b34801561028b57600080fd5b506102946108fe565b6040516102a1919061338e565b60405180910390f35b3480156102b657600080fd5b506102d160048036038101906102cc91906125b8565b610904565b005b6102ed60048036038101906102e8919061278d565b610964565b005b3480156102fb57600080fd5b50610304610b22565b005b34801561031257600080fd5b5061031b610bca565b005b34801561032957600080fd5b50610344600480360381019061033f91906125b8565b610c95565b005b34801561035257600080fd5b5061035b610cb5565b604051610368919061338e565b60405180910390f35b34801561037d57600080fd5b506103986004803603810190610393919061274c565b610cc0565b005b3480156103a657600080fd5b506103c160048036038101906103bc919061278d565b610d56565b6040516103ce919061304a565b60405180910390f35b3480156103e357600080fd5b506103fe60048036038101906103f99190612553565b610e08565b60405161040b919061338e565b60405180910390f35b34801561042057600080fd5b50610429610ec0565b005b34801561043757600080fd5b50610440610f48565b60405161044d919061304a565b60405180910390f35b34801561046257600080fd5b5061046b610f72565b60405161047891906130cc565b60405180910390f35b34801561048d57600080fd5b506104a860048036038101906104a39190612682565b611004565b005b3480156104b657600080fd5b506104d160048036038101906104cc9190612607565b611185565b005b3480156104df57600080fd5b506104fa60048036038101906104f5919061278d565b6111e7565b60405161050791906130cc565b60405180910390f35b34801561051c57600080fd5b50610525611339565b604051610532919061338e565b60405180910390f35b34801561054757600080fd5b50610562600480360381019061055d919061257c565b61133f565b60405161056f91906130b1565b60405180910390f35b34801561058457600080fd5b5061058d6113d3565b60405161059a91906130b1565b60405180910390f35b3480156105af57600080fd5b506105ca60048036038101906105c59190612553565b6113e6565b005b6105e660048036038101906105e1919061278d565b6114de565b005b60007f80ac58cd000000000000000000000000000000000000000000000000000000007bffffffffffffffffffffffffffffffffffffffffffffffffffffffff1916827bffffffffffffffffffffffffffffffffffffffffffffffffffffffff191614806106b357507f5b5e139f000000000000000000000000000000000000000000000000000000007bffffffffffffffffffffffffffffffffffffffffffffffffffffffff1916827bffffffffffffffffffffffffffffffffffffffffffffffffffffffff1916145b806106c357506106c28261167c565b5b9050919050565b6060600080546106d990613648565b80601f016020809104026020016040519081016040528092919081815260200182805461070590613648565b80156107525780601f1061072757610100808354040283529160200191610752565b820191906000526020600020905b81548152906001019060200180831161073557829003601f168201915b5050505050905090565b6000610767826116e6565b6107a6576040517f08c379a000000000000000000000000000000000000000000000000000000000815260040161079d906132ce565b60405180910390fd5b6004600083815260200190815260200160002060009054906101000a900473ffffffffffffffffffffffffffffffffffffffff169050919050565b60006107ec82610d56565b90508073ffffffffffffffffffffffffffffffffffffffff168373ffffffffffffffffffffffffffffffffffffffff16141561085d576040517f08c379a00000000000000000000000000000000000000000000000000000000081526004016108549061334e565b60405180910390fd5b8073ffffffffffffffffffffffffffffffffffffffff1661087c611752565b73ffffffffffffffffffffffffffffffffffffffff1614806108ab57506108aa816108a5611752565b61133f565b5b6108ea576040517f08c379a00000000000000000000000000000000000000000000000000000000081526004016108e19061322e565b60405180910390fd5b6108f4838361175a565b505050565b601481565b60085481565b61091561090f611752565b82611813565b610954576040517f08c379a000000000000000000000000000000000000000000000000000000000815260040161094b9061336e565b60405180910390fd5b61095f8383836118f1565b505050565b61096c611752565b73ffffffffffffffffffffffffffffffffffffffff1661098a610f48565b73ffffffffffffffffffffffffffffffffffffffff16146109e0576040517f08c379a00000000000000000000000000000000000000000000000000000000081526004016109d7906132ee565b60405180910390fd5b600960009054906101000a900460ff16610a2f576040517f08c379a0000000000000000000000000000000000000000000000000000000008152600401610a26906130ee565b60405180910390fd5b600081118015610a40575060148111155b610a7f576040517f08c379a0000000000000000000000000000000000000000000000000000000008152600401610a769061320e565b60405180910390fd5b6107d0610a9782600854611b4d90919063ffffffff16565b1115610ad8576040517f08c379a0000000000000000000000000000000000000000000000000000000008152600401610acf9061312e565b60405180910390fd5b60005b81811015610b1e57610af96001600854611b4d90919063ffffffff16565b600881905550610b0b33600854611b63565b8080610b169061367a565b915050610adb565b5050565b610b2a611752565b73ffffffffffffffffffffffffffffffffffffffff16610b48610f48565b73ffffffffffffffffffffffffffffffffffffffff1614610b9e576040517f08c379a0000000000000000000000000000000000000000000000000000000008152600401610b95906132ee565b60405180910390fd5b600960009054906101000a900460ff1615600960006101000a81548160ff021916908315150217905550565b610bd2611752565b73ffffffffffffffffffffffffffffffffffffffff16610bf0610f48565b73ffffffffffffffffffffffffffffffffffffffff1614610c46576040517f08c379a0000000000000000000000000000000000000000000000000000000008152600401610c3d906132ee565b60405180910390fd5b60004790503373ffffffffffffffffffffffffffffffffffffffff166108fc829081150290604051600060405180830381858888f19350505050158015610c91573d6000803e3d6000fd5b5050565b610cb083838360405180602001604052806000815250611185565b505050565b666a94d74f43000081565b610cc8611752565b73ffffffffffffffffffffffffffffffffffffffff16610ce6610f48565b73ffffffffffffffffffffffffffffffffffffffff1614610d3c576040517f08c379a0000000000000000000000000000000000000000000000000000000008152600401610d33906132ee565b60405180910390fd5b80600a9080519060200190610d52929190612377565b5050565b6000806002600084815260200190815260200160002060009054906101000a900473ffffffffffffffffffffffffffffffffffffffff169050600073ffffffffffffffffffffffffffffffffffffffff168173ffffffffffffffffffffffffffffffffffffffff161415610dff576040517f08c379a0000000000000000000000000000000000000000000000000000000008152600401610df69061326e565b60405180910390fd5b80915050919050565b60008073ffffffffffffffffffffffffffffffffffffffff168273ffffffffffffffffffffffffffffffffffffffff161415610e79576040517f08c379a0000000000000000000000000000000000000000000000000000000008152600401610e709061324e565b60405180910390fd5b600360008373ffffffffffffffffffffffffffffffffffffffff1673ffffffffffffffffffffffffffffffffffffffff168152602001908152602001600020549050919050565b610ec8611752565b73ffffffffffffffffffffffffffffffffffffffff16610ee6610f48565b73ffffffffffffffffffffffffffffffffffffffff1614610f3c576040517f08c379a0000000000000000000000000000000000000000000000000000000008152600401610f33906132ee565b60405180910390fd5b610f466000611b81565b565b6000600760009054906101000a900473ffffffffffffffffffffffffffffffffffffffff16905090565b606060018054610f8190613648565b80601f0160208091040260200160405190810160405280929190818152602001828054610fad90613648565b8015610ffa5780601f10610fcf57610100808354040283529160200191610ffa565b820191906000526020600020905b815481529060010190602001808311610fdd57829003601f168201915b5050505050905090565b61100c611752565b73ffffffffffffffffffffffffffffffffffffffff168273ffffffffffffffffffffffffffffffffffffffff16141561107a576040517f08c379a0000000000000000000000000000000000000000000000000000000008152600401611071906131ae565b60405180910390fd5b8060056000611087611752565b73ffffffffffffffffffffffffffffffffffffffff1673ffffffffffffffffffffffffffffffffffffffff16815260200190815260200160002060008473ffffffffffffffffffffffffffffffffffffffff1673ffffffffffffffffffffffffffffffffffffffff16815260200190815260200160002060006101000a81548160ff0219169083151502179055508173ffffffffffffffffffffffffffffffffffffffff16611134611752565b73ffffffffffffffffffffffffffffffffffffffff167f17307eab39ab6107e8899845ad3d59bd9653f200f220920489ca2b5937696c318360405161117991906130b1565b60405180910390a35050565b611196611190611752565b83611813565b6111d5576040517f08c379a00000000000000000000000000000000000000000000000000000000081526004016111cc9061336e565b60405180910390fd5b6111e184848484611c47565b50505050565b60606111f2826116e6565b611231576040517f08c379a0000000000000000000000000000000000000000000000000000000008152600401611228906132ae565b60405180910390fd5b600060066000848152602001908152602001600020805461125190613648565b80601f016020809104026020016040519081016040528092919081815260200182805461127d90613648565b80156112ca5780601f1061129f576101008083540402835291602001916112ca565b820191906000526020600020905b8154815290600101906020018083116112ad57829003601f168201915b5050505050905060006112db611ca3565b90506000815114156112f1578192505050611334565b60008251111561132657808260405160200161130e929190613026565b60405160208183030381529060405292505050611334565b61132f84611d35565b925050505b919050565b6107d081565b6000600560008473ffffffffffffffffffffffffffffffffffffffff1673ffffffffffffffffffffffffffffffffffffffff16815260200190815260200160002060008373ffffffffffffffffffffffffffffffffffffffff1673ffffffffffffffffffffffffffffffffffffffff16815260200190815260200160002060009054906101000a900460ff16905092915050565b600960009054906101000a900460ff1681565b6113ee611752565b73ffffffffffffffffffffffffffffffffffffffff1661140c610f48565b73ffffffffffffffffffffffffffffffffffffffff1614611462576040517f08c379a0000000000000000000000000000000000000000000000000000000008152600401611459906132ee565b60405180910390fd5b600073ffffffffffffffffffffffffffffffffffffffff168173ffffffffffffffffffffffffffffffffffffffff1614156114d2576040517f08c379a00000000000000000000000000000000000000000000000000000000081526004016114c99061314e565b60405180910390fd5b6114db81611b81565b50565b600960009054906101000a900460ff1661152d576040517f08c379a0000000000000000000000000000000000000000000000000000000008152600401611524906130ee565b60405180910390fd5b60008111801561153e575060148111155b61157d576040517f08c379a00000000000000000000000000000000000000000000000000000000081526004016115749061320e565b60405180910390fd5b6107d061159582600854611b4d90919063ffffffff16565b11156115d6576040517f08c379a00000000000000000000000000000000000000000000000000000000081526004016115cd9061312e565b60405180910390fd5b6115f081666a94d74f430000611ddc90919063ffffffff16565b341015611632576040517f08c379a0000000000000000000000000000000000000000000000000000000008152600401611629906131ce565b60405180910390fd5b60005b81811015611678576116536001600854611b4d90919063ffffffff16565b60088190555061166533600854611b63565b80806116709061367a565b915050611635565b5050565b60007f01ffc9a7000000000000000000000000000000000000000000000000000000007bffffffffffffffffffffffffffffffffffffffffffffffffffffffff1916827bffffffffffffffffffffffffffffffffffffffffffffffffffffffff1916149050919050565b60008073ffffffffffffffffffffffffffffffffffffffff166002600084815260200190815260200160002060009054906101000a900473ffffffffffffffffffffffffffffffffffffffff1673ffffffffffffffffffffffffffffffffffffffff1614159050919050565b600033905090565b816004600083815260200190815260200160002060006101000a81548173ffffffffffffffffffffffffffffffffffffffff021916908373ffffffffffffffffffffffffffffffffffffffff160217905550808273ffffffffffffffffffffffffffffffffffffffff166117cd83610d56565b73ffffffffffffffffffffffffffffffffffffffff167f8c5be1e5ebec7d5bd14f71427d1e84f3dd0314c0f7b2291e5b200ac8c7c3b92560405160405180910390a45050565b600061181e826116e6565b61185d576040517f08c379a0000000000000000000000000000000000000000000000000000000008152600401611854906131ee565b60405180910390fd5b600061186883610d56565b90508073ffffffffffffffffffffffffffffffffffffffff168473ffffffffffffffffffffffffffffffffffffffff1614806118d757508373ffffffffffffffffffffffffffffffffffffffff166118bf8461075c565b73ffffffffffffffffffffffffffffffffffffffff16145b806118e857506118e7818561133f565b5b91505092915050565b8273ffffffffffffffffffffffffffffffffffffffff1661191182610d56565b73ffffffffffffffffffffffffffffffffffffffff1614611967576040517f08c379a000000000000000000000000000000000000000000000000000000000815260040161195e9061330e565b60405180910390fd5b600073ffffffffffffffffffffffffffffffffffffffff168273ffffffffffffffffffffffffffffffffffffffff1614156119d7576040517f08c379a00000000000000000000000000000000000000000000000000000000081526004016119ce9061318e565b60405180910390fd5b6119e2838383611df2565b6119ed60008261175a565b6001600360008573ffffffffffffffffffffffffffffffffffffffff1673ffffffffffffffffffffffffffffffffffffffff1681526020019081526020016000206000828254611a3d919061355e565b925050819055506001600360008473ffffffffffffffffffffffffffffffffffffffff1673ffffffffffffffffffffffffffffffffffffffff1681526020019081526020016000206000828254611a94919061347d565b92505081905550816002600083815260200190815260200160002060006101000a81548173ffffffffffffffffffffffffffffffffffffffff021916908373ffffffffffffffffffffffffffffffffffffffff160217905550808273ffffffffffffffffffffffffffffffffffffffff168473ffffffffffffffffffffffffffffffffffffffff167fddf252ad1be2c89b69c2b068fc378daa952ba7f163c4a11628f55a4df523b3ef60405160405180910390a4505050565b60008183611b5b919061347d565b905092915050565b611b7d828260405180602001604052806000815250611df7565b5050565b6000600760009054906101000a900473ffffffffffffffffffffffffffffffffffffffff16905081600760006101000a81548173ffffffffffffffffffffffffffffffffffffffff021916908373ffffffffffffffffffffffffffffffffffffffff1602179055508173ffffffffffffffffffffffffffffffffffffffff168173ffffffffffffffffffffffffffffffffffffffff167f8be0079c531659141344cd1fd0a4f28419497f9722a3daafe3b4186f6b6457e060405160405180910390a35050565b611c528484846118f1565b611c5e84848484611e52565b611c9d576040517f08c379a0000000000000000000000000000000000000000000000000000000008152600401611c949061310e565b60405180910390fd5b50505050565b6060600a8054611cb290613648565b80601f0160208091040260200160405190810160405280929190818152602001828054611cde90613648565b8015611d2b5780601f10611d0057610100808354040283529160200191611d2b565b820191906000526020600020905b815481529060010190602001808311611d0e57829003601f168201915b5050505050905090565b6060611d40826116e6565b611d7f576040517f08c379a0000000000000000000000000000000000000000000000000000000008152600401611d769061332e565b60405180910390fd5b6000611d89611ca3565b90506000815111611da95760405180602001604052806000815250611dd4565b80611db384611fe9565b604051602001611dc4929190613026565b6040516020818303038152906040525b915050919050565b60008183611dea9190613504565b905092915050565b505050565b611e018383612196565b611e0e6000848484611e52565b611e4d576040517f08c379a0000000000000000000000000000000000000000000000000000000008152600401611e449061310e565b60405180910390fd5b505050565b6000611e738473ffffffffffffffffffffffffffffffffffffffff16612364565b15611fdc578373ffffffffffffffffffffffffffffffffffffffff1663150b7a02611e9c611752565b8786866040518563ffffffff1660e01b8152600401611ebe9493929190613065565b602060405180830381600087803b158015611ed857600080fd5b505af1925050508015611f0957506040513d601f19601f82011682018060405250810190611f069190612723565b60015b611f8c573d8060008114611f39576040519150601f19603f3d011682016040523d82523d6000602084013e611f3e565b606091505b50600081511415611f84576040517f08c379a0000000000000000000000000000000000000000000000000000000008152600401611f7b9061310e565b60405180910390fd5b805181602001fd5b63150b7a0260e01b7bffffffffffffffffffffffffffffffffffffffffffffffffffffffff1916817bffffffffffffffffffffffffffffffffffffffffffffffffffffffff191614915050611fe1565b600190505b949350505050565b60606000821415612031576040518060400160405280600181526020017f30000000000000000000000000000000000000000000000000000000000000008152509050612191565b600082905060005b6000821461206357808061204c9061367a565b915050600a8261205c91906134d3565b9150612039565b60008167ffffffffffffffff8111156120a5577f4e487b7100000000000000000000000000000000000000000000000000000000600052604160045260246000fd5b6040519080825280601f01601f1916602001820160405280156120d75781602001600182028036833780820191505090505b5090505b6000851461218a576001826120f0919061355e565b9150600a856120ff91906136c3565b603061210b919061347d565b60f81b818381518110612147577f4e487b7100000000000000000000000000000000000000000000000000000000600052603260045260246000fd5b60200101907effffffffffffffffffffffffffffffffffffffffffffffffffffffffffffff1916908160001a905350600a8561218391906134d3565b94506120db565b8093505050505b919050565b600073ffffffffffffffffffffffffffffffffffffffff168273ffffffffffffffffffffffffffffffffffffffff161415612206576040517f08c379a00000000000000000000000000000000000000000000000000000000081526004016121fd9061328e565b60405180910390fd5b61220f816116e6565b1561224f576040517f08c379a00000000000000000000000000000000000000000000000000000000081526004016122469061316e565b60405180910390fd5b61225b60008383611df2565b6001600360008473ffffffffffffffffffffffffffffffffffffffff1673ffffffffffffffffffffffffffffffffffffffff16815260200190815260200160002060008282546122ab919061347d565b92505081905550816002600083815260200190815260200160002060006101000a81548173ffffffffffffffffffffffffffffffffffffffff021916908373ffffffffffffffffffffffffffffffffffffffff160217905550808273ffffffffffffffffffffffffffffffffffffffff16600073ffffffffffffffffffffffffffffffffffffffff167fddf252ad1be2c89b69c2b068fc378daa952ba7f163c4a11628f55a4df523b3ef60405160405180910390a45050565b600080823b905060008111915050919050565b82805461238390613648565b90600052602060002090601f0160209004810192826123a557600085556123ec565b82601f106123be57805160ff19168380011785556123ec565b828001600101855582156123ec579182015b828111156123eb5782518255916020019190600101906123d0565b5b5090506123f991906123fd565b5090565b5b808211156124165760008160009055506001016123fe565b5090565b600061242d612428846133da565b6133a9565b90508281526020810184848401111561244557600080fd5b612450848285613606565b509392505050565b600061246b6124668461340a565b6133a9565b90508281526020810184848401111561248357600080fd5b61248e848285613606565b509392505050565b6000813590506124a5816137c1565b92915050565b6000813590506124ba816137d8565b92915050565b6000813590506124cf816137ef565b92915050565b6000815190506124e4816137ef565b92915050565b600082601f8301126124fb57600080fd5b813561250b84826020860161241a565b91505092915050565b600082601f83011261252557600080fd5b8135612535848260208601612458565b91505092915050565b60008135905061254d81613806565b92915050565b60006020828403121561256557600080fd5b600061257384828501612496565b91505092915050565b6000806040838503121561258f57600080fd5b600061259d85828601612496565b92505060206125ae85828601612496565b9150509250929050565b6000806000606084860312156125cd57600080fd5b60006125db86828701612496565b93505060206125ec86828701612496565b92505060406125fd8682870161253e565b9150509250925092565b6000806000806080858703121561261d57600080fd5b600061262b87828801612496565b945050602061263c87828801612496565b935050604061264d8782880161253e565b925050606085013567ffffffffffffffff81111561266a57600080fd5b612676878288016124ea565b91505092959194509250565b6000806040838503121561269557600080fd5b60006126a385828601612496565b92505060206126b4858286016124ab565b9150509250929050565b600080604083850312156126d157600080fd5b60006126df85828601612496565b92505060206126f08582860161253e565b9150509250929050565b60006020828403121561270c57600080fd5b600061271a848285016124c0565b91505092915050565b60006020828403121561273557600080fd5b6000612743848285016124d5565b91505092915050565b60006020828403121561275e57600080fd5b600082013567ffffffffffffffff81111561277857600080fd5b61278484828501612514565b91505092915050565b60006020828403121561279f57600080fd5b60006127ad8482850161253e565b91505092915050565b6127bf81613592565b82525050565b6127ce816135a4565b82525050565b60006127df8261343a565b6127e98185613450565b93506127f9818560208601613615565b612802816137b0565b840191505092915050565b600061281882613445565b6128228185613461565b9350612832818560208601613615565b61283b816137b0565b840191505092915050565b600061285182613445565b61285b8185613472565b935061286b818560208601613615565b80840191505092915050565b6000612884602283613461565b91507f53616c65206d7573742062652061637469766520746f206d696e74206120426f60008301527f69640000000000000000000000000000000000000000000000000000000000006020830152604082019050919050565b60006128ea603283613461565b91507f4552433732313a207472616e7366657220746f206e6f6e20455243373231526560008301527f63656976657220696d706c656d656e74657200000000000000000000000000006020830152604082019050919050565b6000612950602983613461565b91507f507572636861736520776f756c6420657863656564206d617820737570706c7960008301527f206f6620426f69647300000000000000000000000000000000000000000000006020830152604082019050919050565b60006129b6602683613461565b91507f4f776e61626c653a206e6577206f776e657220697320746865207a65726f206160008301527f64647265737300000000000000000000000000000000000000000000000000006020830152604082019050919050565b6000612a1c601c83613461565b91507f4552433732313a20746f6b656e20616c7265616479206d696e746564000000006000830152602082019050919050565b6000612a5c602483613461565b91507f4552433732313a207472616e7366657220746f20746865207a65726f2061646460008301527f72657373000000000000000000000000000000000000000000000000000000006020830152604082019050919050565b6000612ac2601983613461565b91507f4552433732313a20617070726f766520746f2063616c6c6572000000000000006000830152602082019050919050565b6000612b02601f83613461565b91507f45746865722076616c75652073656e74206973206e6f7420636f7272656374006000830152602082019050919050565b6000612b42602c83613461565b91507f4552433732313a206f70657261746f7220717565727920666f72206e6f6e657860008301527f697374656e7420746f6b656e00000000000000000000000000000000000000006020830152604082019050919050565b6000612ba8602183613461565b91507f43616e206f6e6c79206d696e7420323020746f6b656e7320617420612074696d60008301527f65000000000000000000000000000000000000000000000000000000000000006020830152604082019050919050565b6000612c0e603883613461565b91507f4552433732313a20617070726f76652063616c6c6572206973206e6f74206f7760008301527f6e6572206e6f7220617070726f76656420666f7220616c6c00000000000000006020830152604082019050919050565b6000612c74602a83613461565b91507f4552433732313a2062616c616e636520717565727920666f7220746865207a6560008301527f726f2061646472657373000000000000000000000000000000000000000000006020830152604082019050919050565b6000612cda602983613461565b91507f4552433732313a206f776e657220717565727920666f72206e6f6e657869737460008301527f656e7420746f6b656e00000000000000000000000000000000000000000000006020830152604082019050919050565b6000612d40602083613461565b91507f4552433732313a206d696e7420746f20746865207a65726f20616464726573736000830152602082019050919050565b6000612d80603183613461565b91507f45524337323155524953746f726167653a2055524920717565727920666f722060008301527f6e6f6e6578697374656e7420746f6b656e0000000000000000000000000000006020830152604082019050919050565b6000612de6602c83613461565b91507f4552433732313a20617070726f76656420717565727920666f72206e6f6e657860008301527f697374656e7420746f6b656e00000000000000000000000000000000000000006020830152604082019050919050565b6000612e4c602083613461565b91507f4f776e61626c653a2063616c6c6572206973206e6f7420746865206f776e65726000830152602082019050919050565b6000612e8c602983613461565b91507f4552433732313a207472616e73666572206f6620746f6b656e2074686174206960008301527f73206e6f74206f776e00000000000000000000000000000000000000000000006020830152604082019050919050565b6000612ef2602f83613461565b91507f4552433732314d657461646174613a2055524920717565727920666f72206e6f60008301527f6e6578697374656e7420746f6b656e00000000000000000000000000000000006020830152604082019050919050565b6000612f58602183613461565b91507f4552433732313a20617070726f76616c20746f2063757272656e74206f776e6560008301527f72000000000000000000000000000000000000000000000000000000000000006020830152604082019050919050565b6000612fbe603183613461565b91507f4552433732313a207472616e736665722063616c6c6572206973206e6f74206f60008301527f776e6572206e6f7220617070726f7665640000000000000000000000000000006020830152604082019050919050565b613020816135fc565b82525050565b60006130328285612846565b915061303e8284612846565b91508190509392505050565b600060208201905061305f60008301846127b6565b92915050565b600060808201905061307a60008301876127b6565b61308760208301866127b6565b6130946040830185613017565b81810360608301526130a681846127d4565b905095945050505050565b60006020820190506130c660008301846127c5565b92915050565b600060208201905081810360008301526130e6818461280d565b905092915050565b6000602082019050818103600083015261310781612877565b9050919050565b60006020820190508181036000830152613127816128dd565b9050919050565b6000602082019050818103600083015261314781612943565b9050919050565b60006020820190508181036000830152613167816129a9565b9050919050565b6000602082019050818103600083015261318781612a0f565b9050919050565b600060208201905081810360008301526131a781612a4f565b9050919050565b600060208201905081810360008301526131c781612ab5565b9050919050565b600060208201905081810360008301526131e781612af5565b9050919050565b6000602082019050818103600083015261320781612b35565b9050919050565b6000602082019050818103600083015261322781612b9b565b9050919050565b6000602082019050818103600083015261324781612c01565b9050919050565b6000602082019050818103600083015261326781612c67565b9050919050565b6000602082019050818103600083015261328781612ccd565b9050919050565b600060208201905081810360008301526132a781612d33565b9050919050565b600060208201905081810360008301526132c781612d73565b9050919050565b600060208201905081810360008301526132e781612dd9565b9050919050565b6000602082019050818103600083015261330781612e3f565b9050919050565b6000602082019050818103600083015261332781612e7f565b9050919050565b6000602082019050818103600083015261334781612ee5565b9050919050565b6000602082019050818103600083015261336781612f4b565b9050919050565b6000602082019050818103600083015261338781612fb1565b9050919050565b60006020820190506133a36000830184613017565b92915050565b6000604051905081810181811067ffffffffffffffff821117156133d0576133cf613781565b5b8060405250919050565b600067ffffffffffffffff8211156133f5576133f4613781565b5b601f19601f8301169050602081019050919050565b600067ffffffffffffffff82111561342557613424613781565b5b601f19601f8301169050602081019050919050565b600081519050919050565b600081519050919050565b600082825260208201905092915050565b600082825260208201905092915050565b600081905092915050565b6000613488826135fc565b9150613493836135fc565b9250827fffffffffffffffffffffffffffffffffffffffffffffffffffffffffffffffff038211156134c8576134c76136f4565b5b828201905092915050565b60006134de826135fc565b91506134e9836135fc565b9250826134f9576134f8613723565b5b828204905092915050565b600061350f826135fc565b915061351a836135fc565b9250817fffffffffffffffffffffffffffffffffffffffffffffffffffffffffffffffff0483118215151615613553576135526136f4565b5b828202905092915050565b6000613569826135fc565b9150613574836135fc565b925082821015613587576135866136f4565b5b828203905092915050565b600061359d826135dc565b9050919050565b60008115159050919050565b60007fffffffff0000000000000000000000000000000000000000000000000000000082169050919050565b600073ffffffffffffffffffffffffffffffffffffffff82169050919050565b6000819050919050565b82818337600083830152505050565b60005b83811015613633578082015181840152602081019050613618565b83811115613642576000848401525b50505050565b6000600282049050600182168061366057607f821691505b6020821081141561367457613673613752565b5b50919050565b6000613685826135fc565b91507fffffffffffffffffffffffffffffffffffffffffffffffffffffffffffffffff8214156136b8576136b76136f4565b5b600182019050919050565b60006136ce826135fc565b91506136d9836135fc565b9250826136e9576136e8613723565b5b828206905092915050565b7f4e487b7100000000000000000000000000000000000000000000000000000000600052601160045260246000fd5b7f4e487b7100000000000000000000000000000000000000000000000000000000600052601260045260246000fd5b7f4e487b7100000000000000000000000000000000000000000000000000000000600052602260045260246000fd5b7f4e487b7100000000000000000000000000000000000000000000000000000000600052604160045260246000fd5b6000601f19601f8301169050919050565b6137ca81613592565b81146137d557600080fd5b50565b6137e1816135a4565b81146137ec57600080fd5b50565b6137f8816135b0565b811461380357600080fd5b50565b61380f816135fc565b811461381a57600080fd5b5056fea2646970667358221220569f68cdaddace1ffdc434ab69ec5b3ca1836e7905c212d6b11fae5570881c6c64736f6c63430008000033",
  "linkReferences": {},
  "deployedLinkReferences": {}
}