{
  "_format": "hh-sol-artifact-1",
  "contractName": "Boids",
  "sourceName": "contracts/Boids.sol",
  "abi": [
    {
      "inputs": [],
      "stateMutability": "nonpayable",
      "type": "constructor"
    },
    {
      "anonymous": false,
      "inputs": [
        {
          "indexed": true,
          "internalType": "address",
          "name": "owner",
          "type": "address"
        },
        {
          "indexed": true,
          "internalType": "address",
          "name": "approved",
          "type": "address"
        },
        {
          "indexed": true,
          "internalType": "uint256",
          "name": "tokenId",
          "type": "uint256"
        }
      ],
      "name": "Approval",
      "type": "event"
    },
    {
      "anonymous": false,
      "inputs": [
        {
          "indexed": true,
          "internalType": "address",
          "name": "owner",
          "type": "address"
        },
        {
          "indexed": true,
          "internalType": "address",
          "name": "operator",
          "type": "address"
        },
        {
          "indexed": false,
          "internalType": "bool",
          "name": "approved",
          "type": "bool"
        }
      ],
      "name": "ApprovalForAll",
      "type": "event"
    },
    {
      "anonymous": false,
      "inputs": [
        {
          "indexed": true,
          "internalType": "address",
          "name": "previousOwner",
          "type": "address"
        },
        {
          "indexed": true,
          "internalType": "address",
          "name": "newOwner",
          "type": "address"
        }
      ],
      "name": "OwnershipTransferred",
      "type": "event"
    },
    {
      "anonymous": false,
      "inputs": [
        {
          "indexed": true,
          "internalType": "address",
          "name": "from",
          "type": "address"
        },
        {
          "indexed": true,
          "internalType": "address",
          "name": "to",
          "type": "address"
        },
        {
          "indexed": true,
          "internalType": "uint256",
          "name": "tokenId",
          "type": "uint256"
        }
      ],
      "name": "Transfer",
      "type": "event"
    },
    {
      "inputs": [],
      "name": "BOID_IFPS",
      "outputs": [
        {
          "internalType": "string",
          "name": "",
          "type": "string"
        }
      ],
      "stateMutability": "view",
      "type": "function"
    },
    {
      "inputs": [],
      "name": "MAX_BOIDS",
      "outputs": [
        {
          "internalType": "uint256",
          "name": "",
          "type": "uint256"
        }
      ],
      "stateMutability": "view",
      "type": "function"
    },
    {
      "inputs": [
        {
          "internalType": "address",
          "name": "to",
          "type": "address"
        },
        {
          "internalType": "uint256",
          "name": "tokenId",
          "type": "uint256"
        }
      ],
      "name": "approve",
      "outputs": [],
      "stateMutability": "nonpayable",
      "type": "function"
    },
    {
      "inputs": [
        {
          "internalType": "address",
          "name": "owner",
          "type": "address"
        }
      ],
      "name": "balanceOf",
      "outputs": [
        {
          "internalType": "uint256",
          "name": "",
          "type": "uint256"
        }
      ],
      "stateMutability": "view",
      "type": "function"
    },
    {
      "inputs": [],
      "name": "boidPrice",
      "outputs": [
        {
          "internalType": "uint256",
          "name": "",
          "type": "uint256"
        }
      ],
      "stateMutability": "view",
      "type": "function"
    },
    {
      "inputs": [],
      "name": "flipSaleState",
      "outputs": [],
      "stateMutability": "nonpayable",
      "type": "function"
    },
    {
      "inputs": [
        {
          "internalType": "uint256",
          "name": "tokenId",
          "type": "uint256"
        }
      ],
      "name": "getApproved",
      "outputs": [
        {
          "internalType": "address",
          "name": "",
          "type": "address"
        }
      ],
      "stateMutability": "view",
      "type": "function"
    },
    {
      "inputs": [
        {
          "internalType": "address",
          "name": "owner",
          "type": "address"
        },
        {
          "internalType": "address",
          "name": "operator",
          "type": "address"
        }
      ],
      "name": "isApprovedForAll",
      "outputs": [
        {
          "internalType": "bool",
          "name": "",
          "type": "bool"
        }
      ],
      "stateMutability": "view",
      "type": "function"
    },
    {
      "inputs": [],
      "name": "maxBoidPurchase",
      "outputs": [
        {
          "internalType": "uint256",
          "name": "",
          "type": "uint256"
        }
      ],
      "stateMutability": "view",
      "type": "function"
    },
    {
      "inputs": [
        {
          "internalType": "uint256",
          "name": "numberOfTokens",
          "type": "uint256"
        }
      ],
      "name": "mintBoid",
      "outputs": [],
      "stateMutability": "payable",
      "type": "function"
    },
    {
      "inputs": [],
      "name": "name",
      "outputs": [
        {
          "internalType": "string",
          "name": "",
          "type": "string"
        }
      ],
      "stateMutability": "view",
      "type": "function"
    },
    {
      "inputs": [],
      "name": "owner",
      "outputs": [
        {
          "internalType": "address",
          "name": "",
          "type": "address"
        }
      ],
      "stateMutability": "view",
      "type": "function"
    },
    {
      "inputs": [
        {
          "internalType": "uint256",
          "name": "tokenId",
          "type": "uint256"
        }
      ],
      "name": "ownerOf",
      "outputs": [
        {
          "internalType": "address",
          "name": "",
          "type": "address"
        }
      ],
      "stateMutability": "view",
      "type": "function"
    },
    {
      "inputs": [],
      "name": "renounceOwnership",
      "outputs": [],
      "stateMutability": "nonpayable",
      "type": "function"
    },
    {
      "inputs": [
        {
          "internalType": "address",
          "name": "from",
          "type": "address"
        },
        {
          "internalType": "address",
          "name": "to",
          "type": "address"
        },
        {
          "internalType": "uint256",
          "name": "tokenId",
          "type": "uint256"
        }
      ],
      "name": "safeTransferFrom",
      "outputs": [],
      "stateMutability": "nonpayable",
      "type": "function"
    },
    {
      "inputs": [
        {
          "internalType": "address",
          "name": "from",
          "type": "address"
        },
        {
          "internalType": "address",
          "name": "to",
          "type": "address"
        },
        {
          "internalType": "uint256",
          "name": "tokenId",
          "type": "uint256"
        },
        {
          "internalType": "bytes",
          "name": "_data",
          "type": "bytes"
        }
      ],
      "name": "safeTransferFrom",
      "outputs": [],
      "stateMutability": "nonpayable",
      "type": "function"
    },
    {
      "inputs": [],
      "name": "saleIsActive",
      "outputs": [
        {
          "internalType": "bool",
          "name": "",
          "type": "bool"
        }
      ],
      "stateMutability": "view",
      "type": "function"
    },
    {
      "inputs": [
        {
          "internalType": "address",
          "name": "operator",
          "type": "address"
        },
        {
          "internalType": "bool",
          "name": "approved",
          "type": "bool"
        }
      ],
      "name": "setApprovalForAll",
      "outputs": [],
      "stateMutability": "nonpayable",
      "type": "function"
    },
    {
      "inputs": [
        {
          "internalType": "string",
          "name": "IFPShash",
          "type": "string"
        }
      ],
      "name": "setIFPShash",
      "outputs": [],
      "stateMutability": "nonpayable",
      "type": "function"
    },
    {
      "inputs": [
        {
          "internalType": "uint256",
          "name": "tokenId",
          "type": "uint256"
        },
        {
          "internalType": "string",
          "name": "_tokenURI",
          "type": "string"
        }
      ],
      "name": "setTokenUri",
      "outputs": [],
      "stateMutability": "nonpayable",
      "type": "function"
    },
    {
      "inputs": [
        {
          "internalType": "bytes4",
          "name": "interfaceId",
          "type": "bytes4"
        }
      ],
      "name": "supportsInterface",
      "outputs": [
        {
          "internalType": "bool",
          "name": "",
          "type": "bool"
        }
      ],
      "stateMutability": "view",
      "type": "function"
    },
    {
      "inputs": [],
      "name": "symbol",
      "outputs": [
        {
          "internalType": "string",
          "name": "",
          "type": "string"
        }
      ],
      "stateMutability": "view",
      "type": "function"
    },
    {
      "inputs": [
        {
          "internalType": "uint256",
          "name": "tokenId",
          "type": "uint256"
        }
      ],
      "name": "tokenURI",
      "outputs": [
        {
          "internalType": "string",
          "name": "",
          "type": "string"
        }
      ],
      "stateMutability": "view",
      "type": "function"
    },
    {
      "inputs": [],
      "name": "totalSupply",
      "outputs": [
        {
          "internalType": "uint256",
          "name": "",
          "type": "uint256"
        }
      ],
      "stateMutability": "view",
      "type": "function"
    },
    {
      "inputs": [
        {
          "internalType": "address",
          "name": "from",
          "type": "address"
        },
        {
          "internalType": "address",
          "name": "to",
          "type": "address"
        },
        {
          "internalType": "uint256",
          "name": "tokenId",
          "type": "uint256"
        }
      ],
      "name": "transferFrom",
      "outputs": [],
      "stateMutability": "nonpayable",
      "type": "function"
    },
    {
      "inputs": [
        {
          "internalType": "address",
          "name": "newOwner",
          "type": "address"
        }
      ],
      "name": "transferOwnership",
      "outputs": [],
      "stateMutability": "nonpayable",
      "type": "function"
    },
    {
      "inputs": [],
      "name": "withdraw",
      "outputs": [],
      "stateMutability": "nonpayable",
      "type": "function"
    }
  ],
  "bytecode": "0x608060405260405180602001604052806000815250600890805190602001906200002b929190620001ee565b5060006009556000600a60006101000a81548160ff0219169083151502179055503480156200005957600080fd5b506040518060400160405280600481526020017f426f6964000000000000000000000000000000000000000000000000000000008152506040518060400160405280600481526020017f424f4944000000000000000000000000000000000000000000000000000000008152508160009080519060200190620000de929190620001ee565b508060019080519060200190620000f7929190620001ee565b5050506200011a6200010e6200012060201b60201c565b6200012860201b60201c565b62000303565b600033905090565b6000600760009054906101000a900473ffffffffffffffffffffffffffffffffffffffff16905081600760006101000a81548173ffffffffffffffffffffffffffffffffffffffff021916908373ffffffffffffffffffffffffffffffffffffffff1602179055508173ffffffffffffffffffffffffffffffffffffffff168173ffffffffffffffffffffffffffffffffffffffff167f8be0079c531659141344cd1fd0a4f28419497f9722a3daafe3b4186f6b6457e060405160405180910390a35050565b828054620001fc906200029e565b90600052602060002090601f0160209004810192826200022057600085556200026c565b82601f106200023b57805160ff19168380011785556200026c565b828001600101855582156200026c579182015b828111156200026b5782518255916020019190600101906200024e565b5b5090506200027b91906200027f565b5090565b5b808211156200029a57600081600090555060010162000280565b5090565b60006002820490506001821680620002b757607f821691505b60208210811415620002ce57620002cd620002d4565b5b50919050565b7f4e487b7100000000000000000000000000000000000000000000000000000000600052602260045260246000fd5b61393380620003136000396000f3fe60806040526004361061019c5760003560e01c80636352211e116100ec578063c26c8a1c1161008a578063e985e9c511610064578063e985e9c51461058e578063eb8d2444146105cb578063f2fde38b146105f6578063fdae23c41461061f5761019c565b8063c26c8a1c146104fd578063c87b56dd14610526578063e95076be146105635761019c565b80638da5cb5b116100c65780638da5cb5b1461045557806395d89b4114610480578063a22cb465146104ab578063b88d4fde146104d45761019c565b80636352211e146103c457806370a0823114610401578063715018a61461043e5761019c565b806323b872dd116101595780633ccfd60b116101335780633ccfd60b1461033057806342842e0e14610347578063529643891461037057806357f7789e1461039b5761019c565b806323b872dd146102c557806334918dfd146102ee5780633b31962a146103055761019c565b806301ffc9a7146101a157806306fdde03146101de578063081812fc14610209578063095ea7b3146102465780630d27d6fa1461026f57806318160ddd1461029a575b600080fd5b3480156101ad57600080fd5b506101c860048036038101906101c3919061267a565b61063b565b6040516101d59190613151565b60405180910390f35b3480156101ea57600080fd5b506101f361071d565b604051610200919061316c565b60405180910390f35b34801561021557600080fd5b50610230600480360381019061022b919061270d565b6107af565b60405161023d91906130ea565b60405180910390f35b34801561025257600080fd5b5061026d6004803603810190610268919061263e565b610834565b005b34801561027b57600080fd5b5061028461094c565b604051610291919061346e565b60405180910390f35b3480156102a657600080fd5b506102af610951565b6040516102bc919061346e565b60405180910390f35b3480156102d157600080fd5b506102ec60048036038101906102e79190612538565b610957565b005b3480156102fa57600080fd5b506103036109b7565b005b34801561031157600080fd5b5061031a610a5f565b604051610327919061316c565b60405180910390f35b34801561033c57600080fd5b50610345610aed565b005b34801561035357600080fd5b5061036e60048036038101906103699190612538565b610bb8565b005b34801561037c57600080fd5b50610385610bd8565b604051610392919061346e565b60405180910390f35b3480156103a757600080fd5b506103c260048036038101906103bd9190612736565b610be3565b005b3480156103d057600080fd5b506103eb60048036038101906103e6919061270d565b610c3a565b6040516103f891906130ea565b60405180910390f35b34801561040d57600080fd5b50610428600480360381019061042391906124d3565b610cec565b604051610435919061346e565b60405180910390f35b34801561044a57600080fd5b50610453610da4565b005b34801561046157600080fd5b5061046a610e2c565b60405161047791906130ea565b60405180910390f35b34801561048c57600080fd5b50610495610e56565b6040516104a2919061316c565b60405180910390f35b3480156104b757600080fd5b506104d260048036038101906104cd9190612602565b610ee8565b005b3480156104e057600080fd5b506104fb60048036038101906104f69190612587565b611069565b005b34801561050957600080fd5b50610524600480360381019061051f91906126cc565b6110cb565b005b34801561053257600080fd5b5061054d6004803603810190610548919061270d565b611161565b60405161055a919061316c565b60405180910390f35b34801561056f57600080fd5b506105786112b3565b604051610585919061346e565b60405180910390f35b34801561059a57600080fd5b506105b560048036038101906105b091906124fc565b6112b9565b6040516105c29190613151565b60405180910390f35b3480156105d757600080fd5b506105e061134d565b6040516105ed9190613151565b60405180910390f35b34801561060257600080fd5b5061061d600480360381019061061891906124d3565b611360565b005b6106396004803603810190610634919061270d565b611458565b005b60007f80ac58cd000000000000000000000000000000000000000000000000000000007bffffffffffffffffffffffffffffffffffffffffffffffffffffffff1916827bffffffffffffffffffffffffffffffffffffffffffffffffffffffff1916148061070657507f5b5e139f000000000000000000000000000000000000000000000000000000007bffffffffffffffffffffffffffffffffffffffffffffffffffffffff1916827bffffffffffffffffffffffffffffffffffffffffffffffffffffffff1916145b80610716575061071582611603565b5b9050919050565b60606000805461072c90613728565b80601f016020809104026020016040519081016040528092919081815260200182805461075890613728565b80156107a55780601f1061077a576101008083540402835291602001916107a5565b820191906000526020600020905b81548152906001019060200180831161078857829003601f168201915b5050505050905090565b60006107ba8261166d565b6107f9576040517f08c379a00000000000000000000000000000000000000000000000000000000081526004016107f0906133ae565b60405180910390fd5b6004600083815260200190815260200160002060009054906101000a900473ffffffffffffffffffffffffffffffffffffffff169050919050565b600061083f82610c3a565b90508073ffffffffffffffffffffffffffffffffffffffff168373ffffffffffffffffffffffffffffffffffffffff1614156108b0576040517f08c379a00000000000000000000000000000000000000000000000000000000081526004016108a79061342e565b60405180910390fd5b8073ffffffffffffffffffffffffffffffffffffffff166108cf6116d9565b73ffffffffffffffffffffffffffffffffffffffff1614806108fe57506108fd816108f86116d9565b6112b9565b5b61093d576040517f08c379a0000000000000000000000000000000000000000000000000000000008152600401610934906132ee565b60405180910390fd5b61094783836116e1565b505050565b601481565b60095481565b6109686109626116d9565b8261179a565b6109a7576040517f08c379a000000000000000000000000000000000000000000000000000000000815260040161099e9061344e565b60405180910390fd5b6109b2838383611878565b505050565b6109bf6116d9565b73ffffffffffffffffffffffffffffffffffffffff166109dd610e2c565b73ffffffffffffffffffffffffffffffffffffffff1614610a33576040517f08c379a0000000000000000000000000000000000000000000000000000000008152600401610a2a906133ce565b60405180910390fd5b600a60009054906101000a900460ff1615600a60006101000a81548160ff021916908315150217905550565b60088054610a6c90613728565b80601f0160208091040260200160405190810160405280929190818152602001828054610a9890613728565b8015610ae55780601f10610aba57610100808354040283529160200191610ae5565b820191906000526020600020905b815481529060010190602001808311610ac857829003601f168201915b505050505081565b610af56116d9565b73ffffffffffffffffffffffffffffffffffffffff16610b13610e2c565b73ffffffffffffffffffffffffffffffffffffffff1614610b69576040517f08c379a0000000000000000000000000000000000000000000000000000000008152600401610b60906133ce565b60405180910390fd5b60004790503373ffffffffffffffffffffffffffffffffffffffff166108fc829081150290604051600060405180830381858888f19350505050158015610bb4573d6000803e3d6000fd5b5050565b610bd383838360405180602001604052806000815250611069565b505050565b6658d15e1762800081565b610bed338361179a565b610c2c576040517f08c379a0000000000000000000000000000000000000000000000000000000008152600401610c239061318e565b60405180910390fd5b610c368282611ad4565b5050565b6000806002600084815260200190815260200160002060009054906101000a900473ffffffffffffffffffffffffffffffffffffffff169050600073ffffffffffffffffffffffffffffffffffffffff168173ffffffffffffffffffffffffffffffffffffffff161415610ce3576040517f08c379a0000000000000000000000000000000000000000000000000000000008152600401610cda9061332e565b60405180910390fd5b80915050919050565b60008073ffffffffffffffffffffffffffffffffffffffff168273ffffffffffffffffffffffffffffffffffffffff161415610d5d576040517f08c379a0000000000000000000000000000000000000000000000000000000008152600401610d549061330e565b60405180910390fd5b600360008373ffffffffffffffffffffffffffffffffffffffff1673ffffffffffffffffffffffffffffffffffffffff168152602001908152602001600020549050919050565b610dac6116d9565b73ffffffffffffffffffffffffffffffffffffffff16610dca610e2c565b73ffffffffffffffffffffffffffffffffffffffff1614610e20576040517f08c379a0000000000000000000000000000000000000000000000000000000008152600401610e17906133ce565b60405180910390fd5b610e2a6000611b48565b565b6000600760009054906101000a900473ffffffffffffffffffffffffffffffffffffffff16905090565b606060018054610e6590613728565b80601f0160208091040260200160405190810160405280929190818152602001828054610e9190613728565b8015610ede5780601f10610eb357610100808354040283529160200191610ede565b820191906000526020600020905b815481529060010190602001808311610ec157829003601f168201915b5050505050905090565b610ef06116d9565b73ffffffffffffffffffffffffffffffffffffffff168273ffffffffffffffffffffffffffffffffffffffff161415610f5e576040517f08c379a0000000000000000000000000000000000000000000000000000000008152600401610f559061326e565b60405180910390fd5b8060056000610f6b6116d9565b73ffffffffffffffffffffffffffffffffffffffff1673ffffffffffffffffffffffffffffffffffffffff16815260200190815260200160002060008473ffffffffffffffffffffffffffffffffffffffff1673ffffffffffffffffffffffffffffffffffffffff16815260200190815260200160002060006101000a81548160ff0219169083151502179055508173ffffffffffffffffffffffffffffffffffffffff166110186116d9565b73ffffffffffffffffffffffffffffffffffffffff167f17307eab39ab6107e8899845ad3d59bd9653f200f220920489ca2b5937696c318360405161105d9190613151565b60405180910390a35050565b61107a6110746116d9565b8361179a565b6110b9576040517f08c379a00000000000000000000000000000000000000000000000000000000081526004016110b09061344e565b60405180910390fd5b6110c584848484611c0e565b50505050565b6110d36116d9565b73ffffffffffffffffffffffffffffffffffffffff166110f1610e2c565b73ffffffffffffffffffffffffffffffffffffffff1614611147576040517f08c379a000000000000000000000000000000000000000000000000000000000815260040161113e906133ce565b60405180910390fd5b806008908051906020019061115d9291906122f7565b5050565b606061116c8261166d565b6111ab576040517f08c379a00000000000000000000000000000000000000000000000000000000081526004016111a29061338e565b60405180910390fd5b60006006600084815260200190815260200160002080546111cb90613728565b80601f01602080910402602001604051908101604052809291908181526020018280546111f790613728565b80156112445780601f1061121957610100808354040283529160200191611244565b820191906000526020600020905b81548152906001019060200180831161122757829003601f168201915b505050505090506000611255611c6a565b905060008151141561126b5781925050506112ae565b6000825111156112a05780826040516020016112889291906130c6565b604051602081830303815290604052925050506112ae565b6112a984611c81565b925050505b919050565b6105dc81565b6000600560008473ffffffffffffffffffffffffffffffffffffffff1673ffffffffffffffffffffffffffffffffffffffff16815260200190815260200160002060008373ffffffffffffffffffffffffffffffffffffffff1673ffffffffffffffffffffffffffffffffffffffff16815260200190815260200160002060009054906101000a900460ff16905092915050565b600a60009054906101000a900460ff1681565b6113686116d9565b73ffffffffffffffffffffffffffffffffffffffff16611386610e2c565b73ffffffffffffffffffffffffffffffffffffffff16146113dc576040517f08c379a00000000000000000000000000000000000000000000000000000000081526004016113d3906133ce565b60405180910390fd5b600073ffffffffffffffffffffffffffffffffffffffff168173ffffffffffffffffffffffffffffffffffffffff16141561144c576040517f08c379a00000000000000000000000000000000000000000000000000000000081526004016114439061320e565b60405180910390fd5b61145581611b48565b50565b600a60009054906101000a900460ff166114a7576040517f08c379a000000000000000000000000000000000000000000000000000000000815260040161149e906131ae565b60405180910390fd5b6000811180156114b8575060148111155b6114f7576040517f08c379a00000000000000000000000000000000000000000000000000000000081526004016114ee906132ce565b60405180910390fd5b6105dc61150f82600954611d2890919063ffffffff16565b1115611550576040517f08c379a0000000000000000000000000000000000000000000000000000000008152600401611547906131ee565b60405180910390fd5b61156a816658d15e17628000611d3e90919063ffffffff16565b3410156115ac576040517f08c379a00000000000000000000000000000000000000000000000000000000081526004016115a39061328e565b60405180910390fd5b60005b818110156115ff576115cd6001600954611d2890919063ffffffff16565b6009819055506105dc60095410156115ec576115eb33600954611d54565b5b80806115f79061375a565b9150506115af565b5050565b60007f01ffc9a7000000000000000000000000000000000000000000000000000000007bffffffffffffffffffffffffffffffffffffffffffffffffffffffff1916827bffffffffffffffffffffffffffffffffffffffffffffffffffffffff1916149050919050565b60008073ffffffffffffffffffffffffffffffffffffffff166002600084815260200190815260200160002060009054906101000a900473ffffffffffffffffffffffffffffffffffffffff1673ffffffffffffffffffffffffffffffffffffffff1614159050919050565b600033905090565b816004600083815260200190815260200160002060006101000a81548173ffffffffffffffffffffffffffffffffffffffff021916908373ffffffffffffffffffffffffffffffffffffffff160217905550808273ffffffffffffffffffffffffffffffffffffffff1661175483610c3a565b73ffffffffffffffffffffffffffffffffffffffff167f8c5be1e5ebec7d5bd14f71427d1e84f3dd0314c0f7b2291e5b200ac8c7c3b92560405160405180910390a45050565b60006117a58261166d565b6117e4576040517f08c379a00000000000000000000000000000000000000000000000000000000081526004016117db906132ae565b60405180910390fd5b60006117ef83610c3a565b90508073ffffffffffffffffffffffffffffffffffffffff168473ffffffffffffffffffffffffffffffffffffffff16148061185e57508373ffffffffffffffffffffffffffffffffffffffff16611846846107af565b73ffffffffffffffffffffffffffffffffffffffff16145b8061186f575061186e81856112b9565b5b91505092915050565b8273ffffffffffffffffffffffffffffffffffffffff1661189882610c3a565b73ffffffffffffffffffffffffffffffffffffffff16146118ee576040517f08c379a00000000000000000000000000000000000000000000000000000000081526004016118e5906133ee565b60405180910390fd5b600073ffffffffffffffffffffffffffffffffffffffff168273ffffffffffffffffffffffffffffffffffffffff16141561195e576040517f08c379a00000000000000000000000000000000000000000000000000000000081526004016119559061324e565b60405180910390fd5b611969838383611d72565b6119746000826116e1565b6001600360008573ffffffffffffffffffffffffffffffffffffffff1673ffffffffffffffffffffffffffffffffffffffff16815260200190815260200160002060008282546119c4919061363e565b925050819055506001600360008473ffffffffffffffffffffffffffffffffffffffff1673ffffffffffffffffffffffffffffffffffffffff1681526020019081526020016000206000828254611a1b919061355d565b92505081905550816002600083815260200190815260200160002060006101000a81548173ffffffffffffffffffffffffffffffffffffffff021916908373ffffffffffffffffffffffffffffffffffffffff160217905550808273ffffffffffffffffffffffffffffffffffffffff168473ffffffffffffffffffffffffffffffffffffffff167fddf252ad1be2c89b69c2b068fc378daa952ba7f163c4a11628f55a4df523b3ef60405160405180910390a4505050565b611add8261166d565b611b1c576040517f08c379a0000000000000000000000000000000000000000000000000000000008152600401611b139061334e565b60405180910390fd5b80600660008481526020019081526020016000209080519060200190611b439291906122f7565b505050565b6000600760009054906101000a900473ffffffffffffffffffffffffffffffffffffffff16905081600760006101000a81548173ffffffffffffffffffffffffffffffffffffffff021916908373ffffffffffffffffffffffffffffffffffffffff1602179055508173ffffffffffffffffffffffffffffffffffffffff168173ffffffffffffffffffffffffffffffffffffffff167f8be0079c531659141344cd1fd0a4f28419497f9722a3daafe3b4186f6b6457e060405160405180910390a35050565b611c19848484611878565b611c2584848484611d77565b611c64576040517f08c379a0000000000000000000000000000000000000000000000000000000008152600401611c5b906131ce565b60405180910390fd5b50505050565b606060405180602001604052806000815250905090565b6060611c8c8261166d565b611ccb576040517f08c379a0000000000000000000000000000000000000000000000000000000008152600401611cc29061340e565b60405180910390fd5b6000611cd5611c6a565b90506000815111611cf55760405180602001604052806000815250611d20565b80611cff84611f0e565b604051602001611d109291906130c6565b6040516020818303038152906040525b915050919050565b60008183611d36919061355d565b905092915050565b60008183611d4c91906135e4565b905092915050565b611d6e8282604051806020016040528060008152506120bb565b5050565b505050565b6000611d988473ffffffffffffffffffffffffffffffffffffffff16612116565b15611f01578373ffffffffffffffffffffffffffffffffffffffff1663150b7a02611dc16116d9565b8786866040518563ffffffff1660e01b8152600401611de39493929190613105565b602060405180830381600087803b158015611dfd57600080fd5b505af1925050508015611e2e57506040513d601f19601f82011682018060405250810190611e2b91906126a3565b60015b611eb1573d8060008114611e5e576040519150601f19603f3d011682016040523d82523d6000602084013e611e63565b606091505b50600081511415611ea9576040517f08c379a0000000000000000000000000000000000000000000000000000000008152600401611ea0906131ce565b60405180910390fd5b805181602001fd5b63150b7a0260e01b7bffffffffffffffffffffffffffffffffffffffffffffffffffffffff1916817bffffffffffffffffffffffffffffffffffffffffffffffffffffffff191614915050611f06565b600190505b949350505050565b60606000821415611f56576040518060400160405280600181526020017f300000000000000000000000000000000000000000000000000000000000000081525090506120b6565b600082905060005b60008214611f88578080611f719061375a565b915050600a82611f8191906135b3565b9150611f5e565b60008167ffffffffffffffff811115611fca577f4e487b7100000000000000000000000000000000000000000000000000000000600052604160045260246000fd5b6040519080825280601f01601f191660200182016040528015611ffc5781602001600182028036833780820191505090505b5090505b600085146120af57600182612015919061363e565b9150600a8561202491906137a3565b6030612030919061355d565b60f81b81838151811061206c577f4e487b7100000000000000000000000000000000000000000000000000000000600052603260045260246000fd5b60200101907effffffffffffffffffffffffffffffffffffffffffffffffffffffffffffff1916908160001a905350600a856120a891906135b3565b9450612000565b8093505050505b919050565b6120c58383612129565b6120d26000848484611d77565b612111576040517f08c379a0000000000000000000000000000000000000000000000000000000008152600401612108906131ce565b60405180910390fd5b505050565b600080823b905060008111915050919050565b600073ffffffffffffffffffffffffffffffffffffffff168273ffffffffffffffffffffffffffffffffffffffff161415612199576040517f08c379a00000000000000000000000000000000000000000000000000000000081526004016121909061336e565b60405180910390fd5b6121a28161166d565b156121e2576040517f08c379a00000000000000000000000000000000000000000000000000000000081526004016121d99061322e565b60405180910390fd5b6121ee60008383611d72565b6001600360008473ffffffffffffffffffffffffffffffffffffffff1673ffffffffffffffffffffffffffffffffffffffff168152602001908152602001600020600082825461223e919061355d565b92505081905550816002600083815260200190815260200160002060006101000a81548173ffffffffffffffffffffffffffffffffffffffff021916908373ffffffffffffffffffffffffffffffffffffffff160217905550808273ffffffffffffffffffffffffffffffffffffffff16600073ffffffffffffffffffffffffffffffffffffffff167fddf252ad1be2c89b69c2b068fc378daa952ba7f163c4a11628f55a4df523b3ef60405160405180910390a45050565b82805461230390613728565b90600052602060002090601f016020900481019282612325576000855561236c565b82601f1061233e57805160ff191683800117855561236c565b8280016001018555821561236c579182015b8281111561236b578251825591602001919060010190612350565b5b509050612379919061237d565b5090565b5b8082111561239657600081600090555060010161237e565b5090565b60006123ad6123a8846134ba565b613489565b9050828152602081018484840111156123c557600080fd5b6123d08482856136e6565b509392505050565b60006123eb6123e6846134ea565b613489565b90508281526020810184848401111561240357600080fd5b61240e8482856136e6565b509392505050565b600081359050612425816138a1565b92915050565b60008135905061243a816138b8565b92915050565b60008135905061244f816138cf565b92915050565b600081519050612464816138cf565b92915050565b600082601f83011261247b57600080fd5b813561248b84826020860161239a565b91505092915050565b600082601f8301126124a557600080fd5b81356124b58482602086016123d8565b91505092915050565b6000813590506124cd816138e6565b92915050565b6000602082840312156124e557600080fd5b60006124f384828501612416565b91505092915050565b6000806040838503121561250f57600080fd5b600061251d85828601612416565b925050602061252e85828601612416565b9150509250929050565b60008060006060848603121561254d57600080fd5b600061255b86828701612416565b935050602061256c86828701612416565b925050604061257d868287016124be565b9150509250925092565b6000806000806080858703121561259d57600080fd5b60006125ab87828801612416565b94505060206125bc87828801612416565b93505060406125cd878288016124be565b925050606085013567ffffffffffffffff8111156125ea57600080fd5b6125f68782880161246a565b91505092959194509250565b6000806040838503121561261557600080fd5b600061262385828601612416565b92505060206126348582860161242b565b9150509250929050565b6000806040838503121561265157600080fd5b600061265f85828601612416565b9250506020612670858286016124be565b9150509250929050565b60006020828403121561268c57600080fd5b600061269a84828501612440565b91505092915050565b6000602082840312156126b557600080fd5b60006126c384828501612455565b91505092915050565b6000602082840312156126de57600080fd5b600082013567ffffffffffffffff8111156126f857600080fd5b61270484828501612494565b91505092915050565b60006020828403121561271f57600080fd5b600061272d848285016124be565b91505092915050565b6000806040838503121561274957600080fd5b6000612757858286016124be565b925050602083013567ffffffffffffffff81111561277457600080fd5b61278085828601612494565b9150509250929050565b61279381613672565b82525050565b6127a281613684565b82525050565b60006127b38261351a565b6127bd8185613530565b93506127cd8185602086016136f5565b6127d681613890565b840191505092915050565b60006127ec82613525565b6127f68185613541565b93506128068185602086016136f5565b61280f81613890565b840191505092915050565b600061282582613525565b61282f8185613552565b935061283f8185602086016136f5565b80840191505092915050565b6000612858603083613541565b91507f455243373231207472616e736665722063616c6c6572206973206e6f74206f7760008301527f6e6572206f7220617070726f7665642e000000000000000000000000000000006020830152604082019050919050565b60006128be602283613541565b91507f53616c65206d7573742062652061637469766520746f206d696e74206120426f60008301527f69640000000000000000000000000000000000000000000000000000000000006020830152604082019050919050565b6000612924603283613541565b91507f4552433732313a207472616e7366657220746f206e6f6e20455243373231526560008301527f63656976657220696d706c656d656e74657200000000000000000000000000006020830152604082019050919050565b600061298a602983613541565b91507f507572636861736520776f756c6420657863656564206d617820737570706c7960008301527f206f6620426f69647300000000000000000000000000000000000000000000006020830152604082019050919050565b60006129f0602683613541565b91507f4f776e61626c653a206e6577206f776e657220697320746865207a65726f206160008301527f64647265737300000000000000000000000000000000000000000000000000006020830152604082019050919050565b6000612a56601c83613541565b91507f4552433732313a20746f6b656e20616c7265616479206d696e746564000000006000830152602082019050919050565b6000612a96602483613541565b91507f4552433732313a207472616e7366657220746f20746865207a65726f2061646460008301527f72657373000000000000000000000000000000000000000000000000000000006020830152604082019050919050565b6000612afc601983613541565b91507f4552433732313a20617070726f766520746f2063616c6c6572000000000000006000830152602082019050919050565b6000612b3c601f83613541565b91507f45746865722076616c75652073656e74206973206e6f7420636f7272656374006000830152602082019050919050565b6000612b7c602c83613541565b91507f4552433732313a206f70657261746f7220717565727920666f72206e6f6e657860008301527f697374656e7420746f6b656e00000000000000000000000000000000000000006020830152604082019050919050565b6000612be2602183613541565b91507f43616e206f6e6c79206d696e7420323020746f6b656e7320617420612074696d60008301527f65000000000000000000000000000000000000000000000000000000000000006020830152604082019050919050565b6000612c48603883613541565b91507f4552433732313a20617070726f76652063616c6c6572206973206e6f74206f7760008301527f6e6572206e6f7220617070726f76656420666f7220616c6c00000000000000006020830152604082019050919050565b6000612cae602a83613541565b91507f4552433732313a2062616c616e636520717565727920666f7220746865207a6560008301527f726f2061646472657373000000000000000000000000000000000000000000006020830152604082019050919050565b6000612d14602983613541565b91507f4552433732313a206f776e657220717565727920666f72206e6f6e657869737460008301527f656e7420746f6b656e00000000000000000000000000000000000000000000006020830152604082019050919050565b6000612d7a602e83613541565b91507f45524337323155524953746f726167653a2055524920736574206f66206e6f6e60008301527f6578697374656e7420746f6b656e0000000000000000000000000000000000006020830152604082019050919050565b6000612de0602083613541565b91507f4552433732313a206d696e7420746f20746865207a65726f20616464726573736000830152602082019050919050565b6000612e20603183613541565b91507f45524337323155524953746f726167653a2055524920717565727920666f722060008301527f6e6f6e6578697374656e7420746f6b656e0000000000000000000000000000006020830152604082019050919050565b6000612e86602c83613541565b91507f4552433732313a20617070726f76656420717565727920666f72206e6f6e657860008301527f697374656e7420746f6b656e00000000000000000000000000000000000000006020830152604082019050919050565b6000612eec602083613541565b91507f4f776e61626c653a2063616c6c6572206973206e6f7420746865206f776e65726000830152602082019050919050565b6000612f2c602983613541565b91507f4552433732313a207472616e73666572206f6620746f6b656e2074686174206960008301527f73206e6f74206f776e00000000000000000000000000000000000000000000006020830152604082019050919050565b6000612f92602f83613541565b91507f4552433732314d657461646174613a2055524920717565727920666f72206e6f60008301527f6e6578697374656e7420746f6b656e00000000000000000000000000000000006020830152604082019050919050565b6000612ff8602183613541565b91507f4552433732313a20617070726f76616c20746f2063757272656e74206f776e6560008301527f72000000000000000000000000000000000000000000000000000000000000006020830152604082019050919050565b600061305e603183613541565b91507f4552433732313a207472616e736665722063616c6c6572206973206e6f74206f60008301527f776e6572206e6f7220617070726f7665640000000000000000000000000000006020830152604082019050919050565b6130c0816136dc565b82525050565b60006130d2828561281a565b91506130de828461281a565b91508190509392505050565b60006020820190506130ff600083018461278a565b92915050565b600060808201905061311a600083018761278a565b613127602083018661278a565b61313460408301856130b7565b818103606083015261314681846127a8565b905095945050505050565b60006020820190506131666000830184612799565b92915050565b6000602082019050818103600083015261318681846127e1565b905092915050565b600060208201905081810360008301526131a78161284b565b9050919050565b600060208201905081810360008301526131c7816128b1565b9050919050565b600060208201905081810360008301526131e781612917565b9050919050565b600060208201905081810360008301526132078161297d565b9050919050565b60006020820190508181036000830152613227816129e3565b9050919050565b6000602082019050818103600083015261324781612a49565b9050919050565b6000602082019050818103600083015261326781612a89565b9050919050565b6000602082019050818103600083015261328781612aef565b9050919050565b600060208201905081810360008301526132a781612b2f565b9050919050565b600060208201905081810360008301526132c781612b6f565b9050919050565b600060208201905081810360008301526132e781612bd5565b9050919050565b6000602082019050818103600083015261330781612c3b565b9050919050565b6000602082019050818103600083015261332781612ca1565b9050919050565b6000602082019050818103600083015261334781612d07565b9050919050565b6000602082019050818103600083015261336781612d6d565b9050919050565b6000602082019050818103600083015261338781612dd3565b9050919050565b600060208201905081810360008301526133a781612e13565b9050919050565b600060208201905081810360008301526133c781612e79565b9050919050565b600060208201905081810360008301526133e781612edf565b9050919050565b6000602082019050818103600083015261340781612f1f565b9050919050565b6000602082019050818103600083015261342781612f85565b9050919050565b6000602082019050818103600083015261344781612feb565b9050919050565b6000602082019050818103600083015261346781613051565b9050919050565b600060208201905061348360008301846130b7565b92915050565b6000604051905081810181811067ffffffffffffffff821117156134b0576134af613861565b5b8060405250919050565b600067ffffffffffffffff8211156134d5576134d4613861565b5b601f19601f8301169050602081019050919050565b600067ffffffffffffffff82111561350557613504613861565b5b601f19601f8301169050602081019050919050565b600081519050919050565b600081519050919050565b600082825260208201905092915050565b600082825260208201905092915050565b600081905092915050565b6000613568826136dc565b9150613573836136dc565b9250827fffffffffffffffffffffffffffffffffffffffffffffffffffffffffffffffff038211156135a8576135a76137d4565b5b828201905092915050565b60006135be826136dc565b91506135c9836136dc565b9250826135d9576135d8613803565b5b828204905092915050565b60006135ef826136dc565b91506135fa836136dc565b9250817fffffffffffffffffffffffffffffffffffffffffffffffffffffffffffffffff0483118215151615613633576136326137d4565b5b828202905092915050565b6000613649826136dc565b9150613654836136dc565b925082821015613667576136666137d4565b5b828203905092915050565b600061367d826136bc565b9050919050565b60008115159050919050565b60007fffffffff0000000000000000000000000000000000000000000000000000000082169050919050565b600073ffffffffffffffffffffffffffffffffffffffff82169050919050565b6000819050919050565b82818337600083830152505050565b60005b838110156137135780820151818401526020810190506136f8565b83811115613722576000848401525b50505050565b6000600282049050600182168061374057607f821691505b6020821081141561375457613753613832565b5b50919050565b6000613765826136dc565b91507fffffffffffffffffffffffffffffffffffffffffffffffffffffffffffffffff821415613798576137976137d4565b5b600182019050919050565b60006137ae826136dc565b91506137b9836136dc565b9250826137c9576137c8613803565b5b828206905092915050565b7f4e487b7100000000000000000000000000000000000000000000000000000000600052601160045260246000fd5b7f4e487b7100000000000000000000000000000000000000000000000000000000600052601260045260246000fd5b7f4e487b7100000000000000000000000000000000000000000000000000000000600052602260045260246000fd5b7f4e487b7100000000000000000000000000000000000000000000000000000000600052604160045260246000fd5b6000601f19601f8301169050919050565b6138aa81613672565b81146138b557600080fd5b50565b6138c181613684565b81146138cc57600080fd5b50565b6138d881613690565b81146138e357600080fd5b50565b6138ef816136dc565b81146138fa57600080fd5b5056fea26469706673582212202393516c643addcf3b8cd02767704a0c3fe940a25cb4c57eece5c9701695be8c64736f6c63430008000033",
  "linkReferences": {},
  "deployedLinkReferences": {}
}