{
  "_format": "hh-sol-artifact-1",
  "contractName": "Boids",
  "sourceName": "contracts/Boids.sol",
  "abi": [
    {
      "inputs": [
        {
          "internalType": "string",
          "name": "baseURI",
          "type": "string"
        }
      ],
      "stateMutability": "nonpayable",
      "type": "constructor"
    },
    {
      "anonymous": false,
      "inputs": [
        {
          "indexed": true,
          "internalType": "address",
          "name": "owner",
          "type": "address"
        },
        {
          "indexed": true,
          "internalType": "address",
          "name": "approved",
          "type": "address"
        },
        {
          "indexed": true,
          "internalType": "uint256",
          "name": "tokenId",
          "type": "uint256"
        }
      ],
      "name": "Approval",
      "type": "event"
    },
    {
      "anonymous": false,
      "inputs": [
        {
          "indexed": true,
          "internalType": "address",
          "name": "owner",
          "type": "address"
        },
        {
          "indexed": true,
          "internalType": "address",
          "name": "operator",
          "type": "address"
        },
        {
          "indexed": false,
          "internalType": "bool",
          "name": "approved",
          "type": "bool"
        }
      ],
      "name": "ApprovalForAll",
      "type": "event"
    },
    {
      "anonymous": false,
      "inputs": [
        {
          "indexed": true,
          "internalType": "address",
          "name": "previousOwner",
          "type": "address"
        },
        {
          "indexed": true,
          "internalType": "address",
          "name": "newOwner",
          "type": "address"
        }
      ],
      "name": "OwnershipTransferred",
      "type": "event"
    },
    {
      "anonymous": false,
      "inputs": [
        {
          "indexed": true,
          "internalType": "address",
          "name": "from",
          "type": "address"
        },
        {
          "indexed": true,
          "internalType": "address",
          "name": "to",
          "type": "address"
        },
        {
          "indexed": true,
          "internalType": "uint256",
          "name": "tokenId",
          "type": "uint256"
        }
      ],
      "name": "Transfer",
      "type": "event"
    },
    {
      "inputs": [],
      "name": "MAX_BOIDS",
      "outputs": [
        {
          "internalType": "uint256",
          "name": "",
          "type": "uint256"
        }
      ],
      "stateMutability": "view",
      "type": "function"
    },
    {
      "inputs": [],
      "name": "_baseTokenURI",
      "outputs": [
        {
          "internalType": "string",
          "name": "",
          "type": "string"
        }
      ],
      "stateMutability": "view",
      "type": "function"
    },
    {
      "inputs": [
        {
          "internalType": "address",
          "name": "to",
          "type": "address"
        },
        {
          "internalType": "uint256",
          "name": "tokenId",
          "type": "uint256"
        }
      ],
      "name": "approve",
      "outputs": [],
      "stateMutability": "nonpayable",
      "type": "function"
    },
    {
      "inputs": [
        {
          "internalType": "address",
          "name": "owner",
          "type": "address"
        }
      ],
      "name": "balanceOf",
      "outputs": [
        {
          "internalType": "uint256",
          "name": "",
          "type": "uint256"
        }
      ],
      "stateMutability": "view",
      "type": "function"
    },
    {
      "inputs": [],
      "name": "boidPrice",
      "outputs": [
        {
          "internalType": "uint256",
          "name": "",
          "type": "uint256"
        }
      ],
      "stateMutability": "view",
      "type": "function"
    },
    {
      "inputs": [],
      "name": "flipSaleState",
      "outputs": [],
      "stateMutability": "nonpayable",
      "type": "function"
    },
    {
      "inputs": [
        {
          "internalType": "uint256",
          "name": "tokenId",
          "type": "uint256"
        }
      ],
      "name": "getApproved",
      "outputs": [
        {
          "internalType": "address",
          "name": "",
          "type": "address"
        }
      ],
      "stateMutability": "view",
      "type": "function"
    },
    {
      "inputs": [
        {
          "internalType": "address",
          "name": "owner",
          "type": "address"
        },
        {
          "internalType": "address",
          "name": "operator",
          "type": "address"
        }
      ],
      "name": "isApprovedForAll",
      "outputs": [
        {
          "internalType": "bool",
          "name": "",
          "type": "bool"
        }
      ],
      "stateMutability": "view",
      "type": "function"
    },
    {
      "inputs": [],
      "name": "maxBoidPurchase",
      "outputs": [
        {
          "internalType": "uint256",
          "name": "",
          "type": "uint256"
        }
      ],
      "stateMutability": "view",
      "type": "function"
    },
    {
      "inputs": [
        {
          "internalType": "uint256",
          "name": "numberOfTokens",
          "type": "uint256"
        }
      ],
      "name": "mintBoid",
      "outputs": [],
      "stateMutability": "payable",
      "type": "function"
    },
    {
      "inputs": [],
      "name": "name",
      "outputs": [
        {
          "internalType": "string",
          "name": "",
          "type": "string"
        }
      ],
      "stateMutability": "view",
      "type": "function"
    },
    {
      "inputs": [],
      "name": "owner",
      "outputs": [
        {
          "internalType": "address",
          "name": "",
          "type": "address"
        }
      ],
      "stateMutability": "view",
      "type": "function"
    },
    {
      "inputs": [
        {
          "internalType": "uint256",
          "name": "tokenId",
          "type": "uint256"
        }
      ],
      "name": "ownerOf",
      "outputs": [
        {
          "internalType": "address",
          "name": "",
          "type": "address"
        }
      ],
      "stateMutability": "view",
      "type": "function"
    },
    {
      "inputs": [],
      "name": "renounceOwnership",
      "outputs": [],
      "stateMutability": "nonpayable",
      "type": "function"
    },
    {
      "inputs": [
        {
          "internalType": "address",
          "name": "from",
          "type": "address"
        },
        {
          "internalType": "address",
          "name": "to",
          "type": "address"
        },
        {
          "internalType": "uint256",
          "name": "tokenId",
          "type": "uint256"
        }
      ],
      "name": "safeTransferFrom",
      "outputs": [],
      "stateMutability": "nonpayable",
      "type": "function"
    },
    {
      "inputs": [
        {
          "internalType": "address",
          "name": "from",
          "type": "address"
        },
        {
          "internalType": "address",
          "name": "to",
          "type": "address"
        },
        {
          "internalType": "uint256",
          "name": "tokenId",
          "type": "uint256"
        },
        {
          "internalType": "bytes",
          "name": "_data",
          "type": "bytes"
        }
      ],
      "name": "safeTransferFrom",
      "outputs": [],
      "stateMutability": "nonpayable",
      "type": "function"
    },
    {
      "inputs": [],
      "name": "saleIsActive",
      "outputs": [
        {
          "internalType": "bool",
          "name": "",
          "type": "bool"
        }
      ],
      "stateMutability": "view",
      "type": "function"
    },
    {
      "inputs": [
        {
          "internalType": "address",
          "name": "operator",
          "type": "address"
        },
        {
          "internalType": "bool",
          "name": "approved",
          "type": "bool"
        }
      ],
      "name": "setApprovalForAll",
      "outputs": [],
      "stateMutability": "nonpayable",
      "type": "function"
    },
    {
      "inputs": [
        {
          "internalType": "string",
          "name": "baseURI",
          "type": "string"
        }
      ],
      "name": "setBaseURI",
      "outputs": [],
      "stateMutability": "nonpayable",
      "type": "function"
    },
    {
      "inputs": [
        {
          "internalType": "bytes4",
          "name": "interfaceId",
          "type": "bytes4"
        }
      ],
      "name": "supportsInterface",
      "outputs": [
        {
          "internalType": "bool",
          "name": "",
          "type": "bool"
        }
      ],
      "stateMutability": "view",
      "type": "function"
    },
    {
      "inputs": [],
      "name": "symbol",
      "outputs": [
        {
          "internalType": "string",
          "name": "",
          "type": "string"
        }
      ],
      "stateMutability": "view",
      "type": "function"
    },
    {
      "inputs": [
        {
          "internalType": "uint256",
          "name": "tokenId",
          "type": "uint256"
        }
      ],
      "name": "tokenURI",
      "outputs": [
        {
          "internalType": "string",
          "name": "",
          "type": "string"
        }
      ],
      "stateMutability": "view",
      "type": "function"
    },
    {
      "inputs": [],
      "name": "totalSupply",
      "outputs": [
        {
          "internalType": "uint256",
          "name": "",
          "type": "uint256"
        }
      ],
      "stateMutability": "view",
      "type": "function"
    },
    {
      "inputs": [
        {
          "internalType": "address",
          "name": "from",
          "type": "address"
        },
        {
          "internalType": "address",
          "name": "to",
          "type": "address"
        },
        {
          "internalType": "uint256",
          "name": "tokenId",
          "type": "uint256"
        }
      ],
      "name": "transferFrom",
      "outputs": [],
      "stateMutability": "nonpayable",
      "type": "function"
    },
    {
      "inputs": [
        {
          "internalType": "address",
          "name": "newOwner",
          "type": "address"
        }
      ],
      "name": "transferOwnership",
      "outputs": [],
      "stateMutability": "nonpayable",
      "type": "function"
    },
    {
      "inputs": [],
      "name": "withdraw",
      "outputs": [],
      "stateMutability": "nonpayable",
      "type": "function"
    }
  ],
  "bytecode": "0x608060405260006008556000600960006101000a81548160ff0219169083151502179055503480156200003157600080fd5b5060405162003d2e38038062003d2e8339818101604052810190620000579190620003f4565b6040518060400160405280600481526020017f426f6964000000000000000000000000000000000000000000000000000000008152506040518060400160405280600481526020017f424f4944000000000000000000000000000000000000000000000000000000008152508160009080519060200190620000db929190620002d2565b508060019080519060200190620000f4929190620002d2565b505050620001176200010b6200012f60201b60201c565b6200013760201b60201c565b6200012881620001fd60201b60201c565b50620005df565b600033905090565b6000600760009054906101000a900473ffffffffffffffffffffffffffffffffffffffff16905081600760006101000a81548173ffffffffffffffffffffffffffffffffffffffff021916908373ffffffffffffffffffffffffffffffffffffffff1602179055508173ffffffffffffffffffffffffffffffffffffffff168173ffffffffffffffffffffffffffffffffffffffff167f8be0079c531659141344cd1fd0a4f28419497f9722a3daafe3b4186f6b6457e060405160405180910390a35050565b6200020d6200012f60201b60201c565b73ffffffffffffffffffffffffffffffffffffffff1662000233620002a860201b60201c565b73ffffffffffffffffffffffffffffffffffffffff16146200028c576040517f08c379a000000000000000000000000000000000000000000000000000000000815260040162000283906200047b565b60405180910390fd5b80600a9080519060200190620002a4929190620002d2565b5050565b6000600760009054906101000a900473ffffffffffffffffffffffffffffffffffffffff16905090565b828054620002e0906200054b565b90600052602060002090601f01602090048101928262000304576000855562000350565b82601f106200031f57805160ff191683800117855562000350565b8280016001018555821562000350579182015b828111156200034f57825182559160200191906001019062000332565b5b5090506200035f919062000363565b5090565b5b808211156200037e57600081600090555060010162000364565b5090565b6000620003996200039384620004d1565b6200049d565b905082815260208101848484011115620003b257600080fd5b620003bf84828562000515565b509392505050565b600082601f830112620003d957600080fd5b8151620003eb84826020860162000382565b91505092915050565b6000602082840312156200040757600080fd5b600082015167ffffffffffffffff8111156200042257600080fd5b6200043084828501620003c7565b91505092915050565b60006200044860208362000504565b91507f4f776e61626c653a2063616c6c6572206973206e6f7420746865206f776e65726000830152602082019050919050565b60006020820190508181036000830152620004968162000439565b9050919050565b6000604051905081810181811067ffffffffffffffff82111715620004c757620004c6620005b0565b5b8060405250919050565b600067ffffffffffffffff821115620004ef57620004ee620005b0565b5b601f19601f8301169050602081019050919050565b600082825260208201905092915050565b60005b838110156200053557808201518184015260208101905062000518565b8381111562000545576000848401525b50505050565b600060028204905060018216806200056457607f821691505b602082108114156200057b576200057a62000581565b5b50919050565b7f4e487b7100000000000000000000000000000000000000000000000000000000600052602260045260246000fd5b7f4e487b7100000000000000000000000000000000000000000000000000000000600052604160045260246000fd5b61373f80620005ef6000396000f3fe6080604052600436106101815760003560e01c806370a08231116100d1578063c87b56dd1161008a578063e985e9c511610064578063e985e9c51461054a578063eb8d244414610587578063f2fde38b146105b2578063fdae23c4146105db57610181565b8063c87b56dd146104b7578063cfc86f7b146104f4578063e95076be1461051f57610181565b806370a08231146103bb578063715018a6146103f85780638da5cb5b1461040f57806395d89b411461043a578063a22cb46514610465578063b88d4fde1461048e57610181565b806323b872dd1161013e57806342842e0e1161011857806342842e0e14610301578063529643891461032a57806355f804b3146103555780636352211e1461037e57610181565b806323b872dd146102aa57806334918dfd146102d35780633ccfd60b146102ea57610181565b806301ffc9a71461018657806306fdde03146101c3578063081812fc146101ee578063095ea7b31461022b5780630d27d6fa1461025457806318160ddd1461027f575b600080fd5b34801561019257600080fd5b506101ad60048036038101906101a891906125e6565b6105f7565b6040516101ba9190612f9d565b60405180910390f35b3480156101cf57600080fd5b506101d86106d9565b6040516101e59190612fb8565b60405180910390f35b3480156101fa57600080fd5b5061021560048036038101906102109190612679565b61076b565b6040516102229190612f36565b60405180910390f35b34801561023757600080fd5b50610252600480360381019061024d91906125aa565b6107f0565b005b34801561026057600080fd5b50610269610908565b604051610276919061327a565b60405180910390f35b34801561028b57600080fd5b5061029461090d565b6040516102a1919061327a565b60405180910390f35b3480156102b657600080fd5b506102d160048036038101906102cc91906124a4565b610913565b005b3480156102df57600080fd5b506102e8610973565b005b3480156102f657600080fd5b506102ff610a1b565b005b34801561030d57600080fd5b50610328600480360381019061032391906124a4565b610ae6565b005b34801561033657600080fd5b5061033f610b06565b60405161034c919061327a565b60405180910390f35b34801561036157600080fd5b5061037c60048036038101906103779190612638565b610b11565b005b34801561038a57600080fd5b506103a560048036038101906103a09190612679565b610ba7565b6040516103b29190612f36565b60405180910390f35b3480156103c757600080fd5b506103e260048036038101906103dd919061243f565b610c59565b6040516103ef919061327a565b60405180910390f35b34801561040457600080fd5b5061040d610d11565b005b34801561041b57600080fd5b50610424610d99565b6040516104319190612f36565b60405180910390f35b34801561044657600080fd5b5061044f610dc3565b60405161045c9190612fb8565b60405180910390f35b34801561047157600080fd5b5061048c6004803603810190610487919061256e565b610e55565b005b34801561049a57600080fd5b506104b560048036038101906104b091906124f3565b610fd6565b005b3480156104c357600080fd5b506104de60048036038101906104d99190612679565b611038565b6040516104eb9190612fb8565b60405180910390f35b34801561050057600080fd5b5061050961118a565b6040516105169190612fb8565b60405180910390f35b34801561052b57600080fd5b50610534611218565b604051610541919061327a565b60405180910390f35b34801561055657600080fd5b50610571600480360381019061056c9190612468565b61121e565b60405161057e9190612f9d565b60405180910390f35b34801561059357600080fd5b5061059c6112b2565b6040516105a99190612f9d565b60405180910390f35b3480156105be57600080fd5b506105d960048036038101906105d4919061243f565b6112c5565b005b6105f560048036038101906105f09190612679565b6113bd565b005b60007f80ac58cd000000000000000000000000000000000000000000000000000000007bffffffffffffffffffffffffffffffffffffffffffffffffffffffff1916827bffffffffffffffffffffffffffffffffffffffffffffffffffffffff191614806106c257507f5b5e139f000000000000000000000000000000000000000000000000000000007bffffffffffffffffffffffffffffffffffffffffffffffffffffffff1916827bffffffffffffffffffffffffffffffffffffffffffffffffffffffff1916145b806106d257506106d182611568565b5b9050919050565b6060600080546106e890613534565b80601f016020809104026020016040519081016040528092919081815260200182805461071490613534565b80156107615780601f1061073657610100808354040283529160200191610761565b820191906000526020600020905b81548152906001019060200180831161074457829003601f168201915b5050505050905090565b6000610776826115d2565b6107b5576040517f08c379a00000000000000000000000000000000000000000000000000000000081526004016107ac906131ba565b60405180910390fd5b6004600083815260200190815260200160002060009054906101000a900473ffffffffffffffffffffffffffffffffffffffff169050919050565b60006107fb82610ba7565b90508073ffffffffffffffffffffffffffffffffffffffff168373ffffffffffffffffffffffffffffffffffffffff16141561086c576040517f08c379a00000000000000000000000000000000000000000000000000000000081526004016108639061323a565b60405180910390fd5b8073ffffffffffffffffffffffffffffffffffffffff1661088b61163e565b73ffffffffffffffffffffffffffffffffffffffff1614806108ba57506108b9816108b461163e565b61121e565b5b6108f9576040517f08c379a00000000000000000000000000000000000000000000000000000000081526004016108f09061311a565b60405180910390fd5b6109038383611646565b505050565b601481565b60085481565b61092461091e61163e565b826116ff565b610963576040517f08c379a000000000000000000000000000000000000000000000000000000000815260040161095a9061325a565b60405180910390fd5b61096e8383836117dd565b505050565b61097b61163e565b73ffffffffffffffffffffffffffffffffffffffff16610999610d99565b73ffffffffffffffffffffffffffffffffffffffff16146109ef576040517f08c379a00000000000000000000000000000000000000000000000000000000081526004016109e6906131da565b60405180910390fd5b600960009054906101000a900460ff1615600960006101000a81548160ff021916908315150217905550565b610a2361163e565b73ffffffffffffffffffffffffffffffffffffffff16610a41610d99565b73ffffffffffffffffffffffffffffffffffffffff1614610a97576040517f08c379a0000000000000000000000000000000000000000000000000000000008152600401610a8e906131da565b60405180910390fd5b60004790503373ffffffffffffffffffffffffffffffffffffffff166108fc829081150290604051600060405180830381858888f19350505050158015610ae2573d6000803e3d6000fd5b5050565b610b0183838360405180602001604052806000815250610fd6565b505050565b6658d15e1762800081565b610b1961163e565b73ffffffffffffffffffffffffffffffffffffffff16610b37610d99565b73ffffffffffffffffffffffffffffffffffffffff1614610b8d576040517f08c379a0000000000000000000000000000000000000000000000000000000008152600401610b84906131da565b60405180910390fd5b80600a9080519060200190610ba3929190612263565b5050565b6000806002600084815260200190815260200160002060009054906101000a900473ffffffffffffffffffffffffffffffffffffffff169050600073ffffffffffffffffffffffffffffffffffffffff168173ffffffffffffffffffffffffffffffffffffffff161415610c50576040517f08c379a0000000000000000000000000000000000000000000000000000000008152600401610c479061315a565b60405180910390fd5b80915050919050565b60008073ffffffffffffffffffffffffffffffffffffffff168273ffffffffffffffffffffffffffffffffffffffff161415610cca576040517f08c379a0000000000000000000000000000000000000000000000000000000008152600401610cc19061313a565b60405180910390fd5b600360008373ffffffffffffffffffffffffffffffffffffffff1673ffffffffffffffffffffffffffffffffffffffff168152602001908152602001600020549050919050565b610d1961163e565b73ffffffffffffffffffffffffffffffffffffffff16610d37610d99565b73ffffffffffffffffffffffffffffffffffffffff1614610d8d576040517f08c379a0000000000000000000000000000000000000000000000000000000008152600401610d84906131da565b60405180910390fd5b610d976000611a39565b565b6000600760009054906101000a900473ffffffffffffffffffffffffffffffffffffffff16905090565b606060018054610dd290613534565b80601f0160208091040260200160405190810160405280929190818152602001828054610dfe90613534565b8015610e4b5780601f10610e2057610100808354040283529160200191610e4b565b820191906000526020600020905b815481529060010190602001808311610e2e57829003601f168201915b5050505050905090565b610e5d61163e565b73ffffffffffffffffffffffffffffffffffffffff168273ffffffffffffffffffffffffffffffffffffffff161415610ecb576040517f08c379a0000000000000000000000000000000000000000000000000000000008152600401610ec29061309a565b60405180910390fd5b8060056000610ed861163e565b73ffffffffffffffffffffffffffffffffffffffff1673ffffffffffffffffffffffffffffffffffffffff16815260200190815260200160002060008473ffffffffffffffffffffffffffffffffffffffff1673ffffffffffffffffffffffffffffffffffffffff16815260200190815260200160002060006101000a81548160ff0219169083151502179055508173ffffffffffffffffffffffffffffffffffffffff16610f8561163e565b73ffffffffffffffffffffffffffffffffffffffff167f17307eab39ab6107e8899845ad3d59bd9653f200f220920489ca2b5937696c3183604051610fca9190612f9d565b60405180910390a35050565b610fe7610fe161163e565b836116ff565b611026576040517f08c379a000000000000000000000000000000000000000000000000000000000815260040161101d9061325a565b60405180910390fd5b61103284848484611aff565b50505050565b6060611043826115d2565b611082576040517f08c379a00000000000000000000000000000000000000000000000000000000081526004016110799061319a565b60405180910390fd5b60006006600084815260200190815260200160002080546110a290613534565b80601f01602080910402602001604051908101604052809291908181526020018280546110ce90613534565b801561111b5780601f106110f05761010080835404028352916020019161111b565b820191906000526020600020905b8154815290600101906020018083116110fe57829003601f168201915b50505050509050600061112c611b5b565b9050600081511415611142578192505050611185565b60008251111561117757808260405160200161115f929190612f12565b60405160208183030381529060405292505050611185565b61118084611bed565b925050505b919050565b600a805461119790613534565b80601f01602080910402602001604051908101604052809291908181526020018280546111c390613534565b80156112105780601f106111e557610100808354040283529160200191611210565b820191906000526020600020905b8154815290600101906020018083116111f357829003601f168201915b505050505081565b6107d081565b6000600560008473ffffffffffffffffffffffffffffffffffffffff1673ffffffffffffffffffffffffffffffffffffffff16815260200190815260200160002060008373ffffffffffffffffffffffffffffffffffffffff1673ffffffffffffffffffffffffffffffffffffffff16815260200190815260200160002060009054906101000a900460ff16905092915050565b600960009054906101000a900460ff1681565b6112cd61163e565b73ffffffffffffffffffffffffffffffffffffffff166112eb610d99565b73ffffffffffffffffffffffffffffffffffffffff1614611341576040517f08c379a0000000000000000000000000000000000000000000000000000000008152600401611338906131da565b60405180910390fd5b600073ffffffffffffffffffffffffffffffffffffffff168173ffffffffffffffffffffffffffffffffffffffff1614156113b1576040517f08c379a00000000000000000000000000000000000000000000000000000000081526004016113a89061303a565b60405180910390fd5b6113ba81611a39565b50565b600960009054906101000a900460ff1661140c576040517f08c379a000000000000000000000000000000000000000000000000000000000815260040161140390612fda565b60405180910390fd5b60008111801561141d575060148111155b61145c576040517f08c379a0000000000000000000000000000000000000000000000000000000008152600401611453906130fa565b60405180910390fd5b6107d061147482600854611c9490919063ffffffff16565b11156114b5576040517f08c379a00000000000000000000000000000000000000000000000000000000081526004016114ac9061301a565b60405180910390fd5b6114cf816658d15e17628000611caa90919063ffffffff16565b341015611511576040517f08c379a0000000000000000000000000000000000000000000000000000000008152600401611508906130ba565b60405180910390fd5b60005b81811015611564576115326001600854611c9490919063ffffffff16565b6008819055506107d060085410156115515761155033600854611cc0565b5b808061155c90613566565b915050611514565b5050565b60007f01ffc9a7000000000000000000000000000000000000000000000000000000007bffffffffffffffffffffffffffffffffffffffffffffffffffffffff1916827bffffffffffffffffffffffffffffffffffffffffffffffffffffffff1916149050919050565b60008073ffffffffffffffffffffffffffffffffffffffff166002600084815260200190815260200160002060009054906101000a900473ffffffffffffffffffffffffffffffffffffffff1673ffffffffffffffffffffffffffffffffffffffff1614159050919050565b600033905090565b816004600083815260200190815260200160002060006101000a81548173ffffffffffffffffffffffffffffffffffffffff021916908373ffffffffffffffffffffffffffffffffffffffff160217905550808273ffffffffffffffffffffffffffffffffffffffff166116b983610ba7565b73ffffffffffffffffffffffffffffffffffffffff167f8c5be1e5ebec7d5bd14f71427d1e84f3dd0314c0f7b2291e5b200ac8c7c3b92560405160405180910390a45050565b600061170a826115d2565b611749576040517f08c379a0000000000000000000000000000000000000000000000000000000008152600401611740906130da565b60405180910390fd5b600061175483610ba7565b90508073ffffffffffffffffffffffffffffffffffffffff168473ffffffffffffffffffffffffffffffffffffffff1614806117c357508373ffffffffffffffffffffffffffffffffffffffff166117ab8461076b565b73ffffffffffffffffffffffffffffffffffffffff16145b806117d457506117d3818561121e565b5b91505092915050565b8273ffffffffffffffffffffffffffffffffffffffff166117fd82610ba7565b73ffffffffffffffffffffffffffffffffffffffff1614611853576040517f08c379a000000000000000000000000000000000000000000000000000000000815260040161184a906131fa565b60405180910390fd5b600073ffffffffffffffffffffffffffffffffffffffff168273ffffffffffffffffffffffffffffffffffffffff1614156118c3576040517f08c379a00000000000000000000000000000000000000000000000000000000081526004016118ba9061307a565b60405180910390fd5b6118ce838383611cde565b6118d9600082611646565b6001600360008573ffffffffffffffffffffffffffffffffffffffff1673ffffffffffffffffffffffffffffffffffffffff1681526020019081526020016000206000828254611929919061344a565b925050819055506001600360008473ffffffffffffffffffffffffffffffffffffffff1673ffffffffffffffffffffffffffffffffffffffff16815260200190815260200160002060008282546119809190613369565b92505081905550816002600083815260200190815260200160002060006101000a81548173ffffffffffffffffffffffffffffffffffffffff021916908373ffffffffffffffffffffffffffffffffffffffff160217905550808273ffffffffffffffffffffffffffffffffffffffff168473ffffffffffffffffffffffffffffffffffffffff167fddf252ad1be2c89b69c2b068fc378daa952ba7f163c4a11628f55a4df523b3ef60405160405180910390a4505050565b6000600760009054906101000a900473ffffffffffffffffffffffffffffffffffffffff16905081600760006101000a81548173ffffffffffffffffffffffffffffffffffffffff021916908373ffffffffffffffffffffffffffffffffffffffff1602179055508173ffffffffffffffffffffffffffffffffffffffff168173ffffffffffffffffffffffffffffffffffffffff167f8be0079c531659141344cd1fd0a4f28419497f9722a3daafe3b4186f6b6457e060405160405180910390a35050565b611b0a8484846117dd565b611b1684848484611ce3565b611b55576040517f08c379a0000000000000000000000000000000000000000000000000000000008152600401611b4c90612ffa565b60405180910390fd5b50505050565b6060600a8054611b6a90613534565b80601f0160208091040260200160405190810160405280929190818152602001828054611b9690613534565b8015611be35780601f10611bb857610100808354040283529160200191611be3565b820191906000526020600020905b815481529060010190602001808311611bc657829003601f168201915b5050505050905090565b6060611bf8826115d2565b611c37576040517f08c379a0000000000000000000000000000000000000000000000000000000008152600401611c2e9061321a565b60405180910390fd5b6000611c41611b5b565b90506000815111611c615760405180602001604052806000815250611c8c565b80611c6b84611e7a565b604051602001611c7c929190612f12565b6040516020818303038152906040525b915050919050565b60008183611ca29190613369565b905092915050565b60008183611cb891906133f0565b905092915050565b611cda828260405180602001604052806000815250612027565b5050565b505050565b6000611d048473ffffffffffffffffffffffffffffffffffffffff16612082565b15611e6d578373ffffffffffffffffffffffffffffffffffffffff1663150b7a02611d2d61163e565b8786866040518563ffffffff1660e01b8152600401611d4f9493929190612f51565b602060405180830381600087803b158015611d6957600080fd5b505af1925050508015611d9a57506040513d601f19601f82011682018060405250810190611d97919061260f565b60015b611e1d573d8060008114611dca576040519150601f19603f3d011682016040523d82523d6000602084013e611dcf565b606091505b50600081511415611e15576040517f08c379a0000000000000000000000000000000000000000000000000000000008152600401611e0c90612ffa565b60405180910390fd5b805181602001fd5b63150b7a0260e01b7bffffffffffffffffffffffffffffffffffffffffffffffffffffffff1916817bffffffffffffffffffffffffffffffffffffffffffffffffffffffff191614915050611e72565b600190505b949350505050565b60606000821415611ec2576040518060400160405280600181526020017f30000000000000000000000000000000000000000000000000000000000000008152509050612022565b600082905060005b60008214611ef4578080611edd90613566565b915050600a82611eed91906133bf565b9150611eca565b60008167ffffffffffffffff811115611f36577f4e487b7100000000000000000000000000000000000000000000000000000000600052604160045260246000fd5b6040519080825280601f01601f191660200182016040528015611f685781602001600182028036833780820191505090505b5090505b6000851461201b57600182611f81919061344a565b9150600a85611f9091906135af565b6030611f9c9190613369565b60f81b818381518110611fd8577f4e487b7100000000000000000000000000000000000000000000000000000000600052603260045260246000fd5b60200101907effffffffffffffffffffffffffffffffffffffffffffffffffffffffffffff1916908160001a905350600a8561201491906133bf565b9450611f6c565b8093505050505b919050565b6120318383612095565b61203e6000848484611ce3565b61207d576040517f08c379a000000000000000000000000000000000000000000000000000000000815260040161207490612ffa565b60405180910390fd5b505050565b600080823b905060008111915050919050565b600073ffffffffffffffffffffffffffffffffffffffff168273ffffffffffffffffffffffffffffffffffffffff161415612105576040517f08c379a00000000000000000000000000000000000000000000000000000000081526004016120fc9061317a565b60405180910390fd5b61210e816115d2565b1561214e576040517f08c379a00000000000000000000000000000000000000000000000000000000081526004016121459061305a565b60405180910390fd5b61215a60008383611cde565b6001600360008473ffffffffffffffffffffffffffffffffffffffff1673ffffffffffffffffffffffffffffffffffffffff16815260200190815260200160002060008282546121aa9190613369565b92505081905550816002600083815260200190815260200160002060006101000a81548173ffffffffffffffffffffffffffffffffffffffff021916908373ffffffffffffffffffffffffffffffffffffffff160217905550808273ffffffffffffffffffffffffffffffffffffffff16600073ffffffffffffffffffffffffffffffffffffffff167fddf252ad1be2c89b69c2b068fc378daa952ba7f163c4a11628f55a4df523b3ef60405160405180910390a45050565b82805461226f90613534565b90600052602060002090601f01602090048101928261229157600085556122d8565b82601f106122aa57805160ff19168380011785556122d8565b828001600101855582156122d8579182015b828111156122d75782518255916020019190600101906122bc565b5b5090506122e591906122e9565b5090565b5b808211156123025760008160009055506001016122ea565b5090565b6000612319612314846132c6565b613295565b90508281526020810184848401111561233157600080fd5b61233c8482856134f2565b509392505050565b6000612357612352846132f6565b613295565b90508281526020810184848401111561236f57600080fd5b61237a8482856134f2565b509392505050565b600081359050612391816136ad565b92915050565b6000813590506123a6816136c4565b92915050565b6000813590506123bb816136db565b92915050565b6000815190506123d0816136db565b92915050565b600082601f8301126123e757600080fd5b81356123f7848260208601612306565b91505092915050565b600082601f83011261241157600080fd5b8135612421848260208601612344565b91505092915050565b600081359050612439816136f2565b92915050565b60006020828403121561245157600080fd5b600061245f84828501612382565b91505092915050565b6000806040838503121561247b57600080fd5b600061248985828601612382565b925050602061249a85828601612382565b9150509250929050565b6000806000606084860312156124b957600080fd5b60006124c786828701612382565b93505060206124d886828701612382565b92505060406124e98682870161242a565b9150509250925092565b6000806000806080858703121561250957600080fd5b600061251787828801612382565b945050602061252887828801612382565b93505060406125398782880161242a565b925050606085013567ffffffffffffffff81111561255657600080fd5b612562878288016123d6565b91505092959194509250565b6000806040838503121561258157600080fd5b600061258f85828601612382565b92505060206125a085828601612397565b9150509250929050565b600080604083850312156125bd57600080fd5b60006125cb85828601612382565b92505060206125dc8582860161242a565b9150509250929050565b6000602082840312156125f857600080fd5b6000612606848285016123ac565b91505092915050565b60006020828403121561262157600080fd5b600061262f848285016123c1565b91505092915050565b60006020828403121561264a57600080fd5b600082013567ffffffffffffffff81111561266457600080fd5b61267084828501612400565b91505092915050565b60006020828403121561268b57600080fd5b60006126998482850161242a565b91505092915050565b6126ab8161347e565b82525050565b6126ba81613490565b82525050565b60006126cb82613326565b6126d5818561333c565b93506126e5818560208601613501565b6126ee8161369c565b840191505092915050565b600061270482613331565b61270e818561334d565b935061271e818560208601613501565b6127278161369c565b840191505092915050565b600061273d82613331565b612747818561335e565b9350612757818560208601613501565b80840191505092915050565b600061277060228361334d565b91507f53616c65206d7573742062652061637469766520746f206d696e74206120426f60008301527f69640000000000000000000000000000000000000000000000000000000000006020830152604082019050919050565b60006127d660328361334d565b91507f4552433732313a207472616e7366657220746f206e6f6e20455243373231526560008301527f63656976657220696d706c656d656e74657200000000000000000000000000006020830152604082019050919050565b600061283c60298361334d565b91507f507572636861736520776f756c6420657863656564206d617820737570706c7960008301527f206f6620426f69647300000000000000000000000000000000000000000000006020830152604082019050919050565b60006128a260268361334d565b91507f4f776e61626c653a206e6577206f776e657220697320746865207a65726f206160008301527f64647265737300000000000000000000000000000000000000000000000000006020830152604082019050919050565b6000612908601c8361334d565b91507f4552433732313a20746f6b656e20616c7265616479206d696e746564000000006000830152602082019050919050565b600061294860248361334d565b91507f4552433732313a207472616e7366657220746f20746865207a65726f2061646460008301527f72657373000000000000000000000000000000000000000000000000000000006020830152604082019050919050565b60006129ae60198361334d565b91507f4552433732313a20617070726f766520746f2063616c6c6572000000000000006000830152602082019050919050565b60006129ee601f8361334d565b91507f45746865722076616c75652073656e74206973206e6f7420636f7272656374006000830152602082019050919050565b6000612a2e602c8361334d565b91507f4552433732313a206f70657261746f7220717565727920666f72206e6f6e657860008301527f697374656e7420746f6b656e00000000000000000000000000000000000000006020830152604082019050919050565b6000612a9460218361334d565b91507f43616e206f6e6c79206d696e7420323020746f6b656e7320617420612074696d60008301527f65000000000000000000000000000000000000000000000000000000000000006020830152604082019050919050565b6000612afa60388361334d565b91507f4552433732313a20617070726f76652063616c6c6572206973206e6f74206f7760008301527f6e6572206e6f7220617070726f76656420666f7220616c6c00000000000000006020830152604082019050919050565b6000612b60602a8361334d565b91507f4552433732313a2062616c616e636520717565727920666f7220746865207a6560008301527f726f2061646472657373000000000000000000000000000000000000000000006020830152604082019050919050565b6000612bc660298361334d565b91507f4552433732313a206f776e657220717565727920666f72206e6f6e657869737460008301527f656e7420746f6b656e00000000000000000000000000000000000000000000006020830152604082019050919050565b6000612c2c60208361334d565b91507f4552433732313a206d696e7420746f20746865207a65726f20616464726573736000830152602082019050919050565b6000612c6c60318361334d565b91507f45524337323155524953746f726167653a2055524920717565727920666f722060008301527f6e6f6e6578697374656e7420746f6b656e0000000000000000000000000000006020830152604082019050919050565b6000612cd2602c8361334d565b91507f4552433732313a20617070726f76656420717565727920666f72206e6f6e657860008301527f697374656e7420746f6b656e00000000000000000000000000000000000000006020830152604082019050919050565b6000612d3860208361334d565b91507f4f776e61626c653a2063616c6c6572206973206e6f7420746865206f776e65726000830152602082019050919050565b6000612d7860298361334d565b91507f4552433732313a207472616e73666572206f6620746f6b656e2074686174206960008301527f73206e6f74206f776e00000000000000000000000000000000000000000000006020830152604082019050919050565b6000612dde602f8361334d565b91507f4552433732314d657461646174613a2055524920717565727920666f72206e6f60008301527f6e6578697374656e7420746f6b656e00000000000000000000000000000000006020830152604082019050919050565b6000612e4460218361334d565b91507f4552433732313a20617070726f76616c20746f2063757272656e74206f776e6560008301527f72000000000000000000000000000000000000000000000000000000000000006020830152604082019050919050565b6000612eaa60318361334d565b91507f4552433732313a207472616e736665722063616c6c6572206973206e6f74206f60008301527f776e6572206e6f7220617070726f7665640000000000000000000000000000006020830152604082019050919050565b612f0c816134e8565b82525050565b6000612f1e8285612732565b9150612f2a8284612732565b91508190509392505050565b6000602082019050612f4b60008301846126a2565b92915050565b6000608082019050612f6660008301876126a2565b612f7360208301866126a2565b612f806040830185612f03565b8181036060830152612f9281846126c0565b905095945050505050565b6000602082019050612fb260008301846126b1565b92915050565b60006020820190508181036000830152612fd281846126f9565b905092915050565b60006020820190508181036000830152612ff381612763565b9050919050565b60006020820190508181036000830152613013816127c9565b9050919050565b600060208201905081810360008301526130338161282f565b9050919050565b6000602082019050818103600083015261305381612895565b9050919050565b60006020820190508181036000830152613073816128fb565b9050919050565b600060208201905081810360008301526130938161293b565b9050919050565b600060208201905081810360008301526130b3816129a1565b9050919050565b600060208201905081810360008301526130d3816129e1565b9050919050565b600060208201905081810360008301526130f381612a21565b9050919050565b6000602082019050818103600083015261311381612a87565b9050919050565b6000602082019050818103600083015261313381612aed565b9050919050565b6000602082019050818103600083015261315381612b53565b9050919050565b6000602082019050818103600083015261317381612bb9565b9050919050565b6000602082019050818103600083015261319381612c1f565b9050919050565b600060208201905081810360008301526131b381612c5f565b9050919050565b600060208201905081810360008301526131d381612cc5565b9050919050565b600060208201905081810360008301526131f381612d2b565b9050919050565b6000602082019050818103600083015261321381612d6b565b9050919050565b6000602082019050818103600083015261323381612dd1565b9050919050565b6000602082019050818103600083015261325381612e37565b9050919050565b6000602082019050818103600083015261327381612e9d565b9050919050565b600060208201905061328f6000830184612f03565b92915050565b6000604051905081810181811067ffffffffffffffff821117156132bc576132bb61366d565b5b8060405250919050565b600067ffffffffffffffff8211156132e1576132e061366d565b5b601f19601f8301169050602081019050919050565b600067ffffffffffffffff8211156133115761331061366d565b5b601f19601f8301169050602081019050919050565b600081519050919050565b600081519050919050565b600082825260208201905092915050565b600082825260208201905092915050565b600081905092915050565b6000613374826134e8565b915061337f836134e8565b9250827fffffffffffffffffffffffffffffffffffffffffffffffffffffffffffffffff038211156133b4576133b36135e0565b5b828201905092915050565b60006133ca826134e8565b91506133d5836134e8565b9250826133e5576133e461360f565b5b828204905092915050565b60006133fb826134e8565b9150613406836134e8565b9250817fffffffffffffffffffffffffffffffffffffffffffffffffffffffffffffffff048311821515161561343f5761343e6135e0565b5b828202905092915050565b6000613455826134e8565b9150613460836134e8565b925082821015613473576134726135e0565b5b828203905092915050565b6000613489826134c8565b9050919050565b60008115159050919050565b60007fffffffff0000000000000000000000000000000000000000000000000000000082169050919050565b600073ffffffffffffffffffffffffffffffffffffffff82169050919050565b6000819050919050565b82818337600083830152505050565b60005b8381101561351f578082015181840152602081019050613504565b8381111561352e576000848401525b50505050565b6000600282049050600182168061354c57607f821691505b602082108114156135605761355f61363e565b5b50919050565b6000613571826134e8565b91507fffffffffffffffffffffffffffffffffffffffffffffffffffffffffffffffff8214156135a4576135a36135e0565b5b600182019050919050565b60006135ba826134e8565b91506135c5836134e8565b9250826135d5576135d461360f565b5b828206905092915050565b7f4e487b7100000000000000000000000000000000000000000000000000000000600052601160045260246000fd5b7f4e487b7100000000000000000000000000000000000000000000000000000000600052601260045260246000fd5b7f4e487b7100000000000000000000000000000000000000000000000000000000600052602260045260246000fd5b7f4e487b7100000000000000000000000000000000000000000000000000000000600052604160045260246000fd5b6000601f19601f8301169050919050565b6136b68161347e565b81146136c157600080fd5b50565b6136cd81613490565b81146136d857600080fd5b50565b6136e48161349c565b81146136ef57600080fd5b50565b6136fb816134e8565b811461370657600080fd5b5056fea2646970667358221220b6ae6a563c78a06560dda33dc261bee4f6594dfa9bc14efeab326361166f3a6a64736f6c63430008000033",
  "linkReferences": {},
  "deployedLinkReferences": {}
}