{
  "_format": "hh-sol-artifact-1",
  "contractName": "Boids",
  "sourceName": "contracts/Boids.sol",
  "abi": [
    {
      "inputs": [
        {
          "internalType": "string",
          "name": "baseURI",
          "type": "string"
        }
      ],
      "stateMutability": "nonpayable",
      "type": "constructor"
    },
    {
      "anonymous": false,
      "inputs": [
        {
          "indexed": true,
          "internalType": "address",
          "name": "owner",
          "type": "address"
        },
        {
          "indexed": true,
          "internalType": "address",
          "name": "approved",
          "type": "address"
        },
        {
          "indexed": true,
          "internalType": "uint256",
          "name": "tokenId",
          "type": "uint256"
        }
      ],
      "name": "Approval",
      "type": "event"
    },
    {
      "anonymous": false,
      "inputs": [
        {
          "indexed": true,
          "internalType": "address",
          "name": "owner",
          "type": "address"
        },
        {
          "indexed": true,
          "internalType": "address",
          "name": "operator",
          "type": "address"
        },
        {
          "indexed": false,
          "internalType": "bool",
          "name": "approved",
          "type": "bool"
        }
      ],
      "name": "ApprovalForAll",
      "type": "event"
    },
    {
      "anonymous": false,
      "inputs": [
        {
          "indexed": true,
          "internalType": "address",
          "name": "previousOwner",
          "type": "address"
        },
        {
          "indexed": true,
          "internalType": "address",
          "name": "newOwner",
          "type": "address"
        }
      ],
      "name": "OwnershipTransferred",
      "type": "event"
    },
    {
      "anonymous": false,
      "inputs": [
        {
          "indexed": true,
          "internalType": "address",
          "name": "from",
          "type": "address"
        },
        {
          "indexed": true,
          "internalType": "address",
          "name": "to",
          "type": "address"
        },
        {
          "indexed": true,
          "internalType": "uint256",
          "name": "tokenId",
          "type": "uint256"
        }
      ],
      "name": "Transfer",
      "type": "event"
    },
    {
      "inputs": [],
      "name": "MAX_BOIDS",
      "outputs": [
        {
          "internalType": "uint256",
          "name": "",
          "type": "uint256"
        }
      ],
      "stateMutability": "view",
      "type": "function"
    },
    {
      "inputs": [
        {
          "internalType": "address",
          "name": "to",
          "type": "address"
        },
        {
          "internalType": "uint256",
          "name": "tokenId",
          "type": "uint256"
        }
      ],
      "name": "approve",
      "outputs": [],
      "stateMutability": "nonpayable",
      "type": "function"
    },
    {
      "inputs": [
        {
          "internalType": "address",
          "name": "owner",
          "type": "address"
        }
      ],
      "name": "balanceOf",
      "outputs": [
        {
          "internalType": "uint256",
          "name": "",
          "type": "uint256"
        }
      ],
      "stateMutability": "view",
      "type": "function"
    },
    {
      "inputs": [],
      "name": "boidPrice",
      "outputs": [
        {
          "internalType": "uint256",
          "name": "",
          "type": "uint256"
        }
      ],
      "stateMutability": "view",
      "type": "function"
    },
    {
      "inputs": [],
      "name": "flipSaleState",
      "outputs": [],
      "stateMutability": "nonpayable",
      "type": "function"
    },
    {
      "inputs": [
        {
          "internalType": "uint256",
          "name": "tokenId",
          "type": "uint256"
        }
      ],
      "name": "getApproved",
      "outputs": [
        {
          "internalType": "address",
          "name": "",
          "type": "address"
        }
      ],
      "stateMutability": "view",
      "type": "function"
    },
    {
      "inputs": [
        {
          "internalType": "address",
          "name": "owner",
          "type": "address"
        },
        {
          "internalType": "address",
          "name": "operator",
          "type": "address"
        }
      ],
      "name": "isApprovedForAll",
      "outputs": [
        {
          "internalType": "bool",
          "name": "",
          "type": "bool"
        }
      ],
      "stateMutability": "view",
      "type": "function"
    },
    {
      "inputs": [],
      "name": "maxBoidPurchase",
      "outputs": [
        {
          "internalType": "uint256",
          "name": "",
          "type": "uint256"
        }
      ],
      "stateMutability": "view",
      "type": "function"
    },
    {
      "inputs": [
        {
          "internalType": "uint256",
          "name": "numberOfTokens",
          "type": "uint256"
        }
      ],
      "name": "mintBoid",
      "outputs": [],
      "stateMutability": "payable",
      "type": "function"
    },
    {
      "inputs": [],
      "name": "name",
      "outputs": [
        {
          "internalType": "string",
          "name": "",
          "type": "string"
        }
      ],
      "stateMutability": "view",
      "type": "function"
    },
    {
      "inputs": [],
      "name": "owner",
      "outputs": [
        {
          "internalType": "address",
          "name": "",
          "type": "address"
        }
      ],
      "stateMutability": "view",
      "type": "function"
    },
    {
      "inputs": [
        {
          "internalType": "uint256",
          "name": "tokenId",
          "type": "uint256"
        }
      ],
      "name": "ownerOf",
      "outputs": [
        {
          "internalType": "address",
          "name": "",
          "type": "address"
        }
      ],
      "stateMutability": "view",
      "type": "function"
    },
    {
      "inputs": [],
      "name": "renounceOwnership",
      "outputs": [],
      "stateMutability": "nonpayable",
      "type": "function"
    },
    {
      "inputs": [
        {
          "internalType": "address",
          "name": "from",
          "type": "address"
        },
        {
          "internalType": "address",
          "name": "to",
          "type": "address"
        },
        {
          "internalType": "uint256",
          "name": "tokenId",
          "type": "uint256"
        }
      ],
      "name": "safeTransferFrom",
      "outputs": [],
      "stateMutability": "nonpayable",
      "type": "function"
    },
    {
      "inputs": [
        {
          "internalType": "address",
          "name": "from",
          "type": "address"
        },
        {
          "internalType": "address",
          "name": "to",
          "type": "address"
        },
        {
          "internalType": "uint256",
          "name": "tokenId",
          "type": "uint256"
        },
        {
          "internalType": "bytes",
          "name": "_data",
          "type": "bytes"
        }
      ],
      "name": "safeTransferFrom",
      "outputs": [],
      "stateMutability": "nonpayable",
      "type": "function"
    },
    {
      "inputs": [],
      "name": "saleIsActive",
      "outputs": [
        {
          "internalType": "bool",
          "name": "",
          "type": "bool"
        }
      ],
      "stateMutability": "view",
      "type": "function"
    },
    {
      "inputs": [
        {
          "internalType": "address",
          "name": "operator",
          "type": "address"
        },
        {
          "internalType": "bool",
          "name": "approved",
          "type": "bool"
        }
      ],
      "name": "setApprovalForAll",
      "outputs": [],
      "stateMutability": "nonpayable",
      "type": "function"
    },
    {
      "inputs": [
        {
          "internalType": "string",
          "name": "baseURI",
          "type": "string"
        }
      ],
      "name": "setBaseURI",
      "outputs": [],
      "stateMutability": "nonpayable",
      "type": "function"
    },
    {
      "inputs": [
        {
          "internalType": "bytes4",
          "name": "interfaceId",
          "type": "bytes4"
        }
      ],
      "name": "supportsInterface",
      "outputs": [
        {
          "internalType": "bool",
          "name": "",
          "type": "bool"
        }
      ],
      "stateMutability": "view",
      "type": "function"
    },
    {
      "inputs": [],
      "name": "symbol",
      "outputs": [
        {
          "internalType": "string",
          "name": "",
          "type": "string"
        }
      ],
      "stateMutability": "view",
      "type": "function"
    },
    {
      "inputs": [
        {
          "internalType": "uint256",
          "name": "tokenId",
          "type": "uint256"
        }
      ],
      "name": "tokenURI",
      "outputs": [
        {
          "internalType": "string",
          "name": "",
          "type": "string"
        }
      ],
      "stateMutability": "view",
      "type": "function"
    },
    {
      "inputs": [],
      "name": "totalSupply",
      "outputs": [
        {
          "internalType": "uint256",
          "name": "",
          "type": "uint256"
        }
      ],
      "stateMutability": "view",
      "type": "function"
    },
    {
      "inputs": [
        {
          "internalType": "address",
          "name": "from",
          "type": "address"
        },
        {
          "internalType": "address",
          "name": "to",
          "type": "address"
        },
        {
          "internalType": "uint256",
          "name": "tokenId",
          "type": "uint256"
        }
      ],
      "name": "transferFrom",
      "outputs": [],
      "stateMutability": "nonpayable",
      "type": "function"
    },
    {
      "inputs": [
        {
          "internalType": "address",
          "name": "newOwner",
          "type": "address"
        }
      ],
      "name": "transferOwnership",
      "outputs": [],
      "stateMutability": "nonpayable",
      "type": "function"
    },
    {
      "inputs": [],
      "name": "withdraw",
      "outputs": [],
      "stateMutability": "nonpayable",
      "type": "function"
    }
  ],
  "bytecode": "0x608060405260006008556000600960006101000a81548160ff0219169083151502179055503480156200003157600080fd5b5060405162003c5a38038062003c5a8339818101604052810190620000579190620003f4565b6040518060400160405280600581526020017f424f4944530000000000000000000000000000000000000000000000000000008152506040518060400160405280600481526020017f424f4944000000000000000000000000000000000000000000000000000000008152508160009080519060200190620000db929190620002d2565b508060019080519060200190620000f4929190620002d2565b505050620001176200010b6200012f60201b60201c565b6200013760201b60201c565b6200012881620001fd60201b60201c565b50620005df565b600033905090565b6000600760009054906101000a900473ffffffffffffffffffffffffffffffffffffffff16905081600760006101000a81548173ffffffffffffffffffffffffffffffffffffffff021916908373ffffffffffffffffffffffffffffffffffffffff1602179055508173ffffffffffffffffffffffffffffffffffffffff168173ffffffffffffffffffffffffffffffffffffffff167f8be0079c531659141344cd1fd0a4f28419497f9722a3daafe3b4186f6b6457e060405160405180910390a35050565b6200020d6200012f60201b60201c565b73ffffffffffffffffffffffffffffffffffffffff1662000233620002a860201b60201c565b73ffffffffffffffffffffffffffffffffffffffff16146200028c576040517f08c379a000000000000000000000000000000000000000000000000000000000815260040162000283906200047b565b60405180910390fd5b80600a9080519060200190620002a4929190620002d2565b5050565b6000600760009054906101000a900473ffffffffffffffffffffffffffffffffffffffff16905090565b828054620002e0906200054b565b90600052602060002090601f01602090048101928262000304576000855562000350565b82601f106200031f57805160ff191683800117855562000350565b8280016001018555821562000350579182015b828111156200034f57825182559160200191906001019062000332565b5b5090506200035f919062000363565b5090565b5b808211156200037e57600081600090555060010162000364565b5090565b6000620003996200039384620004d1565b6200049d565b905082815260208101848484011115620003b257600080fd5b620003bf84828562000515565b509392505050565b600082601f830112620003d957600080fd5b8151620003eb84826020860162000382565b91505092915050565b6000602082840312156200040757600080fd5b600082015167ffffffffffffffff8111156200042257600080fd5b6200043084828501620003c7565b91505092915050565b60006200044860208362000504565b91507f4f776e61626c653a2063616c6c6572206973206e6f7420746865206f776e65726000830152602082019050919050565b60006020820190508181036000830152620004968162000439565b9050919050565b6000604051905081810181811067ffffffffffffffff82111715620004c757620004c6620005b0565b5b8060405250919050565b600067ffffffffffffffff821115620004ef57620004ee620005b0565b5b601f19601f8301169050602081019050919050565b600082825260208201905092915050565b60005b838110156200053557808201518184015260208101905062000518565b8381111562000545576000848401525b50505050565b600060028204905060018216806200056457607f821691505b602082108114156200057b576200057a62000581565b5b50919050565b7f4e487b7100000000000000000000000000000000000000000000000000000000600052602260045260246000fd5b7f4e487b7100000000000000000000000000000000000000000000000000000000600052604160045260246000fd5b61366b80620005ef6000396000f3fe6080604052600436106101665760003560e01c80636352211e116100d1578063b88d4fde1161008a578063e985e9c511610064578063e985e9c514610504578063eb8d244414610541578063f2fde38b1461056c578063fdae23c41461059557610166565b8063b88d4fde14610473578063c87b56dd1461049c578063e95076be146104d957610166565b80636352211e1461036357806370a08231146103a0578063715018a6146103dd5780638da5cb5b146103f457806395d89b411461041f578063a22cb4651461044a57610166565b806323b872dd1161012357806323b872dd1461028f57806334918dfd146102b85780633ccfd60b146102cf57806342842e0e146102e6578063529643891461030f57806355f804b31461033a57610166565b806301ffc9a71461016b57806306fdde03146101a8578063081812fc146101d3578063095ea7b3146102105780630d27d6fa1461023957806318160ddd14610264575b600080fd5b34801561017757600080fd5b50610192600480360381019061018d9190612512565b6105b1565b60405161019f9190612ec9565b60405180910390f35b3480156101b457600080fd5b506101bd610693565b6040516101ca9190612ee4565b60405180910390f35b3480156101df57600080fd5b506101fa60048036038101906101f591906125a5565b610725565b6040516102079190612e62565b60405180910390f35b34801561021c57600080fd5b50610237600480360381019061023291906124d6565b6107aa565b005b34801561024557600080fd5b5061024e6108c2565b60405161025b91906131a6565b60405180910390f35b34801561027057600080fd5b506102796108c7565b60405161028691906131a6565b60405180910390f35b34801561029b57600080fd5b506102b660048036038101906102b191906123d0565b6108cd565b005b3480156102c457600080fd5b506102cd61092d565b005b3480156102db57600080fd5b506102e46109d5565b005b3480156102f257600080fd5b5061030d600480360381019061030891906123d0565b610aa0565b005b34801561031b57600080fd5b50610324610ac0565b60405161033191906131a6565b60405180910390f35b34801561034657600080fd5b50610361600480360381019061035c9190612564565b610acb565b005b34801561036f57600080fd5b5061038a600480360381019061038591906125a5565b610b61565b6040516103979190612e62565b60405180910390f35b3480156103ac57600080fd5b506103c760048036038101906103c2919061236b565b610c13565b6040516103d491906131a6565b60405180910390f35b3480156103e957600080fd5b506103f2610ccb565b005b34801561040057600080fd5b50610409610d53565b6040516104169190612e62565b60405180910390f35b34801561042b57600080fd5b50610434610d7d565b6040516104419190612ee4565b60405180910390f35b34801561045657600080fd5b50610471600480360381019061046c919061249a565b610e0f565b005b34801561047f57600080fd5b5061049a6004803603810190610495919061241f565b610f90565b005b3480156104a857600080fd5b506104c360048036038101906104be91906125a5565b610ff2565b6040516104d09190612ee4565b60405180910390f35b3480156104e557600080fd5b506104ee611144565b6040516104fb91906131a6565b60405180910390f35b34801561051057600080fd5b5061052b60048036038101906105269190612394565b61114a565b6040516105389190612ec9565b60405180910390f35b34801561054d57600080fd5b506105566111de565b6040516105639190612ec9565b60405180910390f35b34801561057857600080fd5b50610593600480360381019061058e919061236b565b6111f1565b005b6105af60048036038101906105aa91906125a5565b6112e9565b005b60007f80ac58cd000000000000000000000000000000000000000000000000000000007bffffffffffffffffffffffffffffffffffffffffffffffffffffffff1916827bffffffffffffffffffffffffffffffffffffffffffffffffffffffff1916148061067c57507f5b5e139f000000000000000000000000000000000000000000000000000000007bffffffffffffffffffffffffffffffffffffffffffffffffffffffff1916827bffffffffffffffffffffffffffffffffffffffffffffffffffffffff1916145b8061068c575061068b82611494565b5b9050919050565b6060600080546106a290613460565b80601f01602080910402602001604051908101604052809291908181526020018280546106ce90613460565b801561071b5780601f106106f05761010080835404028352916020019161071b565b820191906000526020600020905b8154815290600101906020018083116106fe57829003601f168201915b5050505050905090565b6000610730826114fe565b61076f576040517f08c379a0000000000000000000000000000000000000000000000000000000008152600401610766906130e6565b60405180910390fd5b6004600083815260200190815260200160002060009054906101000a900473ffffffffffffffffffffffffffffffffffffffff169050919050565b60006107b582610b61565b90508073ffffffffffffffffffffffffffffffffffffffff168373ffffffffffffffffffffffffffffffffffffffff161415610826576040517f08c379a000000000000000000000000000000000000000000000000000000000815260040161081d90613166565b60405180910390fd5b8073ffffffffffffffffffffffffffffffffffffffff1661084561156a565b73ffffffffffffffffffffffffffffffffffffffff16148061087457506108738161086e61156a565b61114a565b5b6108b3576040517f08c379a00000000000000000000000000000000000000000000000000000000081526004016108aa90613046565b60405180910390fd5b6108bd8383611572565b505050565b601481565b60085481565b6108de6108d861156a565b8261162b565b61091d576040517f08c379a000000000000000000000000000000000000000000000000000000000815260040161091490613186565b60405180910390fd5b610928838383611709565b505050565b61093561156a565b73ffffffffffffffffffffffffffffffffffffffff16610953610d53565b73ffffffffffffffffffffffffffffffffffffffff16146109a9576040517f08c379a00000000000000000000000000000000000000000000000000000000081526004016109a090613106565b60405180910390fd5b600960009054906101000a900460ff1615600960006101000a81548160ff021916908315150217905550565b6109dd61156a565b73ffffffffffffffffffffffffffffffffffffffff166109fb610d53565b73ffffffffffffffffffffffffffffffffffffffff1614610a51576040517f08c379a0000000000000000000000000000000000000000000000000000000008152600401610a4890613106565b60405180910390fd5b60004790503373ffffffffffffffffffffffffffffffffffffffff166108fc829081150290604051600060405180830381858888f19350505050158015610a9c573d6000803e3d6000fd5b5050565b610abb83838360405180602001604052806000815250610f90565b505050565b666a94d74f43000081565b610ad361156a565b73ffffffffffffffffffffffffffffffffffffffff16610af1610d53565b73ffffffffffffffffffffffffffffffffffffffff1614610b47576040517f08c379a0000000000000000000000000000000000000000000000000000000008152600401610b3e90613106565b60405180910390fd5b80600a9080519060200190610b5d92919061218f565b5050565b6000806002600084815260200190815260200160002060009054906101000a900473ffffffffffffffffffffffffffffffffffffffff169050600073ffffffffffffffffffffffffffffffffffffffff168173ffffffffffffffffffffffffffffffffffffffff161415610c0a576040517f08c379a0000000000000000000000000000000000000000000000000000000008152600401610c0190613086565b60405180910390fd5b80915050919050565b60008073ffffffffffffffffffffffffffffffffffffffff168273ffffffffffffffffffffffffffffffffffffffff161415610c84576040517f08c379a0000000000000000000000000000000000000000000000000000000008152600401610c7b90613066565b60405180910390fd5b600360008373ffffffffffffffffffffffffffffffffffffffff1673ffffffffffffffffffffffffffffffffffffffff168152602001908152602001600020549050919050565b610cd361156a565b73ffffffffffffffffffffffffffffffffffffffff16610cf1610d53565b73ffffffffffffffffffffffffffffffffffffffff1614610d47576040517f08c379a0000000000000000000000000000000000000000000000000000000008152600401610d3e90613106565b60405180910390fd5b610d516000611965565b565b6000600760009054906101000a900473ffffffffffffffffffffffffffffffffffffffff16905090565b606060018054610d8c90613460565b80601f0160208091040260200160405190810160405280929190818152602001828054610db890613460565b8015610e055780601f10610dda57610100808354040283529160200191610e05565b820191906000526020600020905b815481529060010190602001808311610de857829003601f168201915b5050505050905090565b610e1761156a565b73ffffffffffffffffffffffffffffffffffffffff168273ffffffffffffffffffffffffffffffffffffffff161415610e85576040517f08c379a0000000000000000000000000000000000000000000000000000000008152600401610e7c90612fc6565b60405180910390fd5b8060056000610e9261156a565b73ffffffffffffffffffffffffffffffffffffffff1673ffffffffffffffffffffffffffffffffffffffff16815260200190815260200160002060008473ffffffffffffffffffffffffffffffffffffffff1673ffffffffffffffffffffffffffffffffffffffff16815260200190815260200160002060006101000a81548160ff0219169083151502179055508173ffffffffffffffffffffffffffffffffffffffff16610f3f61156a565b73ffffffffffffffffffffffffffffffffffffffff167f17307eab39ab6107e8899845ad3d59bd9653f200f220920489ca2b5937696c3183604051610f849190612ec9565b60405180910390a35050565b610fa1610f9b61156a565b8361162b565b610fe0576040517f08c379a0000000000000000000000000000000000000000000000000000000008152600401610fd790613186565b60405180910390fd5b610fec84848484611a2b565b50505050565b6060610ffd826114fe565b61103c576040517f08c379a0000000000000000000000000000000000000000000000000000000008152600401611033906130c6565b60405180910390fd5b600060066000848152602001908152602001600020805461105c90613460565b80601f016020809104026020016040519081016040528092919081815260200182805461108890613460565b80156110d55780601f106110aa576101008083540402835291602001916110d5565b820191906000526020600020905b8154815290600101906020018083116110b857829003601f168201915b5050505050905060006110e6611a87565b90506000815114156110fc57819250505061113f565b600082511115611131578082604051602001611119929190612e3e565b6040516020818303038152906040529250505061113f565b61113a84611b19565b925050505b919050565b6107d081565b6000600560008473ffffffffffffffffffffffffffffffffffffffff1673ffffffffffffffffffffffffffffffffffffffff16815260200190815260200160002060008373ffffffffffffffffffffffffffffffffffffffff1673ffffffffffffffffffffffffffffffffffffffff16815260200190815260200160002060009054906101000a900460ff16905092915050565b600960009054906101000a900460ff1681565b6111f961156a565b73ffffffffffffffffffffffffffffffffffffffff16611217610d53565b73ffffffffffffffffffffffffffffffffffffffff161461126d576040517f08c379a000000000000000000000000000000000000000000000000000000000815260040161126490613106565b60405180910390fd5b600073ffffffffffffffffffffffffffffffffffffffff168173ffffffffffffffffffffffffffffffffffffffff1614156112dd576040517f08c379a00000000000000000000000000000000000000000000000000000000081526004016112d490612f66565b60405180910390fd5b6112e681611965565b50565b600960009054906101000a900460ff16611338576040517f08c379a000000000000000000000000000000000000000000000000000000000815260040161132f90612f06565b60405180910390fd5b600081118015611349575060148111155b611388576040517f08c379a000000000000000000000000000000000000000000000000000000000815260040161137f90613026565b60405180910390fd5b6107d06113a082600854611bc090919063ffffffff16565b11156113e1576040517f08c379a00000000000000000000000000000000000000000000000000000000081526004016113d890612f46565b60405180910390fd5b6113fb81666a94d74f430000611bd690919063ffffffff16565b34101561143d576040517f08c379a000000000000000000000000000000000000000000000000000000000815260040161143490612fe6565b60405180910390fd5b60005b818110156114905761145e6001600854611bc090919063ffffffff16565b6008819055506107d0600854101561147d5761147c33600854611bec565b5b808061148890613492565b915050611440565b5050565b60007f01ffc9a7000000000000000000000000000000000000000000000000000000007bffffffffffffffffffffffffffffffffffffffffffffffffffffffff1916827bffffffffffffffffffffffffffffffffffffffffffffffffffffffff1916149050919050565b60008073ffffffffffffffffffffffffffffffffffffffff166002600084815260200190815260200160002060009054906101000a900473ffffffffffffffffffffffffffffffffffffffff1673ffffffffffffffffffffffffffffffffffffffff1614159050919050565b600033905090565b816004600083815260200190815260200160002060006101000a81548173ffffffffffffffffffffffffffffffffffffffff021916908373ffffffffffffffffffffffffffffffffffffffff160217905550808273ffffffffffffffffffffffffffffffffffffffff166115e583610b61565b73ffffffffffffffffffffffffffffffffffffffff167f8c5be1e5ebec7d5bd14f71427d1e84f3dd0314c0f7b2291e5b200ac8c7c3b92560405160405180910390a45050565b6000611636826114fe565b611675576040517f08c379a000000000000000000000000000000000000000000000000000000000815260040161166c90613006565b60405180910390fd5b600061168083610b61565b90508073ffffffffffffffffffffffffffffffffffffffff168473ffffffffffffffffffffffffffffffffffffffff1614806116ef57508373ffffffffffffffffffffffffffffffffffffffff166116d784610725565b73ffffffffffffffffffffffffffffffffffffffff16145b8061170057506116ff818561114a565b5b91505092915050565b8273ffffffffffffffffffffffffffffffffffffffff1661172982610b61565b73ffffffffffffffffffffffffffffffffffffffff161461177f576040517f08c379a000000000000000000000000000000000000000000000000000000000815260040161177690613126565b60405180910390fd5b600073ffffffffffffffffffffffffffffffffffffffff168273ffffffffffffffffffffffffffffffffffffffff1614156117ef576040517f08c379a00000000000000000000000000000000000000000000000000000000081526004016117e690612fa6565b60405180910390fd5b6117fa838383611c0a565b611805600082611572565b6001600360008573ffffffffffffffffffffffffffffffffffffffff1673ffffffffffffffffffffffffffffffffffffffff16815260200190815260200160002060008282546118559190613376565b925050819055506001600360008473ffffffffffffffffffffffffffffffffffffffff1673ffffffffffffffffffffffffffffffffffffffff16815260200190815260200160002060008282546118ac9190613295565b92505081905550816002600083815260200190815260200160002060006101000a81548173ffffffffffffffffffffffffffffffffffffffff021916908373ffffffffffffffffffffffffffffffffffffffff160217905550808273ffffffffffffffffffffffffffffffffffffffff168473ffffffffffffffffffffffffffffffffffffffff167fddf252ad1be2c89b69c2b068fc378daa952ba7f163c4a11628f55a4df523b3ef60405160405180910390a4505050565b6000600760009054906101000a900473ffffffffffffffffffffffffffffffffffffffff16905081600760006101000a81548173ffffffffffffffffffffffffffffffffffffffff021916908373ffffffffffffffffffffffffffffffffffffffff1602179055508173ffffffffffffffffffffffffffffffffffffffff168173ffffffffffffffffffffffffffffffffffffffff167f8be0079c531659141344cd1fd0a4f28419497f9722a3daafe3b4186f6b6457e060405160405180910390a35050565b611a36848484611709565b611a4284848484611c0f565b611a81576040517f08c379a0000000000000000000000000000000000000000000000000000000008152600401611a7890612f26565b60405180910390fd5b50505050565b6060600a8054611a9690613460565b80601f0160208091040260200160405190810160405280929190818152602001828054611ac290613460565b8015611b0f5780601f10611ae457610100808354040283529160200191611b0f565b820191906000526020600020905b815481529060010190602001808311611af257829003601f168201915b5050505050905090565b6060611b24826114fe565b611b63576040517f08c379a0000000000000000000000000000000000000000000000000000000008152600401611b5a90613146565b60405180910390fd5b6000611b6d611a87565b90506000815111611b8d5760405180602001604052806000815250611bb8565b80611b9784611da6565b604051602001611ba8929190612e3e565b6040516020818303038152906040525b915050919050565b60008183611bce9190613295565b905092915050565b60008183611be4919061331c565b905092915050565b611c06828260405180602001604052806000815250611f53565b5050565b505050565b6000611c308473ffffffffffffffffffffffffffffffffffffffff16611fae565b15611d99578373ffffffffffffffffffffffffffffffffffffffff1663150b7a02611c5961156a565b8786866040518563ffffffff1660e01b8152600401611c7b9493929190612e7d565b602060405180830381600087803b158015611c9557600080fd5b505af1925050508015611cc657506040513d601f19601f82011682018060405250810190611cc3919061253b565b60015b611d49573d8060008114611cf6576040519150601f19603f3d011682016040523d82523d6000602084013e611cfb565b606091505b50600081511415611d41576040517f08c379a0000000000000000000000000000000000000000000000000000000008152600401611d3890612f26565b60405180910390fd5b805181602001fd5b63150b7a0260e01b7bffffffffffffffffffffffffffffffffffffffffffffffffffffffff1916817bffffffffffffffffffffffffffffffffffffffffffffffffffffffff191614915050611d9e565b600190505b949350505050565b60606000821415611dee576040518060400160405280600181526020017f30000000000000000000000000000000000000000000000000000000000000008152509050611f4e565b600082905060005b60008214611e20578080611e0990613492565b915050600a82611e1991906132eb565b9150611df6565b60008167ffffffffffffffff811115611e62577f4e487b7100000000000000000000000000000000000000000000000000000000600052604160045260246000fd5b6040519080825280601f01601f191660200182016040528015611e945781602001600182028036833780820191505090505b5090505b60008514611f4757600182611ead9190613376565b9150600a85611ebc91906134db565b6030611ec89190613295565b60f81b818381518110611f04577f4e487b7100000000000000000000000000000000000000000000000000000000600052603260045260246000fd5b60200101907effffffffffffffffffffffffffffffffffffffffffffffffffffffffffffff1916908160001a905350600a85611f4091906132eb565b9450611e98565b8093505050505b919050565b611f5d8383611fc1565b611f6a6000848484611c0f565b611fa9576040517f08c379a0000000000000000000000000000000000000000000000000000000008152600401611fa090612f26565b60405180910390fd5b505050565b600080823b905060008111915050919050565b600073ffffffffffffffffffffffffffffffffffffffff168273ffffffffffffffffffffffffffffffffffffffff161415612031576040517f08c379a0000000000000000000000000000000000000000000000000000000008152600401612028906130a6565b60405180910390fd5b61203a816114fe565b1561207a576040517f08c379a000000000000000000000000000000000000000000000000000000000815260040161207190612f86565b60405180910390fd5b61208660008383611c0a565b6001600360008473ffffffffffffffffffffffffffffffffffffffff1673ffffffffffffffffffffffffffffffffffffffff16815260200190815260200160002060008282546120d69190613295565b92505081905550816002600083815260200190815260200160002060006101000a81548173ffffffffffffffffffffffffffffffffffffffff021916908373ffffffffffffffffffffffffffffffffffffffff160217905550808273ffffffffffffffffffffffffffffffffffffffff16600073ffffffffffffffffffffffffffffffffffffffff167fddf252ad1be2c89b69c2b068fc378daa952ba7f163c4a11628f55a4df523b3ef60405160405180910390a45050565b82805461219b90613460565b90600052602060002090601f0160209004810192826121bd5760008555612204565b82601f106121d657805160ff1916838001178555612204565b82800160010185558215612204579182015b828111156122035782518255916020019190600101906121e8565b5b5090506122119190612215565b5090565b5b8082111561222e576000816000905550600101612216565b5090565b6000612245612240846131f2565b6131c1565b90508281526020810184848401111561225d57600080fd5b61226884828561341e565b509392505050565b600061228361227e84613222565b6131c1565b90508281526020810184848401111561229b57600080fd5b6122a684828561341e565b509392505050565b6000813590506122bd816135d9565b92915050565b6000813590506122d2816135f0565b92915050565b6000813590506122e781613607565b92915050565b6000815190506122fc81613607565b92915050565b600082601f83011261231357600080fd5b8135612323848260208601612232565b91505092915050565b600082601f83011261233d57600080fd5b813561234d848260208601612270565b91505092915050565b6000813590506123658161361e565b92915050565b60006020828403121561237d57600080fd5b600061238b848285016122ae565b91505092915050565b600080604083850312156123a757600080fd5b60006123b5858286016122ae565b92505060206123c6858286016122ae565b9150509250929050565b6000806000606084860312156123e557600080fd5b60006123f3868287016122ae565b9350506020612404868287016122ae565b925050604061241586828701612356565b9150509250925092565b6000806000806080858703121561243557600080fd5b6000612443878288016122ae565b9450506020612454878288016122ae565b935050604061246587828801612356565b925050606085013567ffffffffffffffff81111561248257600080fd5b61248e87828801612302565b91505092959194509250565b600080604083850312156124ad57600080fd5b60006124bb858286016122ae565b92505060206124cc858286016122c3565b9150509250929050565b600080604083850312156124e957600080fd5b60006124f7858286016122ae565b925050602061250885828601612356565b9150509250929050565b60006020828403121561252457600080fd5b6000612532848285016122d8565b91505092915050565b60006020828403121561254d57600080fd5b600061255b848285016122ed565b91505092915050565b60006020828403121561257657600080fd5b600082013567ffffffffffffffff81111561259057600080fd5b61259c8482850161232c565b91505092915050565b6000602082840312156125b757600080fd5b60006125c584828501612356565b91505092915050565b6125d7816133aa565b82525050565b6125e6816133bc565b82525050565b60006125f782613252565b6126018185613268565b935061261181856020860161342d565b61261a816135c8565b840191505092915050565b60006126308261325d565b61263a8185613279565b935061264a81856020860161342d565b612653816135c8565b840191505092915050565b60006126698261325d565b612673818561328a565b935061268381856020860161342d565b80840191505092915050565b600061269c602283613279565b91507f53616c65206d7573742062652061637469766520746f206d696e74206120426f60008301527f69640000000000000000000000000000000000000000000000000000000000006020830152604082019050919050565b6000612702603283613279565b91507f4552433732313a207472616e7366657220746f206e6f6e20455243373231526560008301527f63656976657220696d706c656d656e74657200000000000000000000000000006020830152604082019050919050565b6000612768602983613279565b91507f507572636861736520776f756c6420657863656564206d617820737570706c7960008301527f206f6620426f69647300000000000000000000000000000000000000000000006020830152604082019050919050565b60006127ce602683613279565b91507f4f776e61626c653a206e6577206f776e657220697320746865207a65726f206160008301527f64647265737300000000000000000000000000000000000000000000000000006020830152604082019050919050565b6000612834601c83613279565b91507f4552433732313a20746f6b656e20616c7265616479206d696e746564000000006000830152602082019050919050565b6000612874602483613279565b91507f4552433732313a207472616e7366657220746f20746865207a65726f2061646460008301527f72657373000000000000000000000000000000000000000000000000000000006020830152604082019050919050565b60006128da601983613279565b91507f4552433732313a20617070726f766520746f2063616c6c6572000000000000006000830152602082019050919050565b600061291a601f83613279565b91507f45746865722076616c75652073656e74206973206e6f7420636f7272656374006000830152602082019050919050565b600061295a602c83613279565b91507f4552433732313a206f70657261746f7220717565727920666f72206e6f6e657860008301527f697374656e7420746f6b656e00000000000000000000000000000000000000006020830152604082019050919050565b60006129c0602183613279565b91507f43616e206f6e6c79206d696e7420323020746f6b656e7320617420612074696d60008301527f65000000000000000000000000000000000000000000000000000000000000006020830152604082019050919050565b6000612a26603883613279565b91507f4552433732313a20617070726f76652063616c6c6572206973206e6f74206f7760008301527f6e6572206e6f7220617070726f76656420666f7220616c6c00000000000000006020830152604082019050919050565b6000612a8c602a83613279565b91507f4552433732313a2062616c616e636520717565727920666f7220746865207a6560008301527f726f2061646472657373000000000000000000000000000000000000000000006020830152604082019050919050565b6000612af2602983613279565b91507f4552433732313a206f776e657220717565727920666f72206e6f6e657869737460008301527f656e7420746f6b656e00000000000000000000000000000000000000000000006020830152604082019050919050565b6000612b58602083613279565b91507f4552433732313a206d696e7420746f20746865207a65726f20616464726573736000830152602082019050919050565b6000612b98603183613279565b91507f45524337323155524953746f726167653a2055524920717565727920666f722060008301527f6e6f6e6578697374656e7420746f6b656e0000000000000000000000000000006020830152604082019050919050565b6000612bfe602c83613279565b91507f4552433732313a20617070726f76656420717565727920666f72206e6f6e657860008301527f697374656e7420746f6b656e00000000000000000000000000000000000000006020830152604082019050919050565b6000612c64602083613279565b91507f4f776e61626c653a2063616c6c6572206973206e6f7420746865206f776e65726000830152602082019050919050565b6000612ca4602983613279565b91507f4552433732313a207472616e73666572206f6620746f6b656e2074686174206960008301527f73206e6f74206f776e00000000000000000000000000000000000000000000006020830152604082019050919050565b6000612d0a602f83613279565b91507f4552433732314d657461646174613a2055524920717565727920666f72206e6f60008301527f6e6578697374656e7420746f6b656e00000000000000000000000000000000006020830152604082019050919050565b6000612d70602183613279565b91507f4552433732313a20617070726f76616c20746f2063757272656e74206f776e6560008301527f72000000000000000000000000000000000000000000000000000000000000006020830152604082019050919050565b6000612dd6603183613279565b91507f4552433732313a207472616e736665722063616c6c6572206973206e6f74206f60008301527f776e6572206e6f7220617070726f7665640000000000000000000000000000006020830152604082019050919050565b612e3881613414565b82525050565b6000612e4a828561265e565b9150612e56828461265e565b91508190509392505050565b6000602082019050612e7760008301846125ce565b92915050565b6000608082019050612e9260008301876125ce565b612e9f60208301866125ce565b612eac6040830185612e2f565b8181036060830152612ebe81846125ec565b905095945050505050565b6000602082019050612ede60008301846125dd565b92915050565b60006020820190508181036000830152612efe8184612625565b905092915050565b60006020820190508181036000830152612f1f8161268f565b9050919050565b60006020820190508181036000830152612f3f816126f5565b9050919050565b60006020820190508181036000830152612f5f8161275b565b9050919050565b60006020820190508181036000830152612f7f816127c1565b9050919050565b60006020820190508181036000830152612f9f81612827565b9050919050565b60006020820190508181036000830152612fbf81612867565b9050919050565b60006020820190508181036000830152612fdf816128cd565b9050919050565b60006020820190508181036000830152612fff8161290d565b9050919050565b6000602082019050818103600083015261301f8161294d565b9050919050565b6000602082019050818103600083015261303f816129b3565b9050919050565b6000602082019050818103600083015261305f81612a19565b9050919050565b6000602082019050818103600083015261307f81612a7f565b9050919050565b6000602082019050818103600083015261309f81612ae5565b9050919050565b600060208201905081810360008301526130bf81612b4b565b9050919050565b600060208201905081810360008301526130df81612b8b565b9050919050565b600060208201905081810360008301526130ff81612bf1565b9050919050565b6000602082019050818103600083015261311f81612c57565b9050919050565b6000602082019050818103600083015261313f81612c97565b9050919050565b6000602082019050818103600083015261315f81612cfd565b9050919050565b6000602082019050818103600083015261317f81612d63565b9050919050565b6000602082019050818103600083015261319f81612dc9565b9050919050565b60006020820190506131bb6000830184612e2f565b92915050565b6000604051905081810181811067ffffffffffffffff821117156131e8576131e7613599565b5b8060405250919050565b600067ffffffffffffffff82111561320d5761320c613599565b5b601f19601f8301169050602081019050919050565b600067ffffffffffffffff82111561323d5761323c613599565b5b601f19601f8301169050602081019050919050565b600081519050919050565b600081519050919050565b600082825260208201905092915050565b600082825260208201905092915050565b600081905092915050565b60006132a082613414565b91506132ab83613414565b9250827fffffffffffffffffffffffffffffffffffffffffffffffffffffffffffffffff038211156132e0576132df61350c565b5b828201905092915050565b60006132f682613414565b915061330183613414565b9250826133115761331061353b565b5b828204905092915050565b600061332782613414565b915061333283613414565b9250817fffffffffffffffffffffffffffffffffffffffffffffffffffffffffffffffff048311821515161561336b5761336a61350c565b5b828202905092915050565b600061338182613414565b915061338c83613414565b92508282101561339f5761339e61350c565b5b828203905092915050565b60006133b5826133f4565b9050919050565b60008115159050919050565b60007fffffffff0000000000000000000000000000000000000000000000000000000082169050919050565b600073ffffffffffffffffffffffffffffffffffffffff82169050919050565b6000819050919050565b82818337600083830152505050565b60005b8381101561344b578082015181840152602081019050613430565b8381111561345a576000848401525b50505050565b6000600282049050600182168061347857607f821691505b6020821081141561348c5761348b61356a565b5b50919050565b600061349d82613414565b91507fffffffffffffffffffffffffffffffffffffffffffffffffffffffffffffffff8214156134d0576134cf61350c565b5b600182019050919050565b60006134e682613414565b91506134f183613414565b9250826135015761350061353b565b5b828206905092915050565b7f4e487b7100000000000000000000000000000000000000000000000000000000600052601160045260246000fd5b7f4e487b7100000000000000000000000000000000000000000000000000000000600052601260045260246000fd5b7f4e487b7100000000000000000000000000000000000000000000000000000000600052602260045260246000fd5b7f4e487b7100000000000000000000000000000000000000000000000000000000600052604160045260246000fd5b6000601f19601f8301169050919050565b6135e2816133aa565b81146135ed57600080fd5b50565b6135f9816133bc565b811461360457600080fd5b50565b613610816133c8565b811461361b57600080fd5b50565b61362781613414565b811461363257600080fd5b5056fea264697066735822122040d93087e0f21733484f0d2cd5975b9591ea6db70e9a4952c0043a42e693378c64736f6c63430008000033",
  "linkReferences": {},
  "deployedLinkReferences": {}
}